S0230000352B3120436F6D6D756E69636174696F6E2050726F746F747970652E7372656304
S11300000C9463000C948B000C948B000C948B0068
S11300100C948B000C948B000C948B000C948B0030
S11300200C948B000C948B000C948B000C94BB09E7
S11300300C948B000C948B000C948B000C948B0010
S11300400C94E40B0C948B000C94B50D0C94030EDF
S11300500C948B000C948B000C948B000C948B00F0
S11300600C948B000C948B000000000024002700EB
S11300702A0000000000250028002B0000000000DA
S113008023002600290004040404040404040202D6
S11300900202020203030303030301020408102003
S11300A0408001020408102001020408102000000E
S11300B00007000201000003040600000000000025
S11300C0000018046F0F11241FBECFEFD8E0DEBF6D
S11300D0CDBF12E0A0E0B1E0E6E8FAE202C005908C
S11300E00D92A83DB107D9F713E0A8EDB2E001C025
S11300F01D92AD3EB107E1F710E0C6ECD0E004C0BC
S11301002297FE010E942515C23CD107C9F70E941F
S1130110C50F0C9441150C94000080EE92E00E94EF
S1130120130B89EC93E060E071E00E943C11809134
S1130130DD02813099F0813018F08230B1F407C0CB
S113014089EC93E068E071E00E943F1114C089ECEF
S113015093E06EE071E00E943F110DC089EC93E0E2
S113016069E171E00E943F1106C089EC93E064E20A
S113017071E00E943F1184E061E00E940D0D64EF84
S113018071E080E090E00E943A0C84E060E00E941C
S11301900D0D64EF71E080E090E00E943A0CEBCF2B
S11301A08F929F92AF92BF92CF92DF92EF92FF9283
S11301B00F931F93CF93DF9300D000D00F92CDB74E
S11301C0DEB71092DE0284E060E00E940D0D86E04E
S11301D060E00E940D0D08ED12E0C8010E94EA05DE
S11301E0C8010E94080662E370E080E090E00E948B
S11301F03A0C87E060E00E940D0D0E942C0C6B010C
S11302007C0117C00E942C0CDC01CB018C199D09C8
S1130210AE09BF09803D27E0920720E0A20720E055
S1130220B20738F082E08093DF028093DD020E94FF
S11302308D008EE00E94610D009721F368EE73E05B
S113024080E090E00E943A0C00EE12E0C80165E004
S113025070E00E940C0BC80164EB70E00E94770B05
S113026068EE73E080E090E00E943A0CC8010E94BE
S1130270130BDE011196E6E3F1E085E001900D92A7
S11302808150E1F764EF71E080E090E00E943A0C65
S11302904E010894811C911C0F2EF3E3AF2EBB2456
S11302A0F02D11E00F2EF8EDEF2EF2E0FF2EF02DE1
S11302B0C701612F0E94CE0568EE73E080E090E0F4
S11302C00E943A0CCA2CC701612F4C2D0E942606AD
S11302D08823C9F7C701612F0E94180668EE73E0EE
S11302E080E090E00E943A0CF401C1904F01C701F4
S11302F06C2D0E94CE0568EE73E080E090E00E94D1
S11303003A0CC7016C2D0E946D0690E08A159B057E
S113031021F081E08093DE0215C0C7010E94EA0546
S113032064EF71E080E090E00E943A0CC701612F15
S11303300E94FA051F5F83E390E0A80EB91E1630F1
S113034009F0B6CF00EE12E0C80165E070E00E944B
S11303500C0BC80161E070E00E94770B68EE73E05B
S113036080E090E00E943A0CC8010E94130B87E0E1
S113037061E00E940D0D0E942C0C6B017C0118C0E1
S11303800E942C0CDC01CB018C199D09AE09BF091C
S1130390803DE7E09E07E0E0AE07E0E0BE0740F006
S11303A081E08093DD0282E08093DF020E948D0071
S11303B08EE00E94610D009719F78091DE02813072
S11303C071F082E08093DE0289EC93E06CE271E0EC
S11303D00E943F1186E061E00E940D0D0AC089EC85
S11303E093E061E371E00E943F1184E061E00E94C8
S11303F00D0D68EE73E080E090E00E943A0C1092DC
S1130400DF020F900F900F900F900F90DF91CF911C
S11304101F910F91FF90EF90DF90CF90BF90AF901E
S11304209F908F900895EF92FF921F93CF93DF9345
S1130430CDB7DEB7E1970FB6F894DEBF0FBECDBFE0
S11304407C01CE018B966BE371E00E948012C701A0
S1130450BE01655D7F4F0E949B11182FCE018B96C4
S11304600E94BC12112339F089EC93E06DE371E032
S11304700E943F11D9C0CE01849663E471E00E94CA
S11304808012C701BE016C5D7F4F0E949B11182F23
S1130490CE0184960E94BC12112391F08091DF0258
S11304A0813039F489EC93E066E471E00E943F11F5
S11304B0BBC089EC93E063E471E00E943F11B4C0D7
S11304C0CE014D966EE471E00E948012C701BE0118
S11304D0635E7F4F0E949B11182FCE014D960E94A0
S11304E0BC12112391F08091DF02813039F489EC40
S11304F093E066E471E00E943F1196C089EC93E0BA
S11305006EE471E00E943F118FC0CE01469661E512
S113051071E00E948012C701BE016A5E7F4F0E9493
S11305209B11182FCE0146960E94BC121123B9F0DC
S11305308091DF02813039F489EC93E066E471E064
S11305400E943F1171C089EC93E061E571E00E9463
S11305503F1181E08093DF020E94D00065C0CE018C
S11305600F9664E571E00E948012C701BE01615FCD
S11305707F4F0E949B11182FCE010F960E94BC1230
S1130580112339F089EC93E064E571E00E943F1196
S11305904BC0CE0108966AE571E00E948012C70143
S11305A0BE01685F7F4F0E949B11182FCE010896F1
S11305B00E94BC121123D1F08091DE02813039F403
S11305C089EC93E061E371E00E943F110FC0823037
S11305D039F489EC93E06CE271E00E943F1106C0AB
S11305E089EC93E064E271E00E943F11CE01019630
S11305F061E671E00E948012C701BE016F5F7F4F08
S11306000E949B11182FCE0101960E94BC12112347
S113061051F06091DF0289EC93E070E04AE050E031
S11306200E941D1101C002C080E090E0E1960FB667
S1130630F894DEBF0FBECDBFDF91CF911F91FF9025
S1130640EF9008950F931F93CF93DF93CDB7DEB749
S11306502E970FB6F894DEBF0FBECDBFCE0108961D
S113066067E671E00E94801209EC13E00EC062E0BC
S113067070E080E090E00E943A0CC8010E94F60EFF
S1130680682FCE0108960E943A12C8010E94C50E36
S1130690009769F7CE010196BE01685F7F4F0E9403
S11306A0B112CE0101960E941302CE0101960E945E
S11306B0BC1289E00E94610D009779F48091DF02F9
S11306C0882359F489EC93E061E571E00E943F11BD
S11306D081E08093DF020E94D000CE0108960E9440
S11306E0BC122E960FB6F894DEBF0FBECDBFDF91BD
S11306F0CF911F910F910895CF92DF92EF92FF92C5
S1130700CF93DF93C9ECD3E0CE0140E855E260E03B
S113071070E00E943E0ECE016DE371E00E943F1135
S113072087E061E00E94CE0C89E060E00E94CE0C7C
S113073082E060E00E94CE0C88E060E00E94CE0C73
S11307408CE061E00E94CE0C8BE061E00E94CE0C54
S11307508AE061E00E94CE0C8EE062E00E94CE0C42
S113076084E061E00E94CE0C86E061E00E94CE0C41
S113077088ED92E00E9453068CE060E00E940D0D2B
S11307808BE061E00E940D0D8AE061E00E940D0D96
S113079087E061E00E940D0D0E942C0C6B017C012E
S11307A0EE24D7FCE094FE2C18C00E942C0CDC0133
S11307B0CB018C199D09AE09BF09803D27E0920742
S11307C020E0A20720E0B20740F081E08093DD0240
S11307D082E08093DF020E948D008EE00E94610D12
S11307E0009719F7C0EED2E0CE0165E070E00E94F8
S11307F00C0BCE0161E070E00E94770B68EE73E0B1
S113080080E090E00E943A0CCE010E94130B86E037
S113081061E00E940D0D89EC93E068E671E00E94AE
S11308203F11DF91CF91FF90EF90DF90CF9008952B
S113083080EE92E00E94830A88ED92E061E04DE050
S11308400E948D050895CF93DF93CBEED2E0CE01C5
S11308500E949506CE0160E00E94B506CE0161E0DB
S11308600E94AB06CE0168EE73E00E94A606DF91FB
S1130870CF910895FC01838161E00E940D0D0895DC
S1130880FC01838160E00E940D0D0895CF92DF92F8
S1130890EF92FF920F931F93CF93DF93EC01162FE8
S11308A0D42EC22E0E943A040F2EFBEEEF2EF2E05D
S11308B0FF2EF02DC701612F4D2D2C2D0E94800895
S11308C090E09093EA028093E902CE010E944004F2
S11308D0C7010E94BD06813009F43FC08C81882382
S11308E091F10F2EF9ECEF2EF3E0FF2EF02DC7015E
S11308F06CE671E00E943C11C701612F40E150E0B9
S11309000E94AD10C70167E971E00E943C11C70164
S11309106D2D40E150E00E94AD10C70164EA71E022
S11309200E943C11C7016C2D4AE050E00E94AD10BA
S1130930C70167EB71E00E943C11C701602F4AE0D8
S113094050E00E94BF10002351F00150CE01612FEE
S11309504D2D2C2D0E94460403C081E001C080E08F
S1130960DF91CF911F910F91FF90EF90DF90CF9087
S11309700895CF92DF92EF92FF920F931F93CF933C
S1130980DF93EC01162FF42EE22E0E943A048BEE34
S113099092E0612F4F2D2E2D0E94150990E0909327
S11309A0EA028093E902CE010E9440048091E902A8
S11309B09091EA02009729F48091E9029091EA0269
S11309C040C08C81882391F10F2EF9ECCF2EF3E0F7
S11309D0DF2EF02DC6016CEC71E00E943C11C601C3
S11309E0612F40E150E00E94AD10C60167E971E05B
S11309F00E943C11C6016F2D40E150E00E94AD10F1
S1130A00C60160EF71E00E943C11C6016E2D40E109
S1130A1050E00E94AD10C60167EB71E00E943C11EA
S1130A20C601602F4AE050E00E94BF10002341F04D
S1130A300150CE01612F4F2D2E2D0E94B90401C00B
S1130A4081E0DF91CF911F910F91FF90EF90DF90A4
S1130A50CF900895CF92DF92FF920F931F93CF937D
S1130A60DF93EC01162F042FF22E0E943A048BEE32
S1130A7092E0612F402F0E94550990E09093EA0282
S1130A808093E902CE010E9440048091E902909192
S1130A90EA02009729F48091E9029091EA0235C0B4
S1130AA08C81882339F10F2EF9ECCF2EF3E0DF2E61
S1130AB0F02DC6016CEC71E00E943C11C601612F5F
S1130AC040E150E00E94AD10C60167E971E00E9468
S1130AD03C11C601602F40E150E00E94AD10C601F8
S1130AE067EB71E00E943C11C6016F2D4AE050E0B3
S1130AF00E94BF10FF2041F02F2D2150CE01612F05
S1130B00402F0E942A0501C081E0DF91CF911F91FF
S1130B100F91FF90DF90CF9008951F93CF93DF93B1
S1130B20EC01162F18822FEF3FEF3093EA02209347
S1130B30E90282E28093E30283E28093E40284E2A6
S1130B408093E50285E28093E60286E28093E702E1
S1130B5087E28093E802442341F04B83842F61E0D1
S1130B600E94CE0CCE010E944004112351F089EC66
S1130B7093E040E855E260E070E00E943E0E81E0C0
S1130B808C83CE010E943A04DF91CF911F91089586
S1130B90E62FF0E0EE51FD4F80810895CF93DF936F
S1130BA0EC010E94C805682FCE0145E225E00E94B1
S1130BB02A05DF91CF910895CF93DF93EC010E9432
S1130BC0C805682FCE0144E225E00E942A05DF9182
S1130BD0CF9108951F93CF93DF93EC0111E0CE01E1
S1130BE0612F0E94DC051F5F1730C9F7DF91CF9199
S1130BF01F910895CF93DF93EC010E94C805682FDD
S1130C00CE0141E225E00E942A05DF91CF910895AB
S1130C101F93CF93DF93EC0111E0CE01612F0E946B
S1130C20FA051F5F1730C9F7DF91CF911F9108951F
S1130C30CF93DF93EC010E94C805682FCE0140E2F8
S1130C4025E00E942A05DF91CF9108950F931F9309
S1130C50CF93DF93EC01142F0E94C805682FCE01B7
S1130C6042E2212F05E00E94B904DF91CF911F9148
S1130C700F9108951F93CF93DF93EC0111E0CE0100
S1130C80612F0E941806CE01612F40E00E942606C3
S1130C90CE01612F0E94CE051F5F173081F7DF91CF
S1130CA0CF911F910895CF93DF93EC010E94230409
S1130CB06AE070E080E090E00E943A0CCE010E946D
S1130CC03A068C81882331F089EC93E06AEF71E075
S1130CD00E943F11DF91CF910895EF92FF920F93FD
S1130CE0CF93DF937C010E94C805682FC70143E2BC
S1130CF021E005E00E944604813041F080E00FC00D
S1130D00CE010E94C006F701808302C0CBEED2E080
S1130D10CE010E94BD06882399F7F7018081DF91F7
S1130D20CF910F91FF90EF900895449A459AE9EB83
S1130D30F0E080818E7F808380818D7F808388E452
S1130D408093B80084E48093BC00089570930E03EC
S1130D5060930D030895662321F488E48093B8001A
S1130D6008958CE08093B8000895662319F0449A9E
S1130D70459A0895449845980895809111030895DB
S1130D802091110330910F03321B3093100322235F
S1130D9021F41092100380E0089521502093110350
S1130DA0830F911DFC0182810895ECEBF0E0108229
S1130DB084E480830895CF92DF92EF92FF920F93A1
S1130DC01F93CF93DF938C010E942C0C6B017C0149
S1130DD084E98093BC00CCEBD0E01AC00097E1F02A
S1130DE00E942C0CAB01BC014C195D096E097F09F2
S1130DF080910D0390910E03A0E0B0E048175907CD
S1130E006A077B0728F0C8010E94D50681E008C064
S1130E1080910D0390910E03288124FDDFCF80E0A3
S1130E20DF91CF911F910F91FF90EF90DF90CF90C2
S1130E300895CF92DF92EF92FF920F931F93CF9377
S1130E40DF938C01C62F0E942C0C6B017C01CC23F8
S1130E5021F084EC8093BC001EC084E88093BC0025
S1130E601AC00097F1F00E942C0CAB01BC014C1984
S1130E705D096E097F0980910D0390910E03A0E036
S1130E80B0E0481759076A077B0738F0C8010E9489
S1130E90D506C1E018C0CCEBD0E080910D03909151
S1130EA00E0328812223ECF68091B900887F8833D1
S1130EB039F4C091B900C87FC8010E94D50603C0A7
S1130EC0C091B900C87F8C2FDF91CF911F910F91F2
S1130ED0FF90EF90DF90CF900895CF92DF92EF9242
S1130EE0FF920F931F93CF93DF938C016093BB000A
S1130EF00E942C0C6B017C0184E88093BC00CCEB39
S1130F00D0E01AC00097E1F00E942C0CAB01BC01A8
S1130F104C195D096E097F0980910D0390910E03B0
S1130F20A0E0B0E0481759076A077B0728F0C8011A
S1130F300E94D506C1E01DC080910D0390910E035F
S1130F4028812223FCF68091B900887F883281F0C1
S1130F50E9EBF0E0C081C87F8081887F803321F491
S1130F60C8010E94DB0605C0C8010E94D50601C065
S1130F70C0E08C2FDF91CF911F910F91FF90EF90E4
S1130F80DF90CF900895CF92DF92EF92FF920F936C
S1130F901F93CF93DF938C016093BB000E942C0CB2
S1130FA06B017C0184E88093BC00CCEBD0E01AC0D8
S1130FB00097E1F00E942C0CAB01BC014C195D09B7
S1130FC06E097F0980910D0390910E03A0E0B0E0BB
S1130FD0481759076A077B0728F0C8010E94D506FD
S1130FE0C1E029C080910D0390910E032881222332
S1130FF0FCF68091B900887F8831D1F08091B900E6
S1131000887F8034B9F0E9EBF0E0C081C87F80814B
S1131010887F803229F08091B900887F883421F458
S1131020C8010E94DB0607C0C8010E94D50603C0A0
S1131030C0E001C0C0E08C2FDF91CF911F910F91D0
S1131040FF90EF90DF90CF900895CF92DF92EF92D0
S1131050FF920F931F93CF93DF938C010E942C0C6C
S11310606B017C0184EA8093BC00CCEBD0E01AC015
S11310700097E1F00E942C0CAB01BC014C195D09F6
S11310806E097F0980910D0390910E03A0E0B0E0FA
S1131090481759076A077B0728F0C8010E94D5063C
S11310A0C1E024C080910D0390910E032881222376
S11310B0FCF68091B900887F8830A9F08091B9004E
S11310C0887F803191F08091B900887F883339F42A
S11310D0C091B900C87FC8010E94D50607C0C0915D
S11310E0B900C87F03C0C0E001C0C0E08C2FDF910D
S11310F0CF911F910F91FF90EF90DF90CF900895C3
S1131100CF92DF92EF92FF920F931F93CF93DF93CF
S1131110EC01062FF42E122F1092110310921003DB
S1131120222309F411E0812F815089831882CE0192
S11311300E9425088883882309F06EC0000FCE0121
S1131140602F0E94C3078883882329F0813009F027
S113115063C082E061C0CE016F2D0E946D07888359
S1131160882329F0813009F057C083E055C0CE01AF
S11311700E9425088883882329F0813009F04CC017
S113118084E04AC0602F6F5FCE010E94C30788834A
S1131190882319F4112329F432C08130E9F585E05C
S11311A03BC0EE24FF246894E1F8EC0EFD1E00E041
S11311B00F2EFBEBCF2EDD24F02D8981801751F407
S11311C0CE0160E00E9419078883813011F18835CF
S11311D051F022C0CE0161E00E941907888381305A
S11311E0D1F08035C9F4F6018081F70181937F0144
S11311F00F5F0093110300930F030117F1F6CE0163
S11312000E94DB068883882339F0813029F487E043
S113121003C086E001C086E0DF91CF911F910F915A
S1131220FF90EF90DF90CF900895FF920F931F935C
S1131230CF93DF93EC01162F042FF22E18820E9415
S113124025088883882359F5612F660FCE010E94F3
S1131250C3078883882321F0813009F582E01FC009
S1131260CE01602F0E946D078883882321F081308E
S1131270B1F483E014C0CE016F2D0E946D07888302
S1131280882321F0813059F483E009C0CE010E9403
S1131290DB068883882319F0813009F487E0DF9125
S11312A0CF911F910F91FF9008950F931F93CF93A8
S11312B0DF93EC01162F042F18820E9425088883DF
S11312C0882301F5612F660FCE010E94C30788832E
S11312D0882321F08130B1F482E014C0CE01602F64
S11312E00E946D078883882321F0813059F483E0BC
S11312F009C0CE010E94DB068883882319F081305F
S113130009F487E0DF91CF911F910F910895282F61
S113131030E0C901880F991F280F391FC901880FB0
S1131320991F880F991FBC01FC01EE0FFF1F8E0F40
S11313309F1FFC01EC5EFC4F808186FD18C040E0DD
S113134050E0CA01860F971F01969C01220F331F9C
S1131350820F931FFC01EC5EFC4F808186FD09C067
S11313604F5F5F4F4B30510561F780E0089581E096
S1131370089581E008951F920F920FB60F921124E1
S11313802F933F934F935F936F937F938F939F9389
S1131390AF93BF93EF93FF938091130388232CF4AF
S11313A010928500109284002DC0209113033327DE
S11313B027FD30958091120390E02817390714F522
S11313C080911303992787FD9095FC01EE0FFF1F71
S11313D08E0F9F1FFC01EC5EFC4F808186FF12C0C4
S11313E080911303992787FD9095FC01EE0FFF1F51
S11313F08E0F9F1FFC01EC5EFC4F80818F7360E0B9
S11314000E940D0D809113038F5F8093130320912D
S11314101303332727FD30958091120390E028179A
S113142039070CF055C0809113038C300CF050C078
S1131430809184009091850020911303332727FD28
S11314403095F901EE0FFF1F2E0F3F1FF901EC5EDF
S1131450FC4F21813281820F931F909389008093E6
S1131460880080911303992787FD9095FC01EE0F66
S1131470FF1F8E0F9F1FFC01EC5EFC4F808186FFD7
S113148031C080911303992787FD9095FC01EE0FDD
S1131490FF1F8E0F9F1FFC01EC5EFC4F80818F733A
S11314A061E00E940D0D1EC080E49CE990938900C8
S11314B08093880009C080918400909185000496EF
S11314C090938900809388008FEF809313030AC060
S11314D0809184009091850004962CE980349207D1
S11314E018F3E9CFFF91EF91BF91AF919F918F9145
S11314F07F916F915F914F913F912F910F900FBE0C
S11315000F901F901895FC01809112038C3098F471
S113151080838F5F80931203808190E0FC01EE0F43
S1131520FF1F8E0F9F1FFC01EC5EFC4F88EB9BE0BE
S11315309283818308958FEF80830895CF92DF9201
S1131540EF92FF920F931F93CF938C01C62F7A01D2
S11315506901FC0180818C3008F054C0862F61E061
S11315600E94CE0CF8014081842F90E09C01220F50
S1131570331F820F931FFC01EC5EFC4FCF738081FD
S1131580807CC82BC08380E292E08E199F090AF404
S113159003969595879595958795F801818380E6BF
S11315A099E08C199D090AF403969595879595956C
S11315B08795F8018283842F6CE00E94DA14C82F87
S11315C00E948709882389F4CC2379F4109280003F
S11315D082E0809381001092850010928400B19A79
S11315E0EFE6F0E0808182608083F801808190E002
S11315F0FC01EE0FFF1FE80FF91FEC5EFC4F80812A
S113160080648083F8018081CF911F910F91FF90B6
S1131610EF90DF90CF90089540E252E020E639E069
S11316200E949E0A0895FC01808190E0FC01EE0F67
S1131630FF1FE80FF91FEC5EFC4F80818F7B8083D6
S11316400895CF93DF93FC01C081CC3008F04CC0E7
S11316508181992787FD909528E830E0281B390B74
S1131660220F331F220F331F6217730784F0828106
S1131670992787FD909528E532E0281B390B220F26
S1131680331F220F331F621773070CF49B01225080
S11316903040C901AA2797FDA095BA2F880F991F3A
S11316A0AA1FBB1F880F991FAA1FBB1FBC01CD0116
S11316B0660F771F881F991F660F771F881F991F52
S11316C028E030E040E050E00E9408154FB7F8945D
S11316D08C2F90E0EC01CC0FDD1FC80FD91FCC5E1E
S11316E0DC4F29833A834FBFDF91CF910895AF92A6
S11316F0BF92CF92DF92EF92FF920F931F93CF93FB
S1131700DF93EC0182E0603278070CF04FC077235E
S113171014F460E070E000D000D0EDB7FEB731966D
S1131720653B710514F064EB70E0CB01AC016627F6
S113173057FD6095762F8981992787FD909528E834
S113174030E0281B390B5901AA0CBB1CAA0CBB1C8A
S1131750CC24B7FCC094DC2C8A81992787FD909512
S113176028E532E0281B390BC901880F991F880F1F
S1131770991FAA2797FDA095BA2F80839183A283EE
S1131780B383CB01BA0120E030E0A9010F2EF4EBC2
S1131790EF2EF0E0FF2EF0E00F2FF0E01F2FF02DE2
S11317A00E9452110F900F900F900F90CE010E9443
S11317B0210BDF91CF911F910F91FF90EF90DF905C
S11317C0CF90BF90AF9008951F920F920FB60F92D3
S11317D011242F933F938F939F93AF93BF93809143
S11317E03C0390913D03A0913E03B0913F0330919F
S11317F040030196A11DB11D232F2D5F2D3720F02D
S11318002D570196A11DB11D2093400380933C03E5
S113181090933D03A0933E03B0933F03809138031C
S113182090913903A0913A03B0913B030196A11D15
S1131830B11D8093380390933903A0933A03B09376
S11318403B03BF91AF919F918F913F912F910F9047
S11318500FBE0F901F9018958FB7F89420913C03FA
S113186030913D0340913E0350913F038FBFB90136
S1131870CA0108959B01AC017FB7F89480913803A5
S113188090913903A0913A03B0913B0366B5A89BAC
S113189005C06F3F19F00196A11DB11D7FBFBA2F7E
S11318A0A92F982F8827860F911DA11DB11D62E0D5
S11318B0880F991FAA1FBB1F6A95D1F7BC012DC0C1
S11318C0FFB7F8948091380390913903A0913A03BB
S11318D0B0913B03E6B5A89B05C0EF3F19F0019614
S11318E0A11DB11DFFBFBA2FA92F982F88278E0FD6
S11318F0911DA11DB11DE2E0880F991FAA1FBB1FF6
S1131900EA95D1F7861B970B885E9340C8F2215065
S113191030404040504068517C4F2115310541050D
S1131920510571F60895789484B5826084BD84B5B8
S1131930816084BD85B5826085BD85B5816085BDC6
S1131940EEE6F0E0808181608083E1E8F0E01082DF
S1131950808182608083808181608083E0E8F0E020
S1131960808181608083E1EBF0E08081846080830A
S1131970E0EBF0E0808181608083EAE7F0E0808141
S113198084608083808182608083808181608083A1
S11319908081806880831092C1000895CF93DF9383
S11319A0482F50E0CA0186569F4FFC0134914A5794
S11319B05F4FFA018491882369F190E0880F991FA1
S11319C0FC01E859FF4FA591B491FC01EE58FF4F7B
S11319D0C591D491662351F42FB7F8948C91932F29
S11319E0909589238C93888189230BC0623061F49C
S11319F02FB7F8948C91932F909589238C93888199
S1131A00832B88832FBF06C09FB7F8948C91832BB8
S1131A108C939FBFDF91CF910895482F50E0CA0166
S1131A2082559F4FFC012491CA0186569F4FFC01A9
S1131A3094914A575F4FFA013491332309F440C01B
S1131A40222351F1233071F0243028F42130A1F005
S1131A50223011F514C02630B1F02730C1F0243003
S1131A60D9F404C0809180008F7703C080918000F6
S1131A708F7D8093800010C084B58F7702C084B5B9
S1131A808F7D84BD09C08091B0008F7703C08091A1
S1131A90B0008F7D8093B000E32FF0E0EE0FFF1FC6
S1131AA0EE58FF4FA591B4912FB7F894662321F413
S1131AB08C919095892302C08C91892B8C932FBF94
S1131AC00895682F70E0CB0182559F4FFC0124914B
S1131AD0CB0186569F4FFC0144916A577F4FFB010F
S1131AE09491992319F420E030E03CC0222351F171
S1131AF0233071F0243028F42130A1F0223011F584
S1131B0014C02630B1F02730C1F02430D9F404C019
S1131B10809180008F7703C0809180008F7D8093B7
S1131B20800010C084B58F7702C084B58F7D84BDDA
S1131B3009C08091B0008F7703C08091B0008F7D81
S1131B408093B000892F90E0880F991F84589F4F8D
S1131B50FC01A591B4918C9120E030E0842311F034
S1131B6021E030E0C901089508951F920F920FB645
S1131B700F9211242F933F934F938F939F93EF933F
S1131B80FF938091C00082FD1DC04091C60020914A
S1131B908103309182032F5F3F4F2F733070809108
S1131BA08303909184032817390771F0E09181032E
S1131BB0F0918203EF5BFC4F4083309382032093C8
S1131BC0810302C08091C600FF91EF919F918F9194
S1131BD04F913F912F910F900FBE0F901F9018952A
S1131BE0E091D503F091D603E05CFF4F8191919190
S1131BF020813181821B930B8F739070892B11F09C
S1131C000E94B40D08951F920F920FB60F921124E3
S1131C102F933F938F939F93EF93FF932091C5034B
S1131C203091C6038091C7039091C80328173907E0
S1131C3031F48091C1008F7D8093C10014C0E09184
S1131C40C703F091C803EB57FC4F20818091C70371
S1131C509091C80301968F7390709093C8038093FA
S1131C60C7032093C600FF91EF919F918F913F91FD
S1131C702F910F900FBE0F901F901895AF92BF92A7
S1131C80DF92EF92FF920F931F93CF93DF93EC01B8
S1131C907A018B01DD24403081EE580780E068072B
S1131CA080E0780711F0DD24D39491E0A92EB12CC3
S1131CB0EC89FD89DD2069F0C50108A002C0880F08
S1131CC0991F0A94E2F7808360E079E08DE390E065
S1131CD005C0108260E874E88EE190E0A8019701E5
S1131CE00E94E6142150304040405040569547959C
S1131CF03795279580E12030380720F0DD2011F05A
S1131D00DD24D6CFE889F9893083EA89FB892083E9
S1131D1019A2EE89FF89408121E030E0C9010C8CD1
S1131D2002C0880F991F0A94E2F7482B4083EE897A
S1131D30FF894081C9010D8C02C0880F991F0A9444
S1131D40E2F7482B4083EE89FF894081C9010E8C5C
S1131D5002C0880F991F0A94E2F7482B4083EE894A
S1131D60FF8980810F8C02C0220F331F0A94E2F78F
S1131D70209528232083DF91CF911F910F91FF900D
S1131D80EF90DF90BF90AF900895DC011C96ED9129
S1131D90FC911D97E05CFF4F2191319180819181ED
S1131DA0281B390B2F733070C9010895DC011C9670
S1131DB0ED91FC911D97E05CFF4F20813181E0544F
S1131DC0F040DF01AE5BBF4F8D919C9111972817B6
S1131DD0390719F42FEF3FEF07C08D919C91E80F5D
S1131DE0F91F8081282F30E0C9010895DC011C9679
S1131DF0ED91FC911D97E05CFF4F20813181E0540F
S1131E00F040DF01AE5BBF4F8D919C911197281775
S1131E10390719F42FEF3FEF10C08D919C91119762
S1131E20E80FF91F20818D919C91119701968F7372
S1131E30907011969C938E9330E0C9010895DC0153
S1131E4091968C919197882339F05496ED91FC9159
S1131E505597808186FFF9CF91961C920895CF9370
S1131E60DF93EC01EE85FF85E05CFF4F208131813B
S1131E70E054F0402F5F3F4F2F733070DF01AE5BB3
S1131E80BF4F8D919C91119728173907D1F3E05CCE
S1131E90FF4F80819181E054F040E80FF91F608387
S1131EA0EE85FF85E05CFF4F31832083EE89FF8957
S1131EB0208181E090E00F8C02C0880F991F0A9462
S1131EC0E2F7282B208381E089A3EC89FD898081B6
S1131ED08064808381E090E0DF91CF910895109237
S1131EE0CC031092CB0388EE93E0A0E0B0E08093A3
S1131EF0CD039093CE03A093CF03B093D0038BEC88
S1131F0092E09093CA038093C90381E493E0909391
S1131F10D6038093D50385E893E09093D803809308
S1131F20D70385EC90E09093DA038093D90384EC93
S1131F3090E09093DC038093DB0380EC90E090933B
S1131F40DE038093DD0381EC90E09093E0038093C3
S1131F50DF0382EC90E09093E2038093E10386EC4C
S1131F6090E09093E4038093E30384E08093E5039B
S1131F7083E08093E60387E08093E70385E0809322
S1131F80E80381E08093E9030895CF93DF930E94EF
S1131F90930C0E947C03C0EFDDE00E942203209793
S1131FA0E1F30E94F00DF9CFCF92DF92EF92FF920E
S1131FB00F931F93CF93DF937C016B018A01C0E0E1
S1131FC0D0E00FC0D6016D916D01D701ED91FC9168
S1131FD00190F081E02DC7010995C80FD91F015068
S1131FE010400115110571F7CE01DF91CF911F91BA
S1131FF00F91FF90EF90DF90CF900895EF92FF92B2
S11320000F931F938C01DC01ED91FC910190F08101
S1132010E02D6DE009957C01D801ED91FC910190D2
S1132020F081E02DC8016AE009959C012E0D3F1D49
S1132030C9011F910F91FF90EF900895CF93DF9303
S1132040EC016115710519F420E030E00FC0DB01EB
S11320500D900020E9F71197A61BB70BE881F981D1
S11320600280F381E02DAD0109959C01C901DF9146
S1132070CF9108954F925F927F928F929F92AF92E9
S1132080BF92CF92DF92EF92FF920F931F93DF9351
S1132090CF93CDB7DEB7A1970FB6F894DEBF0FBECE
S11320A0CDBF2C01742ECB01223008F42AE019A2F2
S11320B031E2C32ED12CCC0EDD1E822E9924AA240B
S11320C0BB24672D752FA50194010E94E6147901A4
S11320D08A01C801B701A50194010E94BB14472DD0
S11320E0461B0894C108D1084A3014F4405D01C06D
S11320F0495CF6014083E114F1040105110521F066
S11321007E2C5F2DC801DDCFC201B6010E941E10D6
S1132110A1960FB6F894DEBF0FBECDBFCF91DF916D
S11321201F910F91FF90EF90DF90CF90BF90AF90F1
S11321309F908F907F905F904F900895DC012115C0
S1132140310541F4ED91FC910190F081E02D642F73
S1132150099508950E943A100895EF92FF920F9303
S11321601F939A01E62EFF2400E010E0B801A701B6
S11321700E949E101F910F91FF90EF900895CF92AF
S1132180DF92EF92FF920F931F936C01E62E9A0158
S1132190FF2400E010E0B801A7010E949E108C010A
S11321A0C6010E94FE0F080F191FC8011F910F914D
S11321B0FF90EF90DF90CF900895CF92DF92EF924F
S11321C0FF920F931F93CF93DF93EC016A017B017E
S11321D02115310541F4E881F9810190F081E02D68
S11321E0642F09951FC02A303105D1F477FF17C039
S11321F0E881F9810190F081E02D6DE209958C016F
S113220044275527BA014C195D096E097F09CE018F
S11322102AE00E943A109801280F391F04C02AE0CE
S11322200E943A109C01C901DF91CF911F910F9137
S1132230FF90EF90DF90CF900895CF92DF92EF92CE
S1132240FF920F931F936C017B019A010027F7FC07
S11322500095102FB801A7010E94DD108C01C60162
S11322600E94FE0F080F191FC8011F910F91FF90C4
S1132270EF90DF90CF9008950E941E100895EF9282
S1132280FF920F931F937C010E941E108C01C701C3
S11322900E94FE0F080F191FC8011F910F91FF9094
S11322A0EF9008952F923F924F925F926F927F9298
S11322B08F929F92AF92BF92CF92DF92EF92FF9252
S11322C00F931F93DF93CF93CDB7DEB73B014C0140
S11322D019012A016D897E898F89988D6A197B0974
S11322E08C099D09621A730A840A950AA401930150
S11322F00E94BB14E218F30804091509A801970108
S11323000E9408152A0D3B1D4C1D5D1DB901CA0113
S1132310CF91DF911F910F91FF90EF90DF90CF90BD
S1132320BF90AF909F908F907F906F905F904F90F1
S11323303F902F900895EF92FF920F931F93CF93A6
S1132340DF93FC01DB018617970739F1248135817E
S113235014968D919C9115972817390701F5232B15
S1132360E1F0E080F180CD91DC9113C0992787FDE5
S113237090950E9429158C018881992787FD909555
S11323800E9429150817190751F40894E11CF11C3F
S11323902196F7018081882349F781E001C080E01C
S11323A0DF91CF911F910F91FF90EF9008950F93BC
S11323B01F93CF93DF93EC018B016F5F7F4F888175
S11323C099810E94E113009711F480E005C099837C
S11323D088831B830A8381E0DF91CF911F910F9142
S11323E00895CF93DF93EC0188819981892B29F09B
S11323F08A819B818617970760F4CE010E94D711CA
S1132400882341F08C819D81892B19F4E881F9811D
S1132410108281E0DF91CF910895EF92FF920F93A4
S11324201F93CF93DF93EC017B016C817D81E114D9
S1132430F104C1F04115510599F08A01060F171FE7
S1132440B8010E94F111882369F0888199812C8157
S11324503D81820F931FB7010E943A151D830C839F
S113246081E001C080E0DF91CF911F910F91FF9037
S1132470EF900895DF93CF9300D0CDB7DEB7698393
S11324801A82BE016F5F7F4F41E050E00E940D123F
S11324900F900F90CF91DF910895CF93DF93EC01CC
S11324A088819981009711F00E944913198218823A
S11324B01D821C821B821A82DF91CF910895EF92B4
S11324C0FF920F931F93CF93DF93EC017B018A015B
S11324D0BA010E94F111882321F4CE010E944D1209
S11324E007C01D830C8388819981B7010E943A1526
S11324F0CE01DF91CF911F910F91FF90EF9008953E
S1132500CF93DF93EC01198218821B821A821D82F9
S11325101C821E826115710551F0DB010D900020B3
S1132520E9F71197A61BB70BAD010E945F12DF916B
S1132530CF910895CF93DF93EC01FB0186179707A2
S113254061F0608171816115710529F044815581C3
S11325500E945F1202C00E944D12CE01DF91CF9102
S11325600895FC0111821082138212821582148252
S113257016820E949A120895FC01808191810E9422
S1132580491308950F931F93CF93DF93BC018230B7
S1132590910510F462E070E0E091EB03F091EC033C
S11325A0A0E0B0E040E050E024C080819181861733
S11325B09707D0F08617970771F48281938110975B
S11325C029F013969C938E9312972CC09093EC034E
S11325D08093EB0327C04115510519F08417950723
S11325E018F4EF018D01AC01DF01828193819C011C
S11325F0F9013097D1F641155105F9F0CA01861B4E
S1132600970B8430910580F48A819B810115110513
S113261021F0F8019383828304C09093EC038093A8
S1132620EB03FE0132962FC0FE01E80FF91F619300
S1132630719302979983888326C08DB79EB7885774
S113264090402091C3023091C40228173907C8F47E
S1132650AC01421B530B4617570798F0CB01029667
S11326604817590770F0820F931F9093C402809308
S1132670C3029093C6028093C502F90161937193DA
S113268002C0E0E0F0E0CF01DF91CF911F910F9104
S11326900895CF93DF939C01009709F48FC0EC0158
S11326A022971B821A826091EB037091EC036115EF
S11326B0710581F488819981820F931F2091C3024F
S11326C03091C4022817390739F5D093C402C09356
S11326D0C30274C0DB0140E050E0AC17BD0708F151
S11326E0BB83AA83FE0121913191E20FF31FAE1740
S11326F0BF0779F48D919C911197280F391F2E5F94
S11327003F4F3983288312968D919C9113979B8315
S11327108A834115510571F4D093EC03C093EB0304
S11327204DC012968D919C911397AD01009711F0B5
S1132730DC01D3CFDA011396DC93CE931297FA011E
S113274021913191E20FF31FCE17DF0769F48881DD
S11327509981280F391F2E5F3F4FFA01318320835F
S11327608A819B8193838283E0E0F0E0DB0112960F
S11327708D919C911397009719F0BC01FD01F6CF40
S1132780AB014E5F5F4FDB018D919C91840F951FD0
S11327902091C3023091C4022817390779F4309785
S11327A029F41092EC031092EB0302C013821282FC
S11327B0425050405093C4024093C302DF91CF91E2
S11327C008956F927F928F929F92AF92BF92CF9211
S11327D0DF92EF92FF920F931F93CF93DF938C01BD
S11327E0009729F4CB010E94C2128C01B4C08EEF71
S11327F0E82E8FEFF82EE00EF11E5801A60EB71E3C
S1132800AE14BF0408F4A5C0D7014D915C91119793
S113281046175707B8F04530510508F49CC0CA0163
S113282004978617970708F496C042505040461BF9
S1132830570BF501419351936D937C93CF010E9403
S1132840491389C04B01841A950A3801640E751E18
S1132850A091EB03B091EC03CC24DD24E0E0F0E0A4
S113286047C0A615B705A9F5CD91DC911197CE0106
S113287002968815990568F1CE018819990902967E
S113288012962C91129713963C91059758F0F501E6
S113289022833383C819D909D183C083D7016D93A7
S11328A07C9309C04E5F5F4F4C0F5D1FF70151834E
S11328B04083C901FC01C114D10431F0D60113963F
S11328C0FC93EE93129747C0F093EC03E093EB0371
S11328D042C08D919C911197E817F90708F4FC0107
S11328E06D0112968C91129713969C919C01D901BB
S11328F0109709F0B6CF8091C3029091C402861557
S11329009705B1F4E617F70798F48DB79EB7885783
S11329109040A816B906E8F4B092C402A092C3028B
S1132920B092C602A092C502F7017183608313C0FE
S1132930CB010E94C212EC01009759F0D7014D91CE
S11329405C91B8010E943115C8010E9449138E019F
S113295002C000E010E0C801DF91CF911F910F91F8
S1132960FF90EF90DF90CF90BF90AF909F908F90AB
S11329707F906F900895629FD001739FF001829FB2
S1132980E00DF11D649FE00DF11D929FF00D839FFA
S1132990F00D749FF00D659FF00D9927729FB00D97
S11329A0E11DF91F639FB00DE11DF91FBD01CF01AA
S11329B011240895991B79E004C0991F961708F013
S11329C0961B881F7A95C9F780950895A1E21A2E5F
S11329D0AA1BBB1BFD010DC0AA1FBB1FEE1FFF1FBF
S11329E0A217B307E407F50720F0A21BB30BE40B0F
S11329F0F50B661F771F881F991F1A9469F7609556
S1132A007095809590959B01AC01BD01CF0108950F
S1132A1097FB092E05260ED057FD04D0D7DF0AD028
S1132A20001C38F450954095309521953F4F4F4FF9
S1132A305F4F0895F6F790958095709561957F4F57
S1132A408F4F9F4F0895EE0FFF1F0590F491E02DD7
S1132A5009949111089581548A5108F4805E855A2D
S1132A600895FB01DC0102C001900D9241505040D9
S1132A70D8F70895FB01DC0101900D920020E1F7E5
S1092A800895F894FFCF55
S1132A864552524F523A20004E4F4E453F004C4F4E
S1132A965745525F4641494C0052414953455F46AA
S1132AA641494C00554E4B4E4F574E0050415353DF
S1132AB6004641494C0002030405014900603030D8
S1132AC6303300433000574F524B494E4700433191
S1132AD600474F004553544F5000524553554C54EC
S1132AE60053544154450000524459004661696CF0
S1132AF6656420746F206765742064617461206660
S1132B06726F6D2049324320536C6176652061648F
S1132B1664723A2030780020636F6D6D616E643A9A
S1132B26203078002062797465732072657175654A
S1132B36737465643A200020726574726965732043
S1132B4672656D61696E696E673A20004661696CEB
S1132B56656420746F2073656E6420493243204394
S1132B666F6D6D616E6420616464723A2030780022
S1132B7620646174613A20307800437562656C653F
S1132B86742D41726475696E6F20496E7465726640
S1132B96616365204C6F616465642E202052656113
S1132BA664792E005363616E6E696E6720666F7278
S1132BB620646576696365732E2E2E706C65617369
S1132BC665207761697400546865726520697320AD
S1132BD6612070726F626C656D2077697468207409
S1132BE66865206275732C20636F756C64206E6F44
S1132BF67420636F6D706C657465207363616E0019
S1132C06466F756E64206465766963652061742019
S1132C1661646472657373202D2000203078004E41
S1132C266F206465766963657320666F756E6400EC
S1132C366E616E00696E66006F7666002E00000196
S1132C46000000ED036400000000002F0FD40FC540
S10B2C560EF60ED60E1F0F004E
S9030000FC
