:100000000C9463000C948B000C948B000C948B006C
:100010000C948B000C948B000C948B000C948B0034
:100020000C948B000C948B000C948B000C948B0024
:100030000C948B000C948B000C948B000C948B0014
:100040000C94060A0C948B000C94590C0C94A70C7D
:100050000C948B000C948B000C948B000C948B00F4
:100060000C948B000C948B000000000024002700EF
:100070002A0000000000250028002B0000000000DE
:1000800023002600290004040404040404040202DA
:100090000202020203030303030301020408102007
:1000A0004080010204081020010204081020000012
:1000B0000007000201000003040600000000000029
:1000C0000000A904130E11241FBECFEFD8E0DEBF3D
:1000D000CDBF13E0A0E0B1E0E6EDF0E202C0059094
:1000E0000D92AC39B107D9F714E0ACE9B3E001C027
:1000F0001D92A338B107E1F710E0C6ECD0E004C0D0
:100100002297FE010E946510C23CD107C9F70E94E8
:10011000690E0C9469100C940000CF93DF9381E674
:1001200094E040E855E260E070E00E94E20C8EE06E
:1001300060E00E94720B82E062E00E94720B88E035
:1001400060E00E94720B89E061E00E94720B8AE01D
:1001500061E00E94720B83E061E00E94720BCCE9C7
:10016000D3E0CE010E94D206CE010E947706DF9135
:10017000CF9108952F923F924F925F926F927F920C
:100180008F929F92AF92BF92CF92DF92EF92FF92A7
:100190000F931F93CF93DF93CDB7DEB72A970FB698
:1001A000F894DEBF0FBECDBF8EE793E098878F83B4
:1001B0000F2EF4E84F2EF3E05F2EF02DFE01319666
:1001C000FA87E987882499240F2EF1E6EF2EF4E0D0
:1001D000FF2EF02D0F2EF5E26F2EF1E07F2EF02D89
:1001E0000F2EF7E22F2EF1E03F2EF02DC70160E039
:1001F00071E00E94E50FC701B4014AE050E00E949F
:10020000D20FC7016DE071E00E94E50F8201F2019B
:10021000619171912F01C7014AE050E00E94D20F15
:10022000C70167E171E00E94E50FEF81F8856191F8
:100230007191F887EF83C7014AE050E00E94D20F26
:10024000C701B3010E94E50F8CE993E061E0F8017A
:1002500040810E94A50664EF71E080E090E00E947A
:100260005C0A0F2EF3E0CF2EDD24F02DAA24BB2450
:100270008EE00E94F00A282F392F332314F42D5FCB
:100280003F4F89011595079515950795C701B10150
:100290000E94E50FC701B8014AE050E00E94D20F6A
:1002A000C701B3010E94E50FA00EB11E64E670E025
:1002B00080E090E00E945C0A0894C108D108C11453
:1002C000D104B1F6C50163E070E00E941A10E9851F
:1002D000FA8561937193FA87E9878114910429F56E
:1002E000603B710514F181E694E060E371E00E94E7
:1002F000E50F14C089E061E00E94B10B64E670E094
:1003000080E090E00E945C0A89E060E00E94B10B0E
:1003100064E670E080E090E00E945C0A88E00E9461
:10032000050C009739F380E0CAC00894811C911C29
:10033000F3E08F16910409F059CF8CE993E061E066
:1003400040E00E94A506EB80FC80A980BA8087016E
:100350000A191B091AF4109501951F4F0F2EF1E68B
:10036000CF2EF4E0DF2EF02DC6016CE371E00E9489
:10037000E50FC601B7014AE050E00E94D20FC60166
:1003800063E471E00E94E50FC601B5014AE050E068
:100390000E94D20FC6016AE471E00E94E50FC60117
:1003A000B8014AE050E00E94510FC60164E571E0D7
:1003B0000E94E50F8D809E80C601B4014AE050E0A6
:1003C0000E94D20F0F2EF5E26F2EF1E07F2EF02D5E
:1003D000C601B3010E94E50FC60167E671E00E9405
:1003E000E50FC60160E070E04AE050E00E94510F66
:1003F000C601B3010E94E50F0C33110538F4C601A4
:100400006FE671E00E94E50F80E059C0E818F90836
:1004100085E1E816F10474F184010A191B0905311C
:10042000110544F10F2EF1E6CF2EF4E0DF2EF02D72
:10043000C60168E871E00E94E50FC60162E971E05B
:100440000E94E50FC601B7014AE050E00E94D20FBA
:10045000C6016DE971E00E94E50FC601B8014AE0EE
:1004600050E00E94D20FC60165E271E00E94E50FE4
:1004700081E025C001E614E0C8016AEA71E00E944B
:10048000E50FC80162E971E00E94E50FC801B701FC
:100490004AE050E00E94D20FC8016DE971E00E946D
:1004A000E50FB4016A197B09C8014AE050E00E94D7
:1004B000D20FC80165E271E00E94E50F80E02A9644
:1004C0000FB6F894DEBF0FBECDBFDF91CF911F9165
:1004D0000F91FF90EF90DF90CF90BF90AF909F90E3
:1004E0008F907F906F905F904F903F902F900895E6
:1004F0002F923F924F925F926F927F928F929F9234
:10050000AF92BF92CF92DF92EF92FF920F931F9321
:10051000CF93DF93CDB7DEB72A970FB6F894DEBF3F
:100520000FBECDBF8EE00E94F00A813A910514F112
:1005300081E694E060E371E00E94E50F14C089E079
:1005400061E00E94B10B64E670E080E090E00E9400
:100550005C0A89E060E00E94B10B64E670E080E034
:1005600090E00E945C0A88E00E94050C009739F335
:1005700080E05AC182E793E098878F830F2EF8E7D7
:100580004F2EF3E05F2EF02DFE013196FA87E987BA
:10059000662477240F2EF1E6EF2EF4E0FF2EF02DE7
:1005A0000F2EF5E28F2EF1E09F2EF02D0F2EFCE99D
:1005B0002F2EF3E03F2EF02DC70160E071E00E9486
:1005C000E50FC701B3014AE050E00E94D20FC70116
:1005D0006DE071E00E94E50F8201F201619171917D
:1005E0002F01C7014AE050E00E94D20FC70164EB1F
:1005F00071E00E94E50FEF81F88561917191F887B4
:10060000EF83C7014AE050E00E94D20FC701B40156
:100610000E94E50FF8016081718183E00E94120B56
:1006200064EF71E080E090E00E945C0A0F2EF3E03E
:10063000CF2EDD24F02DAA24BB24C10161E00E944D
:10064000EC06082F10E0C70167E271E00E94E50F99
:10065000C701B8014AE050E00E94D20FC701B401BF
:100660000E94E50FA00EB11E64E670E080E090E00D
:100670000E945C0A0894C108D108C114D104E9F6AB
:10068000C50163E070E00E941A10E985FA85619364
:100690007193FA87E9870894611C711CF3E06F1667
:1006A000710409F089CF83E060E070E00E94120BD2
:1006B000EB80FC80A980BA8087010A191B091AF413
:1006C000109501951F4F0F2EF1E6CF2EF4E0DF2E8F
:1006D000F02DC6016CE371E00E94E50FC601B70181
:1006E0004AE050E00E94D20FC60163E471E00E942C
:1006F000E50FC601B5014AE050E00E94D20FC601E5
:100700006AE471E00E94E50FC601B8014AE050E0DA
:100710000E94510FC60164E571E00E94E50F8D80D3
:100720009E80C601B4014AE050E00E94D20F0F2E15
:10073000F5E26F2EF1E07F2EF02DC601B3010E948D
:10074000E50FC60167E671E00E94E50FC60160E0B3
:1007500070E04AE050E00E94510FC601B3010E94D0
:10076000E50F0B34110538F4C60162EC71E00E940C
:10077000E50F80E059C0E818F90885E1E816F104B2
:1007800074F184010A191B090531110544F10F2E7A
:10079000F1E6CF2EF4E0DF2EF02DC60168E871E01F
:1007A0000E94E50FC60162E971E00E94E50FC601F3
:1007B000B7014AE050E00E94D20FC6016DE971E036
:1007C0000E94E50FC601B8014AE050E00E94D20F36
:1007D000C60165E271E00E94E50F81E025C001E6F7
:1007E00014E0C8016AEA71E00E94E50FC80162E9FD
:1007F00071E00E94E50FC801B7014AE050E00E9495
:10080000D20FC8016DE971E00E94E50FB4016A19C9
:100810007B09C8014AE050E00E94D20FC80165E29E
:1008200071E00E94E50F80E02A960FB6F894DEBFD3
:100830000FBECDBFDF91CF911F910F91FF90EF9031
:10084000DF90CF90BF90AF909F908F907F906F90F0
:100850005F904F903F902F900895CF93DF938AE061
:1008600060E00E94B10B89E060E00E94B10B88E07B
:100870000E94050C0097D9F782E00E94050C0097B2
:1008800089F181E694E06BED71E00E94E50F8CE95F
:1008900093E00E9495060E94BA00882349F08AE0FE
:1008A00061E00E94B10B89E060E00E94B10B08C0DA
:1008B0008AE060E00E94B10B89E061E00E94B10B28
:1008C00088E00E94050C0097D9F38AE060E00E945E
:1008D000B10B89E060E00E94B10B8CE993E00E94CB
:1008E000770634C081E694E06DEF71E00E94E50F79
:1008F0008CE993E00E9495060E947802882349F0D3
:100900008AE061E00E94B10B89E060E00E94B10BD7
:1009100008C08AE060E00E94B10B89E061E00E94BB
:10092000B10B88E00E94050C0097D9F38AE060E0E3
:100930000E94B10B89E060E00E94B10BCCE9D3E0EA
:10094000CE010E947706CE010E947706DF91CF91FB
:1009500008958CE993E060E04DE00E941A06089546
:10096000CF93DF93C9EAD3E0CE010E941407CE01F2
:1009700060E00E943407CE0161E00E942A07CE01A8
:1009800068EE73E00E942507DF91CF910895FC0186
:10099000838161E00E94B10B0895FC01838160E0D6
:1009A0000E94B10B0895CF92DF92EF92FF920F93C6
:1009B0001F93CF93DF93EC01162FD42EC22E0E94EB
:1009C000C7040F2EF9EAEF2EF3E0FF2EF02DC7013A
:1009D000612F4D2D2C2D0E94FF0890E09093A803CD
:1009E0008093A703CE010E94CD04C7010E943C075B
:1009F000813009F43FC08C81882391F10F2EF1E6FC
:100A0000EF2EF4E0FF2EF02DC7016FE172E00E949F
:100A1000E50FC701612F40E150E00E94620FC7015E
:100A20006AE472E00E94E50FC7016D2D40E150E0DD
:100A30000E94620FC70167E572E00E94E50FC701DF
:100A40006C2D4AE050E00E94620FC7016AE672E036
:100A50000E94E50FC701602F4AE050E00E94740F2A
:100A6000002351F00150CE01612F4D2D2C2D0E94FD
:100A7000D30403C081E001C080E0DF91CF911F91DA
:100A80000F91FF90EF90DF90CF900895CF92DF927B
:100A9000EF92FF920F931F93CF93DF93EC01162FEA
:100AA000F42EE22E0E94C70489EA93E0612F4F2DB5
:100AB0002E2D0E94940990E09093A8038093A703A1
:100AC000CE010E94CD048091A7039091A8030097C6
:100AD00029F48091A7039091A80340C08C818823BA
:100AE00091F10F2EF1E6CF2EF4E0DF2EF02DC601AE
:100AF0006FE772E00E94E50FC601612F40E150E010
:100B00000E94620FC6016AE472E00E94E50FC6010E
:100B10006F2D40E150E00E94620FC60163EA72E06F
:100B20000E94E50FC6016E2D40E150E00E94620F69
:100B3000C6016AE672E00E94E50FC601602F4AE036
:100B400050E00E94740F002341F00150CE01612F4C
:100B50004F2D2E2D0E94460501C081E0DF91CF91DF
:100B60001F910F91FF90EF90DF90CF900895CF925B
:100B7000DF92FF920F931F93CF93DF93EC01162F19
:100B8000042FF22E0E94C70489EA93E0612F402FC0
:100B90000E94D40990E09093A8038093A703CE010C
:100BA0000E94CD048091A7039091A803009729F497
:100BB0008091A7039091A80335C08C81882339F1D7
:100BC0000F2EF1E6CF2EF4E0DF2EF02DC6016FE7F9
:100BD00072E00E94E50FC601612F40E150E00E94E3
:100BE000620FC6016AE472E00E94E50FC601602F41
:100BF00040E150E00E94620FC6016AE672E00E9486
:100C0000E50FC6016F2D4AE050E00E94740FFF20EF
:100C100041F02F2D2150CE01612F402F0E94B705AA
:100C200001C081E0DF91CF911F910F91FF90DF9084
:100C3000CF9008951F93CF93DF93EC01162F188266
:100C40002FEF3FEF3093A8032093A70382E2809316
:100C5000A10383E28093A20384E28093A30385E24D
:100C60008093A40386E28093A50387E28093A60382
:100C7000442341F04B83842F61E00E94720BCE012C
:100C80000E94CD04112351F081E694E040E855E242
:100C900060E070E00E94E20C81E08C83CE010E9453
:100CA000C704DF91CF911F910895E62FF0E0E05641
:100CB000FC4F80810895CF93DF93EC010E9455068D
:100CC000682FCE0145E225E00E94B705DF91CF9164
:100CD0000895CF93DF93EC010E945506682FCE0153
:100CE00041E225E00E94B705DF91CF9108951F935F
:100CF000CF93DF93EC0111E0CE01612F0E946906D2
:100D00001F5F1730C9F7DF91CF911F910895CF93DF
:100D1000DF93EC010E945506682FCE0140E225E0EA
:100D20000E94B705DF91CF9108951F93CF93DF9372
:100D3000EC0111E0CE01612F0E9487061F5F173082
:100D4000C9F7DF91CF911F9108950F931F93CF9310
:100D5000DF93EC01142F0E945506682FCE0142E26A
:100D6000212F05E00E944605DF91CF911F910F9141
:100D700008951F93CF93DF93EC0111E0CE01612F13
:100D80000E948706CE01612F40E00E94A506CE0199
:100D9000612F0E945B061F5F173081F7DF91CF91B3
:100DA0001F910895CF93DF93EC010E94B0046AE095
:100DB00070E080E090E00E945C0ACE010E94B906DB
:100DC0008C81882331F081E694E06DEA72E00E9424
:100DD000E80FDF91CF910895EF92FF920F93CF9399
:100DE000DF937C010E945506682FC70143E221E092
:100DF00005E00E94D304813041F080E00FC0CE01B5
:100E00000E943F07F701808302C0C9EAD3E0CE0108
:100E10000E943C07882399F7F7018081DF91CF91E9
:100E20000F91FF90EF900895449A459AE9EBF0E016
:100E300080818E7F808380818D7F808388E4809312
:100E4000B80084E48093BC0008957093CC03609351
:100E5000CB030895662321F488E48093B8000895B5
:100E60008CE08093B8000895662319F0449A459A5F
:100E700008954498459808958091CF03089520914E
:100E8000CF033091CD03321B3093CE03222321F4C4
:100E90001092CE0380E0089521502093CF03830F5A
:100EA000911DFC0182810895ECEBF0E0108284E456
:100EB00080830895CF92DF92EF92FF920F931F935A
:100EC000CF93DF938C010E944E0A6B017C0184E971
:100ED0008093BC00CCEBD0E01AC00097E1F00E94F8
:100EE0004E0AAB01BC014C195D096E097F09809166
:100EF000CB039091CC03A0E0B0E0481759076A07F4
:100F00007B0728F0C8010E94540781E008C0809147
:100F1000CB039091CC03288124FDDFCF80E0DF91CB
:100F2000CF911F910F91FF90EF90DF90CF90089598
:100F3000CF92DF92EF92FF920F931F93CF93DF93A5
:100F40008C01C62F0E944E0A6B017C01CC2321F03C
:100F500084EC8093BC001EC084E88093BC001AC05F
:100F60000097F1F00E944E0AAB01BC014C195D09DB
:100F70006E097F098091CB039091CC03A0E0B0E093
:100F8000481759076A077B0738F0C8010E945407C1
:100F9000C1E018C0CCEBD0E08091CB039091CC03A2
:100FA00028812223ECF68091B900887F883339F4B8
:100FB000C091B900C87FC8010E94540703C0C09106
:100FC000B900C87F8C2FDF91CF911F910F91FF90B7
:100FD000EF90DF90CF900895CF92DF92EF92FF9243
:100FE0000F931F93CF93DF938C016093BB000E94FC
:100FF0004E0A6B017C0184E88093BC00CCEBD0E00E
:101000001AC00097E1F00E944E0AAB01BC014C19D6
:101010005D096E097F098091CB039091CC03A0E01C
:10102000B0E0481759076A077B0728F0C8010E94FB
:101030005407C1E01DC08091CB039091CC0328815F
:101040002223FCF68091B900887F883281F0E9EB99
:10105000F0E0C081C87F8081887F803321F4C8019F
:101060000E945A0705C0C8010E94540701C0C0E091
:101070008C2FDF91CF911F910F91FF90EF90DF9018
:10108000CF900895CF92DF92EF92FF920F931F932C
:10109000CF93DF938C016093BB000E944E0A6B01DB
:1010A0007C0184E88093BC00CCEBD0E01AC00097B0
:1010B000E1F00E944E0AAB01BC014C195D096E09BA
:1010C0007F098091CB039091CC03A0E0B0E048175A
:1010D00059076A077B0728F0C8010E945407C1E03E
:1010E00029C08091CB039091CC0328812223FCF668
:1010F0008091B900887F8831D1F08091B900887FD4
:101100008034B9F0E9EBF0E0C081C87F8081887F4E
:10111000803229F08091B900887F883421F4C80199
:101120000E945A0707C0C8010E94540703C0C0E0CC
:1011300001C0C0E08C2FDF91CF911F910F91FF90E4
:10114000EF90DF90CF900895CF92DF92EF92FF92D1
:101150000F931F93CF93DF938C010E944E0A6B0174
:101160007C0184EA8093BC00CCEBD0E01AC00097ED
:10117000E1F00E944E0AAB01BC014C195D096E09F9
:101180007F098091CB039091CC03A0E0B0E0481799
:1011900059076A077B0728F0C8010E945407C1E07D
:1011A00024C08091CB039091CC0328812223FCF6AC
:1011B0008091B900887F8830A9F08091B900887F3C
:1011C000803191F08091B900887F883339F4C091E3
:1011D000B900C87FC8010E94540707C0C091B90078
:1011E000C87F03C0C0E001C0C0E08C2FDF91CF9169
:1011F0001F910F91FF90EF90DF90CF900895CF92C5
:10120000DF92EF92FF920F931F93CF93DF93EC0146
:10121000062FF42E122F1092CF031092CE0322230A
:1012200009F411E0812F815089831882CE010E9438
:10123000A4088883882309F06EC0000FCE01602FB8
:101240000E9442088883882329F0813009F063C016
:1012500082E061C0CE016F2D0E94EC078883882355
:1012600029F0813009F057C083E055C0CE010E94BB
:10127000A4088883882329F0813009F04CC084E0D9
:101280004AC0602F6F5FCE010E9442088883882386
:1012900019F4112329F432C08130E9F585E03BC00F
:1012A000EE24FF246894E1F8EC0EFD1E00E00F2E02
:1012B000FBEBCF2EDD24F02D8981801751F4CE0178
:1012C00060E00E9498078883813011F1883551F0E1
:1012D00022C0CE0161E00E94980788838130D1F05E
:1012E0008035C9F4F6018081F70181937F010F5F9A
:1012F0000093CF030093CD030117F1F6CE010E94B6
:101300005A078883882339F0813029F487E003C0A5
:1013100086E001C086E0DF91CF911F910F91FF9091
:10132000EF90DF90CF900895FF920F931F93CF938C
:10133000DF93EC01162F042FF22E18820E94A408CE
:101340008883882359F5612F660FCE010E944208D9
:101350008883882321F0813009F582E01FC0CE0107
:10136000602F0E94EC078883882321F08130B1F43C
:1013700083E014C0CE016F2D0E94EC078883882380
:1013800021F0813059F483E009C0CE010E945A0750
:101390008883882319F0813009F487E0DF91CF91A9
:1013A0001F910F91FF9008950F931F93CF93DF9399
:1013B000EC01162F042F18820E94A408888388232A
:1013C00001F5612F660FCE010E94420888838823B1
:1013D00021F08130B1F482E014C0CE01602F0E9470
:1013E000EC078883882321F0813059F483E009C019
:1013F000CE010E945A078883882319F0813009F4AE
:1014000087E0DF91CF911F910F9108951F920F9266
:101410000FB60F9211242F933F938F939F93AF9307
:10142000BF938091D4039091D503A091D603B0913E
:10143000D7033091D8030196A11DB11D232F2D5F35
:101440002D3720F02D570196A11DB11D2093D803F3
:101450008093D4039093D503A093D603B093D7037E
:101460008091D0039091D103A091D203B091D30386
:101470000196A11DB11D8093D0039093D103A09339
:10148000D203B093D303BF91AF919F918F913F91BE
:101490002F910F900FBE0F901F9018958FB7F89453
:1014A0002091D4033091D5034091D6035091D703B6
:1014B0008FBFB901CA0108959B01AC017FB7F894B1
:1014C0008091D0039091D103A091D203B091D30326
:1014D00066B5A89B05C06F3F19F00196A11DB11D0F
:1014E0007FBFBA2FA92F982F8827860F911DA11D86
:1014F000B11D62E0880F991FAA1FBB1F6A95D1F723
:10150000BC012DC0FFB7F8948091D0039091D10316
:10151000A091D203B091D303E6B5A89B05C0EF3FDD
:1015200019F00196A11DB11DFFBFBA2FA92F982F49
:1015300088278E0F911DA11DB11DE2E0880F991F14
:10154000AA1FBB1FEA95D1F7861B970B885E9340B5
:10155000C8F2215030404040504068517C4F211526
:1015600031054105510571F60895789484B582607E
:1015700084BD84B5816084BD85B5826085BD85B537
:10158000816085BDEEE6F0E0808181608083E1E8E6
:10159000F0E010828081826080838081816080831E
:1015A000E0E8F0E0808181608083E1EBF0E0808121
:1015B00084608083E0EBF0E0808181608083EAE7F3
:1015C000F0E080818460808380818260808380817C
:1015D000816080838081806880831092C10008953B
:1015E000982F8E3008F09E50977080918A038295D4
:1015F000880F880F807C892B80937C0080917A00F3
:10160000806480937A0080917A0086FDFCCF2091DF
:10161000780040917900942F80E030E0282B392B1E
:10162000C90108951F93CF93DF93182FEB0161E059
:101630000E94720B209709F44AC0CF3FD10509F4EC
:1016400049C0E12FF0E0E255FF4F84918330C1F0B3
:10165000843028F4813051F08230B1F50CC08630EE
:1016600019F1873049F1843079F514C084B5806868
:1016700084BDC7BD33C084B5806284BDC8BD2EC0E3
:1016800080918000806880938000D0938900C0930F
:10169000880024C080918000806280938000D09375
:1016A0008B00C0938A001AC08091B000806880933C
:1016B000B000C093B30012C08091B00080628093EC
:1016C000B000C093B4000AC0C038D1051CF4812F0B
:1016D00060E002C0812F61E00E94B10BDF91CF91E9
:1016E0001F910895CF93DF93482F50E0CA0186568B
:1016F0009F4FFC0134914A575F4FFA018491882330
:1017000069F190E0880F991FFC01E859FF4FA591FE
:10171000B491FC01EE58FF4FC591D491662351F46A
:101720002FB7F8948C91932F909589238C9388816F
:1017300089230BC0623061F42FB7F8948C91932FFA
:10174000909589238C938881832B88832FBF06C033
:101750009FB7F8948C91832B8C939FBFDF91CF918F
:101760000895482F50E0CA0182559F4FFC012491F3
:10177000CA0186569F4FFC0194914A575F4FFA0168
:101780003491332309F440C0222351F1233071F006
:10179000243028F42130A1F0223011F514C0263075
:1017A000B1F02730C1F02430D9F404C0809180001A
:1017B0008F7703C0809180008F7D8093800010C060
:1017C00084B58F7702C084B58F7D84BD09C08091B8
:1017D000B0008F7703C08091B0008F7D8093B00000
:1017E000E32FF0E0EE0FFF1FEE58FF4FA591B491ED
:1017F0002FB7F894662321F48C919095892302C029
:101800008C91892B8C932FBF0895682F70E0CB01AA
:1018100082559F4FFC012491CB0186569F4FFC01BE
:1018200044916A577F4FFB019491992319F420E06A
:1018300030E03CC0222351F1233071F0243028F4F1
:101840002130A1F0223011F514C02630B1F027303C
:10185000C1F02430D9F404C0809180008F7703C098
:10186000809180008F7D8093800010C084B58F7739
:1018700002C084B58F7D84BD09C08091B0008F7790
:1018800003C08091B0008F7D8093B000892F90E0DD
:10189000880F991F84589F4FFC01A591B4918C919A
:1018A00020E030E0842311F021E030E0C901089508
:1018B00008951F920F920FB60F9211242F933F930A
:1018C0004F938F939F93EF93FF938091C00082FD7E
:1018D0001DC04091C6002091190430911A042F5F59
:1018E0003F4F2F73307080911B0490911C04281778
:1018F000390771F0E0911904F0911A04E752FC4F96
:10190000408330931A042093190402C08091C600CA
:10191000FF91EF919F918F914F913F912F910F9058
:101920000FBE0F901F901895E0916D04F0916E041A
:10193000E05CFF4F8191919120813181821B930B5B
:101940008F739070892B11F00E94580C08951F928C
:101950000F920FB60F9211242F933F938F939F9363
:10196000EF93FF9320915D0430915E0480915F04BA
:10197000909160042817390731F48091C1008F7D60
:101980008093C10014C0E0915F04F0916004E35EB5
:10199000FB4F208180915F049091600401968F73CA
:1019A00090709093600480935F042093C600FF9131
:1019B000EF919F918F913F912F910F900FBE0F90BC
:1019C0001F901895AF92BF92DF92EF92FF920F9304
:1019D0001F93CF93DF93EC017A018B01DD2440301C
:1019E00081EE580780E0680780E0780711F0DD2479
:1019F000D39491E0A92EB12CEC89FD89DD2069F00A
:101A0000C50108A002C0880F991F0A94E2F78083DD
:101A100060E079E08DE390E005C0108260E874E852
:101A20008EE190E0A80197010E942D1021503040D6
:101A300040405040569547953795279580E1203096
:101A4000380720F0DD2011F0DD24D6CFE889F989B0
:101A50003083EA89FB89208319A2EE89FF894081BE
:101A600021E030E0C9010C8C02C0880F991F0A9454
:101A7000E2F7482B4083EE89FF894081C9010D8C34
:101A800002C0880F991F0A94E2F7482B4083EE8921
:101A9000FF894081C9010E8C02C0880F991F0A94EA
:101AA000E2F7482B4083EE89FF8980810F8C02C0CA
:101AB000220F331F0A94E2F7209528232083DF9119
:101AC000CF911F910F91FF90EF90DF90BF90AF905B
:101AD0000895DC011C96ED91FC911D97E05CFF4F91
:101AE0002191319180819181281B390B2F733070A6
:101AF000C9010895DC011C96ED91FC911D97E05CF5
:101B0000FF4F20813181E054F040DF01AE5BBF4FD9
:101B10008D919C9111972817390719F42FEF3FEFFA
:101B200007C08D919C91E80FF91F8081282F30E02C
:101B3000C9010895DC011C96ED91FC911D97E05CB4
:101B4000FF4F20813181E054F040DF01AE5BBF4F99
:101B50008D919C9111972817390719F42FEF3FEFBA
:101B600010C08D919C911197E80FF91F20818D91E4
:101B70009C91119701968F73907011969C938E9300
:101B800030E0C9010895DC0191968C9191978823EA
:101B900039F05496ED91FC915597808186FFF9CFED
:101BA00091961C920895CF93DF93EC01EE85FF850B
:101BB000E05CFF4F20813181E054F0402F5F3F4FC8
:101BC0002F733070DF01AE5BBF4F8D919C911197E9
:101BD00028173907D1F3E05CFF4F80819181E054F1
:101BE000F040E80FF91F6083EE85FF85E05CFF4F52
:101BF00031832083EE89FF89208181E090E00F8C82
:101C000002C0880F991F0A94E2F7282B208381E0F5
:101C100089A3EC89FD8980818064808381E090E0E4
:101C2000DF91CF910895109264041092630488EEBE
:101C300093E0A0E0B0E08093650490936604A093E5
:101C40006704B09368048FE893E0909362048093F4
:101C5000610489ED93E090936E0480936D048DE1AF
:101C600094E09093700480936F0485EC90E09093DF
:101C700072048093710484EC90E0909374048093D8
:101C8000730480EC90E0909376048093750481EC6B
:101C900090E0909378048093770482EC90E09093A6
:101CA0007A048093790486EC90E090937C0480938E
:101CB0007B0484E080937D0483E080937E0487E04E
:101CC00080937F0485E08093800481E08093810489
:101CD0000895CF93DF930E94B50A0E948D00C4E956
:101CE000DCE00E942D042097E1F30E94940CF9CFD0
:101CF000CF92DF92EF92FF920F931F93CF93DF93D8
:101D00007C016B018A01C0E0D0E00FC0D6016D916B
:101D10006D01D701ED91FC910190F081E02DC7019B
:101D20000995C80FD91F015010400115110571F711
:101D3000CE01DF91CF911F910F91FF90EF90DF9037
:101D4000CF900895EF92FF920F931F938C01DC01C7
:101D5000ED91FC910190F081E02D6DE009957C0101
:101D6000D801ED91FC910190F081E02DC8016AE06D
:101D700009959C012E0D3F1DC9011F910F91FF90E8
:101D8000EF900895CF93DF93EC016115710519F47D
:101D900020E030E00FC0DB010D900020E9F7119743
:101DA000A61BB70BE881F9810280F381E02DAD011C
:101DB00009959C01C901DF91CF9108954F925F92DF
:101DC0007F928F929F92AF92BF92CF92DF92EF92CB
:101DD000FF920F931F93DF93CF93CDB7DEB7A197F9
:101DE0000FB6F894DEBF0FBECDBF2C01742ECB0111
:101DF000223008F42AE019A231E2C32ED12CCC0EF5
:101E0000DD1E822E9924AA24BB24672D752FA501DF
:101E100094010E942D1079018A01C801B701A50122
:101E200094010E94FB0F472D461B0894C108D1085E
:101E30004A3014F4405D01C0495CF6014083E1146E
:101E4000F1040105110521F07E2C5F2DC801DDCFC5
:101E5000C201B6010E94C20EA1960FB6F894DEBF71
:101E60000FBECDBFCF91DF911F910F91FF90EF90EB
:101E7000DF90CF90BF90AF909F908F907F905F90BA
:101E80004F900895DC012115310541F4ED91FC914D
:101E90000190F081E02D642F099508950E94DE0ED7
:101EA0000895EF92FF920F931F939A017B0100E038
:101EB00010E0B801A7010E94420F1F910F91FF90FF
:101EC000EF900895EF92FF920F931F939A01E62EE1
:101ED000FF2400E010E0B801A7010E94420F1F910B
:101EE0000F91FF90EF900895CF92DF92EF92FF92C3
:101EF0000F931F936C01E62E9A01FF2400E010E07F
:101F0000B801A7010E94420F8C01C6010E94A20ED7
:101F1000080F191FC8011F910F91FF90EF90DF90DC
:101F2000CF900895CF92DF92EF92FF920F931F937D
:101F3000CF93DF93EC016A017B012115310541F458
:101F4000E881F9810190F081E02D642F09951FC08F
:101F50002A303105D1F477FF17C0E881F98101906B
:101F6000F081E02D6DE209958C0144275527BA01D7
:101F70004C195D096E097F09CE012AE00E94DE0E30
:101F80009801280F391F04C02AE00E94DE0E9C0130
:101F9000C901DF91CF911F910F91FF90EF90DF90DA
:101FA000CF900895EF92FF920F931F937B019A01B8
:101FB0000027F7FC0095102FB801A7010E94920F8F
:101FC0001F910F91FF90EF9008950E94C20E089507
:101FD000EF92FF920F931F937C010E94C20E8C011F
:101FE000C7010E94A20E080F191FC8011F910F916F
:101FF000FF90EF900895629FD001739FF001829F40
:10200000E00DF11D649FE00DF11D929FF00D839F87
:10201000F00D749FF00D659FF00D9927729FB00D24
:10202000E11DF91F639FB00DE11DF91FBD01CF0137
:102030001124089597FB092E07260AD077FD04D0B6
:102040002ED006D000201AF4709561957F4F089528
:10205000F6F7909581959F4F0895A1E21A2EAA1B3D
:10206000BB1BFD010DC0AA1FBB1FEE1FFF1FA21748
:10207000B307E407F50720F0A21BB30BE40BF50B45
:10208000661F771F881F991F1A9469F760957095CE
:10209000809590959B01AC01BD01CF010895AA1BCD
:1020A000BB1B51E107C0AA1FBB1FA617B70710F043
:1020B000A61BB70B881F991F5A95A9F78095909575
:1020C000BC01CD010895EE0FFF1F0590F491E02DA6
:0620D0000994F894FFCF13
:1020D6004D6561737572656D656E7420002C207692
:1020E600616C75653A20002C2066745F54617267D6
:1020F60065743A20000A0053616D706C653A2000E1
:10210600546F6F2062726967687421004D61782090
:102116003D20004D696E203D20002C2044656C74E6
:10212600613A20002C204D65617375726564204DFF
:10213600656469616E3A004572726F723A200046B4
:1021460061696C696E672C2064656C746120746FBC
:102156006F20736D616C6C0050617373696E673AC2
:1021660020006D31202D206D32203D20002C206D69
:1021760032202D206D30203D20004661696C696E4D
:10218600673A20002C2062745F5461726765743A66
:1021960020004661696C696E672C2064656C746109
:1021A60020746F6F206C61726765000A3D3D3D3D8E
:1021B6003D3D3D3D496E697420466C6173686C69AE
:1021C6006768743D3D3D3D3D3D3D3D0A000A3D3D50
:1021D6003D3D3D3D3D3D496E6974204272696768EB
:1021E600746E6573733D3D3D3D3D3D3D3D0A004684
:1021F60061696C656420746F20676574206461741E
:10220600612066726F6D2049324320536C6176659A
:1022160020616464723A2030780020636F6D6D61CE
:102226006E643A2030780020627974657320726596
:10223600717565737465643A2000207265747269FD
:1022460065732072656D61696E696E673A20004636
:1022560061696C656420746F2073656E6420493211
:102266004320436F6D6D616E6420616464723A2031
:1022760030780020646174613A20307800437562DA
:10228600656C65742D41726475696E6F20496E7454
:10229600657266616365204C6F616465642E2020FB
:1022A60052656164792E005363616E6E696E6720B4
:1022B600666F7220646576696365732E2E2E706C68
:1022C600656173652077616974005468657265207D
:1022D600697320612070726F626C656D2077697416
:1022E6006820746865206275732C20636F756C6452
:1022F600206E6F7420636F6D706C657465207363F8
:10230600616E00466F756E6420646576696365204C
:1023160061742061646472657373202D200020301F
:1023260078004E6F206465766963657320666F7505
:102336006E64006E616E00696E66006F7666002ED2
:1023460000000A008200DC000000FF000100190006
:102356007300C8000000FF0064000100000000D305
:0C2366000D780E690D9A0D7A0DC30D0064
:00000001FF
