:100000000C9462000C948A000C948A000C948A0070
:100010000C948A000C948A000C948A000C948A0038
:100020000C948A000C948A000C948A000C948A0028
:100030000C948A000C948A000C948A000C948A0018
:100040000C9408040C948A000C9439060C948706CE
:100050000C948A000C948A000C948A000C948A00F8
:100060000C948A000C948A000000000024002700F1
:100070002A0000000000250028002B0000000000DE
:1000800023002600290004040404040404040202DA
:100090000202020203030303030301020408102007
:1000A0004080010204081020010204081020000012
:1000B0000007000201000003040600000000000029
:1000C0000000F30711241FBECFEFD8E0DEBFCDBF85
:1000D00011E0A0E0B1E0EAE2FAE102C005900D9281
:1000E000AC38B107D9F712E0ACE8B1E001C01D921D
:1000F000A135B107E1F710E0C4ECD0E004C02297CD
:10010000FE010E94F70CC23CD107C9F70E944908C2
:100110000C94130D0C940000CF93DF93CDE2D2E04A
:10012000CE0140E855E260E070E00E94C206CE01D8
:1001300060E071E00E94810983E061E00E94520565
:1001400084E061E00E94520585E061E00E94520572
:1001500086E060E00E94520587E060E00E94520560
:1001600088E060E00E94520589E061E00E9452054B
:1001700089E06FEF70E00E94F20410929B0181E031
:1001800080939A0110929901CE0166E071E00E947D
:100190008109DF91CF910895EF92FF921F93CF9342
:1001A000DF93CDB7DEB7AA970FB6F894DEBF0FBEC8
:1001B000CDBF7C01CE0184966AE071E00E94790A8D
:1001C000C701BE016C5D7F4F0E949409182FCE01BC
:1001D00084960E94B50A112339F08DE292E060E026
:1001E00071E00E948109CCC0CE014D966CE071E0B7
:1001F0000E94790AC701BE01635E7F4F0E94940985
:10020000182FCE014D960E94B50A1123A1F08091BE
:100210009B01813039F48DE292E06FE071E00E9441
:100220008109AEC08DE292E06CE071E00E9481092C
:1002300010929901A5C0CE01469667E171E00E9437
:10024000790AC701BE016A5E7F4F0E949409182F88
:10025000CE0146960E94B50A1123A9F080919B0118
:10026000813039F48DE292E06FE071E00E94810903
:1002700087C08DE292E067E171E00E94810981E030
:10028000809399017DC0CE010F966AE171E00E94D2
:10029000790AC701BE01615F7F4F0E949409182F40
:1002A000CE010F960E94B50A1123A9F080919B01FF
:1002B000813039F48DE292E06FE071E00E948109B3
:1002C0005FC08DE292E06AE171E00E94810981E005
:1002D00080939B0155C0CE0108966DE171E00E94AC
:1002E000790AC701BE01685F7F4F0E949409182FE9
:1002F000CE0108960E94B50A112351F08DE292E0DA
:100300006DE171E00E94810983E080939B0138C018
:10031000CE01019663E271E00E94790AC701BE0135
:100320006F5F7F4F0E949409182FCE0101960E94A3
:10033000B50A112321F10F2EFDE2EF2EF2E0FF2E80
:10034000F02DC70169E271E00E94810960919B0173
:10035000C70170E04AE050E00E9462096091990193
:10036000C70170E04AE050E00E94620960919A0182
:10037000C70170E04AE050E00E94620901C002C07B
:1003800080E090E0AA960FB6F894DEBF0FBECDBF16
:10039000DF91CF911F91FF90EF9008950F931F93DE
:1003A000CF93DF93CDB7DEB72E970FB6F894DEBFAD
:1003B0000FBECDBFCE01089662E471E00E94790ABB
:1003C0000DE212E00EC062E070E080E090E00E947A
:1003D0005E04C8010E947A07682FCE0108960E9429
:1003E000330AC8010E944907009769F7CE010196B8
:1003F000BE01685F7F4F0E94AA0ACE0101960E944B
:10040000CC00CE0101960E94B50A87E00E94E50566
:10041000009749F080919B01882329F4109299015B
:1004200081E080939B0188E00E94E505009751F0F0
:1004300080919B01882331F481E08093990180931E
:100440009B010BC080919B01823009F4B9C18330BC
:1004500009F4C3C1813009F0CCC18091990188238E
:1004600021F0813009F0C5C1D6C080919A0188235E
:1004700021F0813009F0BDC136C080917701882319
:1004800071F00E945004DC01CB01809395019093A0
:100490009601A0939701B0939801109277010E9462
:1004A0005004AB01BC018091950190919601A091FF
:1004B0009701B0919801481B590B6A0B7B0B8091F7
:1004C000910190919201A0919301B09194014817EC
:1004D00059076A077B0708F48CC181E080939A0171
:1004E0008093770186C183E061E00E94910584E0FA
:1004F00061E00E94910585E060E00E949105809195
:100500007601882371F00E945004DC01CB018093B6
:100510008D0190938E01A0938F01B0939001109262
:10052000760180918C018823C9F186E00E94E5055F
:10053000009761F484E060E00E94910510928C01C4
:1005400081E08093760110929B0153C10E94500478
:10055000DC01CB0140918D0150918E0160918F01A2
:1005600070919001841B950BA60BB70B843F21E083
:10057000920720E0A20720E0B20708F43AC18DE21A
:1005800092E063E471E00E94810910928C0181E0A5
:100590008093760182E080939B012BC186E00E94CC
:1005A000E505009781F081E080938C010E94500462
:1005B000DC01CB0180938D0190938E01A0938F017C
:1005C000B093900116C10E945004DC01CB01409110
:1005D0008D0150918E0160918F0170919001841B6B
:1005E000950BA60BB70B843F21E0920720E0A207F2
:1005F00020E0B20708F4FDC08DE292E064E571E00E
:100600000E94810910928C0181E08093760182E042
:1006100080939B01EEC080919A01882321F0813064
:1006200009F0E7C036C080917701882371F00E94FD
:100630005004DC01CB018093950190939601A09327
:100640009701B0939801109277010E945004AB017A
:10065000BC018091950190919601A0919701B09174
:100660009801481B590B6A0B7B0B8091910190916B
:100670009201A0919301B0919401481759076A071C
:100680007B0708F4B6C081E080939A0180937701DC
:10069000B0C083E061E00E94910584E060E00E94C8
:1006A000910585E061E00E949105809176018823A3
:1006B00071F00E945004DC01CB0180938D01909376
:1006C0008E01A0938F01B0939001109276018091DA
:1006D0008C018823C9F186E00E94E505009761F44A
:1006E00085E060E00E94910510928C0181E080938A
:1006F000760110929B017DC00E945004DC01CB0169
:1007000040918D0150918E0160918F017091900107
:10071000841B950BA60BB70B843F21E0920720E0CA
:10072000A20720E0B20708F464C08DE292E063E41F
:1007300071E00E94810910928C0181E08093760122
:1007400082E080939B0155C086E00E94E5050097FA
:1007500081F081E080938C010E945004DC01CB0188
:1007600080938D0190938E01A0938F01B09390019F
:1007700040C00E945004DC01CB0140918D0150919A
:100780008E0160918F0170919001841B950BA60BD7
:10079000B70B843F21E0920720E0A20720E0B207D8
:1007A00040F18DE292E064E571E00E9481091092CF
:1007B0008C0181E08093760182E080939B0119C0D7
:1007C00084E060E00E94910585E060E00E94910570
:1007D00083E060E00E9491050CC084E060E00E942C
:1007E000910585E060E00E94910583E060E00E9451
:1007F0009105CE0108960E94B50A2E960FB6F89480
:10080000DEBF0FBECDBFDF91CF911F910F91089535
:100810001F920F920FB60F9211242F933F938F9335
:100820009F93AF93BF938091A0019091A101A0915C
:10083000A201B091A3013091A4010196A11DB11DA7
:10084000232F2D5F2D3720F02D570196A11DB11DAF
:100850002093A4018093A0019093A101A093A201F1
:10086000B093A30180919C0190919D01A0919E0164
:10087000B0919F010196A11DB11D80939C019093A1
:100880009D01A0939E01B0939F01BF91AF919F9155
:100890008F913F912F910F900FBE0F901F90189541
:1008A0008FB7F8942091A0013091A1014091A2014D
:1008B0005091A3018FBFB901CA0108959B01AC01FA
:1008C0007FB7F89480919C0190919D01A0919E0129
:1008D000B0919F0166B5A89B05C06F3F19F00196C6
:1008E000A11DB11D7FBFBA2FA92F982F8827860F72
:1008F000911DA11DB11D62E0880F991FAA1FBB1F8A
:100900006A95D1F7BC012DC0FFB7F89480919C0186
:1009100090919D01A0919E01B0919F01E6B5A89B89
:1009200005C0EF3F19F00196A11DB11DFFBFBA2F01
:10093000A92F982F88278E0F911DA11DB11DE2E0D0
:10094000880F991FAA1FBB1FEA95D1F7861B970B2B
:10095000885E9340C8F2215030404040504068517A
:100960007C4F211531054105510571F608957894A4
:1009700084B5826084BD84B5816084BD85B58260A4
:1009800085BD85B5816085BDEEE6F0E08081816042
:100990008083E1E8F0E01082808182608083808142
:1009A00081608083E0E8F0E0808181608083E1EB1A
:1009B000F0E0808184608083E0EBF0E08081816002
:1009C0008083EAE7F0E080818460808380818260B8
:1009D00080838081816080838081806880831092A1
:1009E000C10008951F93CF93DF93182FEB0161E0AF
:1009F0000E945205209709F44AC0CF3FD10509F45F
:100A000049C0E12FF0E0E255FF4F84918330C1F0FF
:100A1000843028F4813051F08230B1F50CC086303A
:100A200019F1873049F1843079F514C084B58068B4
:100A300084BDC7BD33C084B5806284BDC8BD2EC02F
:100A400080918000806880938000D0938900C0935B
:100A5000880024C080918000806280938000D093C1
:100A60008B00C0938A001AC08091B0008068809388
:100A7000B000C093B30012C08091B0008062809338
:100A8000B000C093B4000AC0C038D1051CF4812F57
:100A900060E002C0812F61E00E949105DF91CF915B
:100AA0001F910895CF93DF93482F50E0CA018656D7
:100AB0009F4FFC0134914A575F4FFA01849188237C
:100AC00069F190E0880F991FFC01E859FF4FA5914B
:100AD000B491FC01EE58FF4FC591D491662351F4B7
:100AE0002FB7F8948C91932F909589238C938881BC
:100AF00089230BC0623061F42FB7F8948C91932F47
:100B0000909589238C938881832B88832FBF06C07F
:100B10009FB7F8948C91832B8C939FBFDF91CF91DB
:100B20000895482F50E0CA0182559F4FFC0124913F
:100B3000CA0186569F4FFC0194914A575F4FFA01B4
:100B40003491332309F440C0222351F1233071F052
:100B5000243028F42130A1F0223011F514C02630C1
:100B6000B1F02730C1F02430D9F404C08091800066
:100B70008F7703C0809180008F7D8093800010C0AC
:100B800084B58F7702C084B58F7D84BD09C0809104
:100B9000B0008F7703C08091B0008F7D8093B0004C
:100BA000E32FF0E0EE0FFF1FEE58FF4FA591B49139
:100BB0002FB7F894662321F48C919095892302C075
:100BC0008C91892B8C932FBF0895682F70E0CB01F7
:100BD00082559F4FFC012491CB0186569F4FFC010B
:100BE00044916A577F4FFB019491992319F420E0B7
:100BF00030E03CC0222351F1233071F0243028F43E
:100C00002130A1F0223011F514C02630B1F0273088
:100C1000C1F02430D9F404C0809180008F7703C0E4
:100C2000809180008F7D8093800010C084B58F7785
:100C300002C084B58F7D84BD09C08091B0008F77DC
:100C400003C08091B0008F7D8093B000892F90E029
:100C5000880F991F84589F4FFC01A591B4918C91E6
:100C600020E030E0842311F021E030E0C901089554
:100C700008951F920F920FB60F9211242F933F9356
:100C80004F938F939F93EF93FF938091C00082FDCA
:100C90001DC04091C6002091E5013091E6012F5F13
:100CA0003F4F2F7330708091E7019091E801281732
:100CB000390771F0E091E501F091E601EB55FE4F47
:100CC00040833093E6012093E50102C08091C60085
:100CD000FF91EF919F918F914F913F912F910F90A5
:100CE0000FBE0F901F901895E0913902F0913A02D3
:100CF000E05CFF4F8191919120813181821B930BA8
:100D00008F739070892B11F00E94380608951F92FE
:100D10000F920FB60F9211242F933F938F939F93AF
:100D2000EF93FF932091290230912A0280912B02A8
:100D300090912C022817390731F48091C1008F7DE2
:100D40008093C10014C0E0912B02F0912C02E75176
:100D5000FE4F208180912B0290912C0201968F737F
:100D6000907090932C0280932B022093C600FF91E9
:100D7000EF919F918F913F912F910F900FBE0F9008
:100D80001F901895AF92BF92DF92EF92FF920F9350
:100D90001F93CF93DF93EC017A018B01DD24403068
:100DA00081EE580780E0680780E0780711F0DD24C5
:100DB000D39491E0A92EB12CEC89FD89DD2069F056
:100DC000C50108A002C0880F991F0A94E2F780832A
:100DD00060E079E08DE390E005C0108260E874E89F
:100DE0008EE190E0A80197010E94D30C2150304081
:100DF00040405040569547953795279580E12030E3
:100E0000380720F0DD2011F0DD24D6CFE889F989FC
:100E10003083EA89FB89208319A2EE89FF8940810A
:100E200021E030E0C9010C8C02C0880F991F0A94A0
:100E3000E2F7482B4083EE89FF894081C9010D8C80
:100E400002C0880F991F0A94E2F7482B4083EE896D
:100E5000FF894081C9010E8C02C0880F991F0A9436
:100E6000E2F7482B4083EE89FF8980810F8C02C016
:100E7000220F331F0A94E2F7209528232083DF9165
:100E8000CF911F910F91FF90EF90DF90BF90AF90A7
:100E90000895DC011C96ED91FC911D97E05CFF4FDD
:100EA0002191319180819181281B390B2F733070F2
:100EB000C9010895DC011C96ED91FC911D97E05C41
:100EC000FF4F20813181E054F040DF01AE5BBF4F26
:100ED0008D919C9111972817390719F42FEF3FEF47
:100EE00007C08D919C91E80FF91F8081282F30E079
:100EF000C9010895DC011C96ED91FC911D97E05C01
:100F0000FF4F20813181E054F040DF01AE5BBF4FE5
:100F10008D919C9111972817390719F42FEF3FEF06
:100F200010C08D919C911197E80FF91F20818D9130
:100F30009C91119701968F73907011969C938E934C
:100F400030E0C9010895DC0191968C919197882336
:100F500039F05496ED91FC915597808186FFF9CF39
:100F600091961C920895CF93DF93EC01EE85FF8557
:100F7000E05CFF4F20813181E054F0402F5F3F4F14
:100F80002F733070DF01AE5BBF4F8D919C91119735
:100F900028173907D1F3E05CFF4F80819181E0543D
:100FA000F040E80FF91F6083EE85FF85E05CFF4F9E
:100FB00031832083EE89FF89208181E090E00F8CCE
:100FC00002C0880F991F0A94E2F7282B208381E042
:100FD00089A3EC89FD8980818064808381E090E031
:100FE000DF91CF9108951092300210922F0288EE77
:100FF00093E0A0E0B0E08093310290933202A0939E
:101000003302B093340280E891E090932E028093F3
:101010002D0285EA91E090933A028093390289EE9D
:1010200091E090933C0280933B0285EC90E090939A
:101030003E0280933D0284EC90E0909340028093C6
:101040003F0280EC90E0909342028093410281EC59
:1010500090E0909344028093430282EC90E090935E
:1010600046028093450286EC90E09093480280937C
:10107000470284E08093490283E080934A0287E03C
:1010800080934B0285E080934C0281E080934D0277
:101090000895CF93DF930E94B7040E948C00C4E7A9
:1010A000D6E00E94CE012097E1F30E947406F9CFAA
:1010B000CF92DF92EF92FF920F931F93CF93DF9324
:1010C0007C016B018A01C0E0D0E00FC0D6016D91B8
:1010D0006D01D701ED91FC910190F081E02DC701E8
:1010E0000995C80FD91F015010400115110571F75E
:1010F000CE01DF91CF911F910F91FF90EF90DF9084
:10110000CF900895EF92FF920F931F938C01DC0113
:10111000ED91FC910190F081E02D6DE009957C014D
:10112000D801ED91FC910190F081E02DC8016AE0B9
:1011300009959C012E0D3F1DC9011F910F91FF9034
:10114000EF900895CF93DF93EC016115710519F4C9
:1011500020E030E00FC0DB010D900020E9F711978F
:10116000A61BB70BE881F9810280F381E02DAD0168
:1011700009959C01C901DF91CF9108954F925F922B
:101180007F928F929F92AF92BF92CF92DF92EF9217
:10119000FF920F931F93DF93CF93CDB7DEB7A19745
:1011A0000FB6F894DEBF0FBECDBF2C01742ECB015D
:1011B000223008F42AE019A231E2C32ED12CCC0E41
:1011C000DD1E822E9924AA24BB24672D752FA5012C
:1011D00094010E94D30C79018A01C801B701A501CD
:1011E00094010E94B40C472D461B0894C108D108F5
:1011F0004A3014F4405D01C0495CF6014083E114BB
:10120000F1040105110521F07E2C5F2DC801DDCF11
:10121000C201B6010E94A208A1960FB6F894DEBFE3
:101220000FBECDBFCF91DF911F910F91FF90EF9037
:10123000DF90CF90BF90AF909F908F907F905F9006
:101240004F900895CF92DF92EF92FF920F931F93EA
:10125000CF93DF93EC016A017B012115310541F445
:10126000E881F9810190F081E02D642F09951FC07C
:101270002A303105D1F477FF17C0E881F981019058
:10128000F081E02D6DE209958C0144275527BA01C4
:101290004C195D096E097F09CE012AE00E94BE0843
:1012A0009801280F391F04C02AE00E94BE089C0143
:1012B000C901DF91CF911F910F91FF90EF90DF90C7
:1012C000CF900895CF92DF92EF92FF920F931F93EA
:1012D0006C017B019A010027F7FC0095102FB801E3
:1012E000A7010E9422098C01C6010E948208080FF2
:1012F000191FC8011F910F91FF90EF90DF90CF90C1
:101300000895EF92FF920F931F937C010E94A20811
:101310008C01C7010E948208080F191FC8011F9184
:101320000F91FF90EF900895EF92FF920F931F930C
:10133000CF93DF93FC01DB018617970739F12481F6
:10134000358114968D919C9115972817390701F5D1
:10135000232BE1F0E080F180CD91DC9113C099273F
:1013600087FD90950E94FB0C8C018881992787FD51
:1013700090950E94FB0C0817190751F40894E11C82
:10138000F11C2196F7018081882349F781E001C093
:1013900080E0DF91CF911F910F91FF90EF90089522
:1013A0000F931F93CF93DF93EC018B016F5F7F4F00
:1013B000888199810E94DA0B009711F480E005C0C2
:1013C000998388831B830A8381E0DF91CF911F91EA
:1013D0000F910895CF93DF93EC0188819981892B38
:1013E00029F08A819B818617970760F4CE010E94BD
:1013F000D009882341F08C819D81892B19F4E881E3
:10140000F981108281E0DF91CF910895EF92FF92F0
:101410000F931F93CF93DF93EC017B016C817D8150
:10142000E114F104C1F04115510599F08A01060F4C
:10143000171FB8010E94EA09882369F08881998101
:101440002C813D81820F931FB7010E940C0D1D83DB
:101450000C8381E001C080E0DF91CF911F910F915B
:10146000FF90EF900895DF93CF9300D0CDB7DEB714
:1014700069831A82BE016F5F7F4F41E050E00E9496
:10148000060A0F900F90CF91DF910895CF93DF93CD
:10149000EC0188819981009711F00E94420B19821A
:1014A00018821D821C821B821A82DF91CF910895BF
:1014B000EF92FF920F931F93CF93DF93EC017B0189
:1014C0008A01BA010E94EA09882321F4CE010E9410
:1014D000460A07C01D830C8388819981B7010E9449
:1014E0000C0DCE01DF91CF911F910F91FF90EF90E6
:1014F0000895CF93DF93EC01198218821B821A8220
:101500001D821C821E826115710551F0DB010D9058
:101510000020E9F71197A61BB70BAD010E94580AEE
:10152000DF91CF910895CF93DF93EC01FB018617F4
:10153000970761F0608171816115710529F044811F
:1015400055810E94580A02C00E94460ACE01DF91CE
:10155000CF910895FC0111821082138212821582AC
:10156000148216820E94930A0895FC018081918161
:101570000E94420B08950F931F93CF93DF93BC01FA
:101580008230910510F462E070E0E0914F02F0913A
:101590005002A0E0B0E040E050E024C080819181A2
:1015A00086179707D0F08617970771F48281938189
:1015B000109729F013969C938E9312972CC09093BA
:1015C000500280934F0227C04115510519F084172E
:1015D000950718F4EF018D01AC01DF018281938141
:1015E0009C01F9013097D1F641155105F9F0CA0176
:1015F000861B970B8430910580F48A819B810115AD
:10160000110521F0F8019383828304C09093500266
:1016100080934F02FE0132962FC0FE01E80FF91FA2
:101620006193719302979983888326C08DB79EB783
:101630008857904020917801309179012817390717
:10164000C8F4AC01421B530B4617570798F0CB0167
:1016500002964817590770F0820F931F90937901F3
:101660008093780190937B0180937A01F9016193D3
:10167000719302C0E0E0F0E0CF01DF91CF911F91C4
:101680000F910895CF93DF939C01009709F48FC0C9
:10169000EC0122971B821A8260914F0270915002D6
:1016A0006115710581F488819981820F931F2091C2
:1016B0007801309179012817390739F5D0937901EC
:1016C000C093780174C0DB0140E050E0AC17BD0767
:1016D00008F1BB83AA83FE0121913191E20FF31F30
:1016E000AE17BF0779F48D919C911197280F391F80
:1016F0002E5F3F4F3983288312968D919C911397CB
:101700009B838A834115510571F4D0935002C09395
:101710004F024DC012968D919C911397AD01009789
:1017200011F0DC01D3CFDA011396DC93CE9312973C
:10173000FA0121913191E20FF31FCE17DF0769F40F
:1017400088819981280F391F2E5F3F4FFA0131831D
:1017500020838A819B8193838283E0E0F0E0DB0138
:1017600012968D919C911397009719F0BC01FD0181
:10177000F6CFAB014E5F5F4FDB018D919C91840FE3
:10178000951F20917801309179012817390779F454
:10179000309729F41092500210924F0202C0138227
:1017A0001282425050405093790140937801DF916A
:1017B000CF9108956F927F928F929F92AF92BF9236
:1017C000CF92DF92EF92FF920F931F93CF93DF930D
:1017D0008C01009729F4CB010E94BB0A8C01B4C094
:1017E0008EEFE82E8FEFF82EE00EF11E5801A60EB8
:1017F000B71EAE14BF0408F4A5C0D7014D915C918B
:10180000119746175707B8F04530510508F49CC0AA
:10181000CA0104978617970708F496C042505040B3
:10182000461B570BF501419351936D937C93CF0168
:101830000E94420B89C04B01841A950A3801640E3C
:10184000751EA0914F02B0915002CC24DD24E0E03F
:10185000F0E047C0A615B705A9F5CD91DC91119729
:10186000CE0102968815990568F1CE01881999096B
:10187000029612962C91129713963C91059758F068
:10188000F50122833383C819D909D183C083D701D5
:101890006D937C9309C04E5F5F4F4C0F5D1FF70146
:1018A00051834083C901FC01C114D10431F0D60138
:1018B0001396FC93EE93129747C0F0935002E09377
:1018C0004F0242C08D919C911197E817F90708F4D7
:1018D000FC016D0112968C91129713969C919C01BC
:1018E000D901109709F0B6CF8091780190917901D4
:1018F00086159705B1F4E617F70798F48DB79EB7EC
:1019000088579040A816B906E8F4B0927901A092E1
:101910007801B0927B01A0927A01F7017183608314
:1019200013C0CB010E94BB0AEC01009759F0D7010C
:101930004D915C91B8010E94030DC8010E94420BB9
:101940008E0102C000E010E0C801DF91CF911F912D
:101950000F91FF90EF90DF90CF90BF90AF909F904E
:101960008F907F906F900895629FD001739FF001D8
:10197000829FE00DF11D649FE00DF11D929FF00D1F
:10198000839FF00D749FF00D659FF00D9927729F56
:10199000B00DE11DF91F639FB00DE11DF91FBD01E1
:1019A000CF0111240895A1E21A2EAA1BBB1BFD0131
:1019B0000DC0AA1FBB1FEE1FFF1FA217B307E4072E
:1019C000F50720F0A21BB30BE40BF50B661F771F86
:1019D000881F991F1A9469F7609570958095909566
:1019E0009B01AC01BD01CF010895EE0FFF1F0590D3
:1019F000F491E02D09949111089581548A5108F4CD
:101A0000805E855A0895FB01DC0102C001900D92B1
:101A100041505040D8F70895FB01DC0101900D9230
:0A1A20000020E1F70895F894FFCFCD
:101A2A00603030303000524459004900433000578A
:101A3A004F524B494E4700433100474F00455354DC
:101A4A004F500053544154450053746174652C201F
:101A5A00436F6E6669672C2073756253746174658F
:101A6A003A00004552524F523A434C4541525F5454
:101A7A00494D45004552524F523A4F43434C554403
:101A8A00455F54494D45006E616E00696E66006F90
:101A9A007666002E00000101510264000000000079
:0C1AAA00B307580849077A075A07A3073A
:00000001FF
