:1000000009C016C015C014C013C012C011C010C062
:100010000FC04EC111241FBECFE9CDBF10E0A0E636
:10002000B0E001C01D92A338B107E1F76ED0A9C1BD
:10003000E7CF83E08FBD19BC16BEB99AC19AB89AB2
:10004000C09A1092660085E090E0A0E0B0E0809356
:10005000670090936800A0936900B0936A000895C8
:1000600090916600913011F4E4DF089516BEB89ABD
:10007000C09893E29FBD90916600923009F08FEF97
:1000800089BD82E080936600089590916600923069
:1000900011F4CFDF089519BCB99AC19893E89FBDB8
:1000A00090916600913009F08FEF86BF81E08093D8
:1000B0006600089580916600882311F0BADF0895E4
:1000C00083E08FBD19BC16BEB99AC198B89AC09882
:1000D000109266000895B89AC098B99AC198BA98D3
:1000E000C298BB98C398BC98C498109266000895B3
:1000F00083E087B98FEC86B9089583E28FBD83E0F2
:1001000083BF12BE19BC16BE0895FF920F931F93B2
:10011000CF93DF9384E190E0A0E0B0E080936700AC
:1001200090936800A0936900B0936A00D4DFE0DF89
:10013000E4DF789440E0FF2400E010E0C0E2D0E08B
:1001400001C04F5F809165008823E1F31092650044
:10015000093110F40F5F24C0809163009091640016
:10016000209161003091620080509E4F821B930B62
:1001700097FF02C080E090E0EF2DF0E024E08030B7
:10018000920714F08FEF93E0EE0FFF1FE559FF4F3A
:1001900091838083F3948F2D8C3008F0FF2400E04E
:1001A000493178F28091670090916800A0916900D0
:1001B000B0916A000097A105B10509F060C060E048
:1001C00070E080E090E0FB01EE0FFF1FE559FF4F6C
:1001D00020813181820F931F6F5F7F4F6C307105DB
:1001E00091F7A8D0CB01123031F022E06C337207C6
:1001F00078F4113029F021E0643C720708F454C00F
:10020000685D71406035710508F450C01230D1F45A
:100210006FE070E07DD025E0959587952A95E1F710
:10022000825D90408F3F910509F01CF497FD04C05A
:1002300005C08FEF90E002C080E090E011DF40E069
:1002400012E080CF1130C9F46FE070E061D0BE01E0
:1002500085D088279927861B970B835F9E4F8F3FFA
:10026000910509F01CF497FD04C005C08FEF90E0E4
:1002700002C080E090E009DF15C01CDF13C0809150
:10028000670090916800A0916900B0916A000197A1
:10029000A109B1098093670090936800A093690059
:1002A000B0936A0040E04ECF11E0CECF10E0E5CF32
:1002B0001F920F920FB60F9211242F938F939F933B
:1002C00020916000222319F02130C9F40CC084B1C0
:1002D00095B1909364008093630082E087B981E0D8
:1002E000809360000CC084B195B1909362008093BC
:1002F000610083E087B92093650010926000369A10
:100300009F918F912F910F900FBE0F901F90189576
:100310005527002480FF02C0060E571F660F771F67
:100320006115710521F096958795009799F7952F9E
:10033000802D0895AA1BBB1B51E107C0AA1FBB1F3C
:10034000A617B70710F0A61BB70B881F991F5A9561
:10035000A9F780959095BC01CD01089597FB092ED2
:1003600007260AD077FD04D0E5DF06D000201AF476
:10037000709561957F4F0895F6F7909581959F4F01
:060380000895F894FFCF80
:00000001FF
