:1000000009C021C020C01FC01EC01DC01CC01BC015
:100010001AC019C011241FBECFE9CDBF10E0A0E661
:10002000B0E0EEEFF2E002C005900D92A238B10709
:10003000D9F720E0A2E8B0E001C01D92A338B207D2
:10004000E1F7ABD05AC1DCCFCF93DF93D82FC62FC7
:1000500044EB60E081E0F8D04D2F60E080E0F4D028
:100060004C2F61E080E0DF91CF91EEC061E088E14C
:10007000EBDF67E187E0E8DF60E088E0E5DF6FE085
:100080008FE0E2DF60E087E1DFDF6BEA88E1DCDF61
:1000900061E287E1D9DF61E087E1D6DF61EA88E1EB
:1000A000D3CF80E886BD16BC11D1B99AC19A8FB55D
:1000B00083638FBD8FEF89BD83B7816083BF67E1A5
:1000C00087E0C2DFD3CFCF93C82F44EB60E081E05D
:1000D000BBD04C2F61E080E0CF91B6C045EB60E033
:1000E00081E0B2D061E081E0D7C0CF9365E088E1E4
:1000F000ABDF8FE599E00197F1F700C0000087E2E0
:10010000E2DFECDFC82F86E2DEDFE8DF3C2F20E015
:10011000A901482BCA01009711F4A8DF39C0873321
:1001200051E09507A8F188352BE1920798F5E2E6B2
:10013000F0E020E030E0422F61917191861797073F
:1001400008F5F901EE0FFF1FE05AFF4F20813181C2
:10015000821B930B621B730B811550E1950730F4E2
:1001600034E0880F991F3A95E1F705C024E07695B1
:1001700067952A95E1F7ADD0842F8295807F860F11
:10018000809509C02F5F3F4F20313105A1F602C095
:100190008FEF01C080E0CF91089583DFA6DF81114A
:1001A00003C083B713BEFACF93B7916093BF89BDE5
:1001B000F5CF80918200882351F0BC9886E08A9523
:1001C000F1F700C0BB9886E08A95F1F700C0BC98B3
:1001D000BC9A86E08A95F1F700C0BB9A81E08093D3
:1001E00082000895BC9A86E08A95F1F700C0BB981A
:1001F00086E08A95F1F700C0BC9886E08A95F1F711
:1002000000C0109282000895882311F0BC9801C0AC
:10021000BC9A86E08A95F1F700C0BB9886E08A9583
:10022000F1F700C0BB9A0895BC9886E08A95F1F773
:1002300000C0BB98BC9886B396E09A95F1F700C0D1
:10024000BB9A829581700895EF92FF920F931F934E
:10025000CF93DF931F92CDB7DD27062F142F811187
:10026000A8DF88E0E82EF12C812F881F8827881FBF
:10027000CBDF110F81E0E81AF108B1F7D5DF0023D9
:1002800019F08983AFDF89810F90DF91CF911F91A2
:100290000F91FF90EF900895FF920F931F93CF93CC
:1002A000DF93F82E062FC8E0D0E010E0BDDF110F7D
:1002B000182B2197D9F78F2DA7DF011193DF812FFD
:1002C000DF91CF911F910F91FF900895C498C3982B
:1002D0000895AA1BBB1B51E107C0AA1FBB1FA6178D
:1002E000B70710F0A61BB70B881F991F5A95A9F7DF
:0E02F00080959095BC01CD010895F894FFCF44
:1002FE00360151016D019001C20108026C02EE023D
:10030E0084034C0446057206D007C4091C0C681001
:02031E00581B6A
:00000001FF
