:100000000C9463000C948B000C948B000C948B006C
:100010000C948B000C948B000C948B000C948B0034
:100020000C948B000C948B000C948B000C948B0024
:100030000C948B000C948B000C948B000C948B0014
:100040000C94430A0C948B000C94960C0C94E40CC6
:100050000C948B000C948B000C948B000C948B00F4
:100060000C948B000C948B000000000024002700EF
:100070002A0000000000250028002B0000000000DE
:1000800023002600290004040404040404040202DA
:100090000202020203030303030301020408102007
:1000A0004080010204081020010204081020000012
:1000B0000007000201000003040600000000000029
:1000C0000000F604500E11241FBECFEFD8E0DEBFB3
:1000D000CDBF12E0A0E0B1E0E0E9F7E202C0059098
:1000E0000D92A23DB107D9F713E0A2EDB2E001C035
:1000F0001D92AB3EB107E1F710E0C6ECD0E004C0C2
:100100002297FE010E94AA13C23CD107C9F70E94A0
:10011000A60E0C94C6130C9400000F931F93CF935C
:10012000DF93C7ECD3E0CE0140E855E260E070E039
:100130000E941F0DCE0160E071E00E9420108EE051
:1001400060E00E94AF0B82E062E00E94AF0B88E0AB
:1001500060E00E94AF0B89E061E00E94AF0B8AE093
:1001600061E00E94AF0B83E061E00E94AF0B00E012
:1001700013E0C8010E940F07C8010E94C406109234
:100180000603CE0166E071E00E942010DF91CF915E
:100190001F910F910895EF92FF921F93CF93DF93DA
:1001A000CDB7DEB7E1970FB6F894DEBF0FBECDBF77
:1001B0007C01CE018B966AE071E00E941811C701A4
:1001C000BE01655D7F4F0E943310182FCE018B96C4
:1001D0000E945411112339F087EC93E060E071E044
:1001E0000E942010F9C0CE0184966CE071E00E945C
:1001F0001811C701BE016C5D7F4F0E943310182F8C
:10020000CE0184960E9454111123A1F0809106031F
:10021000813039F487EC93E06FE071E00E942010A8
:10022000DBC087EC93E06CE071E00E94201010923C
:100230000503D2C0CE014D9667E171E00E9418110E
:10024000C701BE01635E7F4F0E943310182FCE019D
:100250004D960E9454111123A9F08091060381301C
:1002600039F487EC93E06FE071E00E942010B4C095
:1002700087EC93E067E171E00E94201081E08093B9
:100280000503AAC0CE0146966AE171E00E941811EA
:10029000C701BE016A5E7F4F0E943310182FCE0146
:1002A00046960E9454111123A9F0809106038130D3
:1002B00039F487EC93E06FE071E00E9420108CC06D
:1002C00087EC93E06AE171E00E94201081E0809366
:1002D000060382C0CE010F966DE171E00E941811F5
:1002E000C701BE01615F7F4F0E943310182FCE01FE
:1002F0000F960E945411112351F087EC93E06DE1A9
:1003000071E00E94201083E08093060365C0CE0157
:10031000089663E271E00E941811C701BE01685F90
:100320007F4F0E943310182FCE0108960E9454115F
:100330001123D1F08091FF02813039F487EC93E0F2
:100340006AE271E00E9420100FC0823039F487EC1D
:1003500093E06FE271E00E94201006C087EC93E00A
:1003600064E371E00E942010CE0101966CE371E01D
:100370000E941811C701BE016F5F7F4F0E943310AA
:10038000182FCE0101960E945411112321F10F2E36
:10039000F7ECEF2EF3E0FF2EF02DC70162E471E0E1
:1003A0000E94201060910603C70170E04AE050E00F
:1003B0000E94FE0F60910503C70170E04AE050E023
:1003C0000E94FE0F6091B002C70170E04AE050E069
:1003D0000E94FE0F01C002C080E090E0E1960FB6DF
:1003E000F894DEBF0FBECDBFDF91CF911F91FF907C
:1003F000EF9008950F931F93CF93DF93CDB7DEB7A0
:100400002E970FB6F894DEBF0FBECDBFCE01089673
:100410006BE571E00E94181107EC13E00EC062E07A
:1004200070E080E090E00E94990AC8010E94D70D18
:10043000682FCE0108960E94D210C8010E94A60D16
:10044000009769F7CE010196BE01685F7F4F0E9459
:100450004911CE0101960E94CB00CE0101960E9467
:10046000541188E00E94420C009771F480910603B9
:10047000882351F487EC93E06AE171E00E94201038
:1004800081E0809306032CC080910603882321F02D
:10049000813009F09CC224C08091FF02882349F476
:1004A00089E060E00E94EE0B8AE060E00E94EE0BC3
:1004B0008EC2813049F489E061E00E94EE0B8AE04F
:1004C00060E00E94EE0B83C2823009F080C289E0B6
:1004D00060E00E94EE0B8AE061E00E94EE0B77C2C2
:1004E00089E060E00E94EE0B8AE060E00E94EE0B83
:1004F0001092FF0280910503882321F0813009F0DA
:1005000066C236C18091B002882321F0813009F0A3
:100510005EC236C08091AF02882371F00E948B0AC0
:10052000DC01CB018093D7029093D802A093D9022B
:10053000B093DA021092AF020E948B0AAB01BC01A9
:100540008091D7029091D802A091D902B091DA029D
:10055000481B590B6A0B7B0B8091D3029091D402FC
:10056000A091D502B091D602481759076A077B07B8
:1005700008F42DC281E08093B0028093AF0227C2BD
:100580008091D202813031F1813020F0823009F047
:100590001EC299C0E091F702F091F802EE0FFF1F22
:1005A000E954FD4F80E093E061E040810E94E20663
:1005B00081E08093D20284EF91E0A0E0B0E08093EC
:1005C000D3029093D402A093D502B093D602109296
:1005D000B002FDC10091EF021091F0028EE00E9486
:1005E0002D0BF801EE0FFF1FEF50FD4F282F392F75
:1005F000332314F42D5F3F4F359527953595279577
:10060000318320832091EF023091F002F901EE0F47
:10061000FF1FEF50FD4F808191814091DB0250918F
:10062000DC02840F951F9093DC028093DB022F5F26
:100630003F4F3093F0022093EF0244E650E060E039
:1006400070E04093D3025093D4026093D50270932C
:10065000D6021092B0022330310508F4B8C11092CE
:10066000D2021092F0021092EF022091F702309124
:10067000F802F901EE0FFF1FE750FD4F63E070E055
:100680000E947213718360831092DC021092DB026D
:100690002330310588F082E08093D20281E080939C
:1006A000B0021092F8021092F70280E093E061E04D
:1006B00040E00E94E2068BC12F5F3F4F3093F8026B
:1006C0002093F70284C12091FB023091FC028091BB
:1006D000F9029091FA022817390759F0A901481B2D
:1006E000590B5093DE024093DD024C33510578F4F0
:1006F00004C01092DE021092DD0281E08093FF02BE
:1007000087EC93E06AE271E00E94201021C04091E2
:10071000FD025091FE02241B350B2531310578F086
:10072000481B590B4531510550F082E08093FF0280
:1007300087EC93E06FE271E00E94201009C081E035
:100740008093FF0287EC93E06AE271E00E94201040
:100750001092D2021092D3021092D4021092D502BB
:100760001092D60281E08093B002109206032FC14E
:100770008091B002882321F0813009F028C136C071
:100780008091AF02882371F00E948B0ADC01CB01BB
:100790008093D7029093D802A093D902B093DA0243
:1007A0001092AF020E948B0AAB01BC018091D7026C
:1007B0009091D802A091D902B091DA02481B590B4E
:1007C0006A0B7B0B8091D3029091D402A091D50249
:1007D000B091D602481759076A077B0708F4F7C09B
:1007E00081E08093B0028093AF02F1C08091D20289
:1007F000813029F1813020F0823009F0E8C093C0C7
:10080000E091E702F091E802EE0FFF1FEF54FD4F79
:100810006081718183E00E944F0B81E08093D2025E
:1008200084EF91E0A0E0B0E08093D3029093D402F3
:10083000A093D502B093D6021092B002C8C0009126
:10084000DF021091E00280E093E061E00E9429075E
:1008500021EE32E0F801EE0FFF1FE20FF31F80835D
:1008600011824091DF025091E002CA01880F991F66
:10087000280F391FF901808191812091DB0230918D
:10088000DC02820F931F9093DC028093DB024F5FA8
:100890005F4F5093E0024093DF0204E610E020E057
:1008A00030E00093D3021093D4022093D50230930A
:1008B000D6021092B0024330510508F488C010925D
:1008C000D2021092E0021092DF022091E7023091F2
:1008D000E802F901EE0FFF1FE751FD4F63E070E002
:1008E0000E947213718360831092DC021092DB020B
:1008F0002330310588F082E08093D20281E080933A
:10090000B0021092E8021092E70280E093E061E00A
:1009100040E00E94E2065BC02F5F3F4F3093E80249
:100920002093E70254C02091EB023091EC028091B9
:10093000E9029091EA022817390759F0A901481BEA
:10094000590B5093DE024093DD024B34510578F48D
:1009500004C01092DE021092DD0281E08093FF025B
:1009600087EC93E06AE271E00E94201021C0409180
:10097000ED025091EE02241B350B2531310578F044
:10098000481B590B4531510550F082E08093FF021E
:1009900087EC93E06FE271E00E94201009C087ECC1
:1009A00093E06AE271E00E94201081E08093FF02F0
:1009B0001092D2021092D3021092D4021092D50259
:1009C0001092D60281E08093B00210920603CE010D
:1009D00008960E9454112E960FB6F894DEBF0FBEF3
:1009E000CDBFDF91CF911F910F91089580E093E0EB
:1009F00060E04DE00E9467060895CF93DF93CFE05B
:100A0000D3E0CE010E945107CE0160E00E94710741
:100A1000CE0161E00E946707CE0168EE73E00E949C
:100A20006207DF91CF910895FC01838161E00E940C
:100A3000EE0B0895FC01838160E00E94EE0B0895A7
:100A4000CF92DF92EF92FF920F931F93CF93DF939A
:100A5000EC01162FD42EC22E0E9414050F2EFFE09B
:100A6000EF2EF3E0FF2EF02DC701612F4D2D2C2D21
:100A70000E943C0990E090930E0380930D03CE01F9
:100A80000E941A05C7010E947907813009F43FC00E
:100A90008C81882391F10F2EF7ECEF2EF3E0FF2EDF
:100AA000F02DC7016CE571E00E941D10C701612F98
:100AB00040E150E00E948E0FC70167E871E00E949C
:100AC0001D10C7016D2D40E150E00E948E0FC7013F
:100AD00064E971E00E941D10C7016C2D4AE050E0EE
:100AE0000E948E0FC70167EA71E00E941D10C701C6
:100AF000602F4AE050E00E94A00F002351F0015007
:100B0000CE01612F4D2D2C2D0E94200503C081E0C8
:100B100001C080E0DF91CF911F910F91FF90EF9086
:100B2000DF90CF900895CF92DF92EF92FF920F93D4
:100B30001F93CF93DF93EC01162FF42EE22E0E9429
:100B400014058FE093E0612F4F2D2E2D0E94D109C7
:100B500090E090930E0380930D03CE010E941A053E
:100B600080910D0390910E03009729F480910D035D
:100B700090910E0340C08C81882391F10F2EF7ECE9
:100B8000CF2EF3E0DF2EF02DC6016CEB71E00E945A
:100B90001D10C601612F40E150E00E948E0FC6017A
:100BA00067E871E00E941D10C6016F2D40E150E022
:100BB0000E948E0FC60160EE71E00E941D10C601FA
:100BC0006E2D40E150E00E948E0FC60167EA71E091
:100BD0000E941D10C601602F4AE050E00E94A00F45
:100BE000002341F00150CE01612F4F2D2E2D0E9488
:100BF000930501C081E0DF91CF911F910F91FF908C
:100C0000EF90DF90CF900895CF92DF92FF920F93F5
:100C10001F93CF93DF93EC01162F042FF22E0E9427
:100C200014058FE093E0612F402F0E94110A90E09D
:100C300090930E0380930D03CE010E941A058091BC
:100C40000D0390910E03009729F480910D0390916C
:100C50000E0335C08C81882339F10F2EF7ECCF2E8F
:100C6000F3E0DF2EF02DC6016CEB71E00E941D1049
:100C7000C601612F40E150E00E948E0FC60167E877
:100C800071E00E941D10C601602F40E150E00E94FB
:100C90008E0FC60167EA71E00E941D10C6016F2D1C
:100CA0004AE050E00E94A00FFF2041F02F2D21507C
:100CB000CE01612F402F0E94040601C081E0DF9128
:100CC000CF911F910F91FF90DF90CF9008951F93C8
:100CD000CF93DF93EC01162F18822FEF3FEF309365
:100CE0000E0320930D0382E28093070383E2809337
:100CF000080384E28093090385E280930A0386E275
:100D000080930B0387E280930C03442341F04B83D1
:100D1000842F61E00E94AF0BCE010E941A051123BF
:100D200051F087EC93E040E855E260E070E00E940B
:100D30001F0D81E08C83CE010E941405DF91CF91BD
:100D40001F910895E62FF0E0EA5FFC4F808108953F
:100D5000CF93DF93EC010E94A206682FCE0145E2FB
:100D600025E00E940406DF91CF910895CF93DF9391
:100D7000EC010E94A206682FCE0141E225E00E940C
:100D80000406DF91CF9108951F93CF93DF93EC0179
:100D900011E0CE01612F0E94B6061F5F1730C9F720
:100DA000DF91CF911F910895CF93DF93EC010E94C3
:100DB000A206682FCE0140E225E00E940406DF91E2
:100DC000CF9108950F931F93CF93DF93EC01142FCE
:100DD0000E94A206682FCE0142E2212F05E00E9468
:100DE0009305DF91CF911F910F9108951F93CF939A
:100DF000DF93EC0111E0CE01612F0E94D406CE01F9
:100E0000612F40E00E94E206CE01612F0E94A806F9
:100E10001F5F173081F7DF91CF911F910895CF9316
:100E2000DF93EC010E94FD046AE070E080E090E056
:100E30000E94990ACE010E94F6068C81882331F027
:100E400087EC93E06AEE71E00E942010DF91CF9171
:100E50000895EF92FF920F93CF93DF937C010E944E
:100E6000A206682FC70143E221E005E00E942005A9
:100E7000813041F080E00FC0CE010E947C07F70175
:100E8000808302C0CFE0D3E0CE010E94790788239F
:100E900099F7F7018081DF91CF910F91FF90EF904B
:100EA0000895449A459AE9EBF0E080818E7F808333
:100EB00080818D7F808388E48093B80084E4809370
:100EC000BC00089570933203609331030895662344
:100ED00021F488E48093B80008958CE08093B800F2
:100EE0000895662319F0449A459A089544984598C0
:100EF000089580913503089520913503309133038F
:100F0000321B30933403222321F41092340380E007
:100F10000895215020933503830F911DFC01828198
:100F20000895ECEBF0E0108284E480830895CF9282
:100F3000DF92EF92FF920F931F93CF93DF938C0179
:100F40000E948B0A6B017C0184E98093BC00CCEB8E
:100F5000D0E01AC00097E1F00E948B0AAB01BC01FF
:100F60004C195D096E097F0980913103909132031C
:100F7000A0E0B0E0481759076A077B0728F0C801CE
:100F80000E94910781E008C0809131039091320363
:100F9000288124FDDFCF80E0DF91CF911F910F9159
:100FA000FF90EF90DF90CF900895CF92DF92EF9275
:100FB000FF920F931F93CF93DF938C01C62F0E9454
:100FC0008B0A6B017C01CC2321F084EC8093BC0064
:100FD0001EC084E88093BC001AC00097F1F00E9404
:100FE0008B0AAB01BC014C195D096E097F09809128
:100FF000310390913203A0E0B0E0481759076A0727
:101000007B0738F0C8010E949107C1E018C0CCEB03
:10101000D0E0809131039091320328812223ECF6B5
:101020008091B900887F883339F4C091B900C87FB6
:10103000C8010E94910703C0C091B900C87F8C2FDE
:10104000DF91CF911F910F91FF90EF90DF90CF90A4
:101050000895CF92DF92EF92FF920F931F93CF9359
:10106000DF938C016093BB000E948B0A6B017C01B3
:1010700084E88093BC00CCEBD0E01AC00097E1F08C
:101080000E948B0AAB01BC014C195D096E097F09F6
:101090008091310390913203A0E0B0E048175907E6
:1010A0006A077B0728F0C8010E949107C1E01DC0B4
:1010B000809131039091320328812223FCF68091A4
:1010C000B900887F883281F0E9EBF0E0C081C87F09
:1010D0008081887F803321F4C8010E94970705C072
:1010E000C8010E94910701C0C0E08C2FDF91CF9111
:1010F0001F910F91FF90EF90DF90CF900895CF92C6
:10110000DF92EF92FF920F931F93CF93DF938C01A7
:101110006093BB000E948B0A6B017C0184E8809382
:10112000BC00CCEBD0E01AC00097E1F00E948B0A23
:10113000AB01BC014C195D096E097F098091310337
:1011400090913203A0E0B0E0481759076A077B0787
:1011500028F0C8010E949107C1E029C080913103A5
:101160009091320328812223FCF68091B900887F78
:101170008831D1F08091B900887F8034B9F0E9EBF3
:10118000F0E0C081C87F8081887F803229F0809123
:10119000B900887F883421F4C8010E94970707C0EE
:1011A000C8010E94910703C0C0E001C0C0E08C2FBD
:1011B000DF91CF911F910F91FF90EF90DF90CF9033
:1011C0000895CF92DF92EF92FF920F931F93CF93E8
:1011D000DF938C010E948B0A6B017C0184EA80936F
:1011E000BC00CCEBD0E01AC00097E1F00E948B0A63
:1011F000AB01BC014C195D096E097F098091310377
:1012000090913203A0E0B0E0481759076A077B07C6
:1012100028F0C8010E949107C1E024C080913103E9
:101220009091320328812223FCF68091B900887FB7
:101230008830A9F08091B900887F803191F0809149
:10124000B900887F883339F4C091B900C87FC801DC
:101250000E94910707C0C091B900C87F03C0C0E0D9
:1012600001C0C0E08C2FDF91CF911F910F91FF90B3
:10127000EF90DF90CF900895CF92DF92EF92FF92A0
:101280000F931F93CF93DF93EC01062FF42E122FB1
:101290001092350310923403222309F411E0812FB8
:1012A000815089831882CE010E94E10888838823B7
:1012B00009F06EC0000FCE01602F0E947F08888366
:1012C000882329F0813009F063C082E061C0CE013B
:1012D0006F2D0E9429088883882329F0813009F026
:1012E00057C083E055C0CE010E94E108888388235F
:1012F00029F0813009F04CC084E04AC0602F6F5F54
:10130000CE010E947F088883882319F4112329F4D1
:1013100032C08130E9F585E03BC0EE24FF246894BB
:10132000E1F8EC0EFD1E00E00F2EFBEBCF2EDD24CE
:10133000F02D8981801751F4CE0160E00E94D5071D
:101340008883813011F1883551F022C0CE0161E0EF
:101350000E94D50788838130D1F08035C9F4F60129
:101360008081F70181937F010F5F00933503009324
:1013700033030117F1F6CE010E9497078883882373
:1013800039F0813029F487E003C086E001C086E0AF
:10139000DF91CF911F910F91FF90EF90DF90CF9051
:1013A0000895FF920F931F93CF93DF93EC01162FB5
:1013B000042FF22E18820E94E1088883882359F5B1
:1013C000612F660FCE010E947F088883882321F059
:1013D000813009F582E01FC0CE01602F0E942908EC
:1013E0008883882321F08130B1F483E014C0CE01DA
:1013F0006F2D0E9429088883882321F0813059F4B9
:1014000083E009C0CE010E9497078883882319F0E2
:10141000813009F487E0DF91CF911F910F91FF9008
:1014200008950F931F93CF93DF93EC01162F042F92
:1014300018820E94E1088883882301F5612F660FD6
:10144000CE010E947F088883882321F08130B1F487
:1014500082E014C0CE01602F0E942908888388236F
:1014600021F0813059F483E009C0CE010E94970732
:101470008883882319F0813009F487E0DF91CF91C8
:101480001F910F9108951F920F920FB60F92112482
:101490002F933F938F939F93AF93BF9380913A0382
:1014A00090913B03A0913C03B0913D0330913E03EA
:1014B0000196A11DB11D232F2D5F2D3720F02D5733
:1014C0000196A11DB11D20933E0380933A03909392
:1014D0003B03A0933C03B0933D038091360390916E
:1014E0003703A0913803B09139030196A11DB11DB6
:1014F0008093360390933703A0933803B093390356
:10150000BF91AF919F918F913F912F910F900FBEFF
:101510000F901F9018958FB7F89420913A0330914F
:101520003B0340913C0350913D038FBFB901CA0179
:1015300008959B01AC017FB7F89480913603909198
:101540003703A0913803B091390366B5A89B05C055
:101550006F3F19F00196A11DB11D7FBFBA2FA92FB2
:10156000982F8827860F911DA11DB11D62E0880F5D
:10157000991FAA1FBB1F6A95D1F7BC012DC0FFB7E9
:10158000F8948091360390913703A0913803B0917D
:101590003903E6B5A89B05C0EF3F19F00196A11DE0
:1015A000B11DFFBFBA2FA92F982F88278E0F911D2D
:1015B000A11DB11DE2E0880F991FAA1FBB1FEA956C
:1015C000D1F7861B970B885E9340C8F221503040BC
:1015D0004040504068517C4F21153105410551056F
:1015E00071F60895789484B5826084BD84B5816075
:1015F00084BD85B5826085BD85B5816085BDEEE61B
:10160000F0E0808181608083E1E8F0E010828081F9
:1016100082608083808181608083E0E8F0E0808167
:1016200081608083E1EBF0E0808184608083E0EB87
:10163000F0E0808181608083EAE7F0E0808184606F
:1016400080838081826080838081816080838081CB
:10165000806880831092C1000895982F8E3008F022
:101660009E5097708091BD028295880F880F807C74
:10167000892B80937C0080917A00806480937A002B
:1016800080917A0086FDFCCF20917800409179000E
:10169000942F80E030E0282B392BC90108951F9347
:1016A000CF93DF93182FEB0161E00E94AF0B2097DF
:1016B00009F44AC0CF3FD10509F449C0E12FF0E059
:1016C000E255FF4F84918330C1F0843028F481309B
:1016D00051F08230B1F50CC0863019F1873049F1F4
:1016E000843079F514C084B5806884BDC7BD33C02B
:1016F00084B5806284BDC8BD2EC0809180008068A2
:1017000080938000D0938900C093880024C080918A
:101710008000806280938000D0938B00C0938A0009
:101720001AC08091B00080688093B000C093B3006D
:1017300012C08091B00080628093B000C093B4006A
:101740000AC0C038D1051CF4812F60E002C0812F8F
:1017500061E00E94EE0BDF91CF911F910895CF932E
:10176000DF93482F50E0CA0186569F4FFC01349109
:101770004A575F4FFA018491882369F190E0880FFE
:10178000991FFC01E859FF4FA591B491FC01EE5857
:10179000FF4FC591D491662351F42FB7F8948C91E3
:1017A000932F909589238C93888189230BC0623075
:1017B00061F42FB7F8948C91932F909589238C9393
:1017C0008881832B88832FBF06C09FB7F8948C91A4
:1017D000832B8C939FBFDF91CF910895482F50E0CA
:1017E000CA0182559F4FFC012491CA0186569F4F22
:1017F000FC0194914A575F4FFA013491332309F465
:1018000040C0222351F1233071F0243028F42130DC
:10181000A1F0223011F514C02630B1F02730C1F00C
:101820002430D9F404C0809180008F7703C0809168
:1018300080008F7D8093800010C084B58F7702C0B8
:1018400084B58F7D84BD09C08091B0008F7703C0BF
:101850008091B0008F7D8093B000E32FF0E0EE0F19
:10186000FF1FEE58FF4FA591B4912FB7F894662350
:1018700021F48C919095892302C08C91892B8C93B3
:101880002FBF0895682F70E0CB0182559F4FFC0158
:101890002491CB0186569F4FFC0144916A577F4F9C
:1018A000FB019491992319F420E030E03CC02223FD
:1018B00051F1233071F0243028F42130A1F022308E
:1018C00011F514C02630B1F02730C1F02430D9F41E
:1018D00004C0809180008F7703C0809180008F7D4D
:1018E0008093800010C084B58F7702C084B58F7D4F
:1018F00084BD09C08091B0008F7703C08091B00093
:101900008F7D8093B000892F90E0880F991F8458B5
:101910009F4FFC01A591B4918C9120E030E084238D
:1019200011F021E030E0C901089508951F920F924F
:101930000FB60F9211242F933F934F938F939F9342
:10194000EF93FF938091C00082FD1DC04091C600BF
:1019500020917F03309180032F5F3F4F2F733070B2
:1019600080918103909182032817390771F0E091EB
:101970007F03F0918003E15CFC4F40833093800350
:1019800020937F0302C08091C600FF91EF919F9149
:101990008F914F913F912F910F900FBE0F901F90FD
:1019A0001895E091D303F091D403E05CFF4F81914F
:1019B000919120813181821B930B8F739070892BC1
:1019C00011F00E94950C08951F920F920FB60F927E
:1019D00011242F933F938F939F93EF93FF93209125
:1019E000C3033091C4038091C5039091C6032817A7
:1019F000390731F48091C1008F7D8093C10014C0FC
:101A0000E091C503F091C603ED57FC4F2081809112
:101A1000C5039091C60301968F7390709093C6038F
:101A20008093C5032093C600FF91EF919F918F9102
:101A30003F912F910F900FBE0F901F901895AF926E
:101A4000BF92DF92EF92FF920F931F93CF93DF939A
:101A5000EC017A018B01DD24403081EE580780E0F3
:101A6000680780E0780711F0DD24D39491E0A92E77
:101A7000B12CEC89FD89DD2069F0C50108A002C008
:101A8000880F991F0A94E2F7808360E079E08DE384
:101A900090E005C0108260E874E88EE190E0A80153
:101AA00097010E9486132150304040405040569587
:101AB00047953795279580E12030380720F0DD20C5
:101AC00011F0DD24D6CFE889F9893083EA89FB89D2
:101AD000208319A2EE89FF89408121E030E0C9010D
:101AE0000C8C02C0880F991F0A94E2F7482B4083A0
:101AF000EE89FF894081C9010D8C02C0880F991FB2
:101B00000A94E2F7482B4083EE89FF894081C9019E
:101B10000E8C02C0880F991F0A94E2F7482B40836D
:101B2000EE89FF8980810F8C02C0220F331F0A9437
:101B3000E2F7209528232083DF91CF911F910F9109
:101B4000FF90EF90DF90BF90AF900895DC011C965E
:101B5000ED91FC911D97E05CFF4F219131918081C7
:101B60009181281B390B2F733070C9010895DC0156
:101B70001C96ED91FC911D97E05CFF4F2081318117
:101B8000E054F040DF01AE5BBF4F8D919C91119707
:101B90002817390719F42FEF3FEF07C08D919C915B
:101BA000E80FF91F8081282F30E0C9010895DC017A
:101BB0001C96ED91FC911D97E05CFF4F20813181D7
:101BC000E054F040DF01AE5BBF4F8D919C911197C7
:101BD0002817390719F42FEF3FEF10C08D919C9112
:101BE0001197E80FF91F20818D919C911197019613
:101BF0008F73907011969C938E9330E0C901089575
:101C0000DC0191968C919197882339F05496ED914F
:101C1000FC915597808186FFF9CF91961C9208958B
:101C2000CF93DF93EC01EE85FF85E05CFF4F2081D1
:101C30003181E054F0402F5F3F4F2F733070DF0150
:101C4000AE5BBF4F8D919C91119728173907D1F347
:101C5000E05CFF4F80819181E054F040E80FF91F74
:101C60006083EE85FF85E05CFF4F31832083EE8942
:101C7000FF89208181E090E00F8C02C0880F991FBE
:101C80000A94E2F7282B208381E089A3EC89FD895F
:101C900080818064808381E090E0DF91CF9108951E
:101CA0001092CA031092C90388EE93E0A0E0B0E05E
:101CB0008093CB039093CC03A093CD03B093CE033A
:101CC00086EC92E09093C8038093C7038FE393E080
:101CD0009093D4038093D30383E893E09093D60347
:101CE0008093D50385EC90E09093D8038093D7033D
:101CF00084EC90E09093DA038093D90380EC90E039
:101D00009093DC038093DB0381EC90E09093DE03FF
:101D10008093DD0382EC90E09093E0038093DF03F7
:101D200086EC90E09093E2038093E10384E080935B
:101D3000E30383E08093E40387E08093E50385E099
:101D40008093E60381E08093E7030895CF93DF93C8
:101D50000E94F20A0E948D00C1EDDCE00E94FA01AF
:101D60002097E1F30E94D10CF9CFCF92DF92EF924E
:101D7000FF920F931F93CF93DF937C016B018A0136
:101D8000C0E0D0E00FC0D6016D916D01D701ED919B
:101D9000FC910190F081E02DC7010995C80FD91F72
:101DA000015010400115110571F7CE01DF91CF915F
:101DB0001F910F91FF90EF90DF90CF900895EF92D9
:101DC000FF920F931F938C01DC01ED91FC91019028
:101DD000F081E02D6DE009957C01D801ED91FC9139
:101DE0000190F081E02DC8016AE009959C012E0D5B
:101DF0003F1DC9011F910F91FF90EF900895CF9360
:101E0000DF93EC016115710519F420E030E00FC09B
:101E1000DB010D900020E9F71197A61BB70BE881B5
:101E2000F9810280F381E02DAD0109959C01C90182
:101E3000DF91CF9108954F925F927F928F929F9200
:101E4000AF92BF92CF92DF92EF92FF920F931F93C8
:101E5000DF93CF93CDB7DEB7A1970FB6F894DEBF6F
:101E60000FBECDBF2C01742ECB01223008F42AE026
:101E700019A231E2C32ED12CCC0EDD1E822E992464
:101E8000AA24BB24672D752FA50194010E948613F7
:101E900079018A01C801B701A50194010E94531379
:101EA000472D461B0894C108D1084A3014F4405D00
:101EB00001C0495CF6014083E114F10401051105FC
:101EC00021F07E2C5F2DC801DDCFC201B6010E943A
:101ED000FF0EA1960FB6F894DEBF0FBECDBFCF9117
:101EE000DF911F910F91FF90EF90DF90CF90BF9007
:101EF000AF909F908F907F905F904F900895DC01FE
:101F00002115310541F4ED91FC910190F081E02D16
:101F1000642F099508950E941B0F0895EF92FF9278
:101F20000F931F939A01E62EFF2400E010E0B80102
:101F3000A7010E947F0F1F910F91FF90EF900895CE
:101F4000CF92DF92EF92FF920F931F936C01E62ED8
:101F50009A01FF2400E010E0B801A7010E947F0F62
:101F60008C01C6010E94DF0E080F191FC8011F91C6
:101F70000F91FF90EF90DF90CF900895CF92DF9276
:101F8000EF92FF920F931F93CF93DF93EC016A01BF
:101F90007B012115310541F4E881F9810190F0813F
:101FA000E02D642F09951FC02A303105D1F477FF49
:101FB00017C0E881F9810190F081E02D6DE209956B
:101FC0008C0144275527BA014C195D096E097F0918
:101FD000CE012AE00E941B0F9801280F391F04C070
:101FE0002AE00E941B0F9C01C901DF91CF911F9134
:101FF0000F91FF90EF90DF90CF900895CF92DF92F6
:10200000EF92FF920F931F936C017B019A010027BF
:10201000F7FC0095102FB801A7010E94BE0F8C019C
:10202000C6010E94DF0E080F191FC8011F910F91F2
:10203000FF90EF90DF90CF9008950E94FF0E0895DB
:10204000EF92FF920F931F937C010E94FF0E8C0171
:10205000C7010E94DF0E080F191FC8011F910F91C1
:10206000FF90EF900895EF92FF920F931F93CF93FD
:10207000DF93FC01DB018617970739F12481358155
:1020800014968D919C9115972817390701F5232BEC
:10209000E1F0E080F180CD91DC9113C0992787FDBC
:1020A00090950E94AE138C018881992787FD9095A9
:1020B0000E94AE130817190751F40894E11CF11C93
:1020C0002196F7018081882349F781E001C080E0F3
:1020D000DF91CF911F910F91FF90EF9008950F9393
:1020E0001F93CF93DF93EC018B016F5F7F4F88814C
:1020F00099810E947912009711F480E005C09983BC
:1021000088831B830A8381E0DF91CF911F910F9118
:102110000895CF93DF93EC0188819981892B29F071
:102120008A819B818617970760F4CE010E946F1009
:10213000882341F08C819D81892B19F4E881F981F4
:10214000108281E0DF91CF910895EF92FF920F937B
:102150001F93CF93DF93EC017B016C817D81E114B0
:10216000F104C1F04115510599F08A01060F171FBE
:10217000B8010E948910882369F0888199812C8197
:102180003D81820F931FB7010E94BF131D830C83F3
:1021900081E001C080E0DF91CF911F910F91FF900E
:1021A000EF900895DF93CF9300D0CDB7DEB769836A
:1021B0001A82BE016F5F7F4F41E050E00E94A51080
:1021C0000F900F90CF91DF910895CF93DF93EC01A3
:1021D00088819981009711F00E94E111198218827B
:1021E0001D821C821B821A82DF91CF910895EF928B
:1021F000FF920F931F93CF93DF93EC017B018A0132
:10220000BA010E948910882321F4CE010E94E510B2
:1022100007C01D830C8388819981B7010E94BF1379
:10222000CE01DF91CF911F910F91FF90EF90089514
:10223000CF93DF93EC01198218821B821A821D82D0
:102240001C821E826115710551F0DB010D9000208A
:10225000E9F71197A61BB70BAD010E94F710DF91AC
:10226000CF910895CF93DF93EC01FB018617970779
:1022700061F0608171816115710529F0448155819A
:102280000E94F71002C00E94E510CE01DF91CF91AD
:102290000895FC0111821082138212821582148229
:1022A00016820E9432110895FC01808191810E9462
:1022B000E11108950F931F93CF93DF93BC018230F8
:1022C000910510F462E070E0E091E903F091EA0317
:1022D000A0E0B0E040E050E024C08081918186170A
:1022E0009707D0F08617970771F482819381109732
:1022F00029F013969C938E9312972CC09093EA0327
:102300008093E90327C04115510519F084179507FB
:1023100018F4EF018D01AC01DF01828193819C01F2
:10232000F9013097D1F641155105F9F0CA01861B24
:10233000970B8430910580F48A819B8101151105EA
:1023400021F0F8019383828304C09093EA03809381
:10235000E903FE0132962FC0FE01E80FF91F6193D9
:10236000719302979983888326C08DB79EB788574B
:1023700090402091BE023091BF0228173907C8F45F
:10238000AC01421B530B4617570798F0CB0102963E
:102390004817590770F0820F931F9093BF028093E4
:1023A000BE029093C1028093C002F90161937193C0
:1023B00002C0E0E0F0E0CF01DF91CF911F910F91DB
:1023C0000895CF93DF939C01009709F48FC0EC012F
:1023D00022971B821A826091E9037091EA036115CA
:1023E000710581F488819981820F931F2091BE022B
:1023F0003091BF022817390739F5D093BF02C09337
:10240000BE0274C0DB0140E050E0AC17BD0708F12C
:10241000BB83AA83FE0121913191E20FF31FAE1716
:10242000BF0779F48D919C911197280F391F2E5F6A
:102430003F4F3983288312968D919C9113979B83EC
:102440008A834115510571F4D093EA03C093E903DF
:102450004DC012968D919C911397AD01009711F08C
:10246000DC01D3CFDA011396DC93CE931297FA01F5
:1024700021913191E20FF31FCE17DF0769F48881B4
:102480009981280F391F2E5F3F4FFA013183208336
:102490008A819B8193838283E0E0F0E0DB011296E6
:1024A0008D919C911397009719F0BC01FD01F6CF17
:1024B000AB014E5F5F4FDB018D919C91840F951FA7
:1024C0002091BE023091BF022817390779F4309766
:1024D00029F41092EA031092E90302C013821282D7
:1024E000425050405093BF024093BE02DF91CF91C3
:1024F00008956F927F928F929F92AF92BF92CF92E8
:10250000DF92EF92FF920F931F93CF93DF938C0193
:10251000009729F4CB010E945A118C01B4C08EEFB0
:10252000E82E8FEFF82EE00EF11E5801A60EB71E12
:10253000AE14BF0408F4A5C0D7014D915C9111976A
:1025400046175707B8F04530510508F49CC0CA013A
:1025500004978617970708F496C042505040461BD0
:10256000570BF501419351936D937C93CF010E94DA
:10257000E11189C04B01841A950A3801640E751E59
:10258000A091E903B091EA03CC24DD24E0E0F0E07F
:1025900047C0A615B705A9F5CD91DC911197CE01DD
:1025A00002968815990568F1CE0188199909029655
:1025B00012962C91129713963C91059758F0F501BD
:1025C00022833383C819D909D183C083D7016D937E
:1025D0007C9309C04E5F5F4F4C0F5D1FF701518325
:1025E0004083C901FC01C114D10431F0D601139616
:1025F000FC93EE93129747C0F093EA03E093E9034C
:1026000042C08D919C911197E817F90708F4FC01DD
:102610006D0112968C91129713969C919C01D90191
:10262000109709F0B6CF8091BE029091BF02861537
:102630009705B1F4E617F70798F48DB79EB788575A
:102640009040A816B906E8F4B092BF02A092BE026C
:10265000B092C102A092C002F7017183608313C0DF
:10266000CB010E945A11EC01009759F0D7014D910E
:102670005C91B8010E94B613C8010E94E1118E015D
:1026800002C000E010E0C801DF91CF911F910F91CF
:10269000FF90EF90DF90CF90BF90AF909F908F9082
:1026A0007F906F900895629FD001739FF001829F89
:1026B000E00DF11D649FE00DF11D929FF00D839FD1
:1026C000F00D749FF00D659FF00D9927729FB00D6E
:1026D000E11DF91F639FB00DE11DF91FBD01CF0181
:1026E00011240895AA1BBB1B51E107C0AA1FBB1FE1
:1026F000A617B70710F0A61BB70B881F991F5A958E
:10270000A9F780959095BC01CD010895A1E21A2EFC
:10271000AA1BBB1BFD010DC0AA1FBB1FEE1FFF1F85
:10272000A217B307E407F50720F0A21BB30BE40BD5
:10273000F50B661F771F881F991F1A9469F760951C
:102740007095809590959B01AC01BD01CF010895D6
:10275000EE0FFF1F0590F491E02D0994911108955B
:1027600081548A5108F4805E855A0895FB01DC018A
:1027700002C001900D9241505040D8F70895FB01DE
:10278000DC0101900D920020E1F70895F894FFCF4D
:102790006030303031005244590049004330005716
:1027A0004F524B494E4700433100474F0045535469
:1027B0004F5000524553554C54004641494C00502F
:1027C00041535300554E4B4E4F574E0053544154B6
:1027D000450053746174652C20436F6E6669672CE5
:1027E0002073756253746174653A00004661696CC8
:1027F000656420746F20676574206461746120666D
:10280000726F6D2049324320536C6176652061649C
:1028100064723A2030780020636F6D6D616E643AA7
:102820002030780020627974657320726571756557
:10283000737465643A200020726574726965732050
:1028400072656D61696E696E673A20004661696CF8
:10285000656420746F2073656E64204932432043A1
:102860006F6D6D616E6420616464723A203078002F
:1028700020646174613A20307800437562656C654C
:10288000742D41726475696E6F20496E746572664D
:10289000616365204C6F616465642E202052656120
:1028A00064792E005363616E6E696E6720666F7285
:1028B00020646576696365732E2E2E706C65617376
:1028C00065207761697400546865726520697320BA
:1028D000612070726F626C656D2077697468207416
:1028E0006865206275732C20636F756C64206E6F51
:1028F0007420636F6D706C657465207363616E0026
:10290000466F756E64206465766963652061742026
:1029100061646472657373202D2000203078004E4E
:102920006F206465766963657320666F756E6400F9
:102930006E616E00696E66006F7666002E000001A3
:10294000010000FF0001000000FF00640001EB0334
:10295000640000000000100EB50EA60DD70DB70DD7
:02296000000E67
:00000001FF
