:1000000009C021C020C01FC01EC01DC01CC01BC015
:100010004AC033C011241FBECFE9CDBF10E0A0E617
:10002000B0E0E8E1F2E002C005900D92AA36B10717
:10003000D9F720E0AAE6B0E001C01D92AD36B207C4
:10004000E1F719D0E7C0DCCF80E886BD16BCBC98CC
:10005000C49882E287B98FEE86B9B99A8FB5836367
:100060008FBD8FEF89BD83B7816083BF81B5806409
:1000700081BD78940895E8DFFFCF1F920F920FB6ED
:100080000F9211248F939F9395B180916C008917E3
:1000900018F485B180936C009F918F910F900FBEE3
:1000A0000F901F9018951F920F920FB60F92112468
:1000B0002F933F934F935F936F937F938F939F9370
:1000C000AF93BF93EF93FF9320916C0010926C005D
:1000D000203108F443C0243B08F073C0822F90E025
:1000E0008E319105D8F08035910560F08238910508
:1000F00078F0843B9105A0F543E064EB70E0E3E029
:10010000F0E011C041E060E570E0E1E0F0E00BC03C
:1001100042E062E870E0E2E0F0E005C06EE170E02D
:10012000E0E0F0E040E0EE0FFF1FE05AFF4F3081CB
:10013000231B822F90E0002496958795079496952F
:1001400087950794982F802D631B70E04FD0842FE4
:100150008295880F880F807C680F03C060E001C023
:1001600060E080916A00681728F060936A0086E07A
:1001700080936B0080916B00811116C020916A0002
:1001800040916A0030E0C90182959295907F98274E
:10019000807F9827821B930B6FEF70E027D06095CC
:1001A000460F40936A0005C080916B008150809398
:1001B0006B0080916A00809589BD81B5806481BDA6
:1001C00004C080916A006FEFD0CFFF91EF91BF9193
:1001D000AF919F918F917F916F915F914F913F91DF
:1001E0002F910F900FBE0F901F901895AA1BBB1B4D
:1001F00051E107C0AA1FBB1FA617B70710F0A61B27
:10020000B70B881F991F5A95A9F780959095BC0147
:08021000CD010895F894FFCF21
:0A0218000F001E0050008200B40029
:00000001FF
