:1000000009C021C020C01FC01EC01DC01CC01BC015
:1000100085C034C011241FBECFE9CDBF10E0A0E6DB
:10002000B0E0ECEFF1E002C005900D92A036B10710
:10003000D9F710E0A0E6B0E001C01D92AB36B107E1
:10004000E1F71AD0D9C0DCCF80E886BD16BCBC98D9
:10005000BB9AC49882E287B98FEE86B9B99A8FB5F8
:1000600083638FBD8FEF89BD83B7816083BF81B507
:10007000806481BD78940895E7DFFFCF1F920F92CF
:100080000FB60F9211242F938F939F9385B1809376
:100090006100209161008091630090916400820F63
:1000A000911D9093640080936300809165008F5F41
:1000B000809365009091610080916600891720F41B
:1000C0008091610080936600809165008823F1F43F
:1000D0008091680080936900809163009091640032
:1000E00090936800809166008A3B50F080916A008E
:1000F000813019F48093600003C081E080936A002E
:100100001092640010926300109266009F918F918C
:100110002F910F900FBE0F901F9018951F920F9266
:100120000FB60F9211242F933F938F939F9380913B
:100130006A008130F1F480916700882309F419BCCA
:10014000809167008F5F80936700809167008530A2
:1001500009F046C080916000882319F410926A006B
:1001600003C081E080936A001092600010926700E3
:1001700037C0809168008A3030F0809168008950E3
:100180008093680002C010926800809168008032FD
:1001900038F480916800880F880F880F8093620080
:1001A00080916200873E18F086EE80936200909105
:1001B000620089B52FEF30E0291B310990E0281744
:1001C00039072CF480916200809589BD09C089B5FA
:1001D0008C3F20F489B58C5F89BD02C08FEF89BD4B
:1001E00081B5806481BD9F918F913F912F910F9038
:0C01F0000FBE0F901F901895F894FFCFE1
:00000001FF
