S01800004641524B555320666C6173682073696D2E73726563A9
S11300000C9463000C948B000C948B000C948B0068
S11300100C948B000C948B000C948B000C948B0030
S11300200C948B000C948B000C948B000C948B0020
S11300300C948B000C948B000C948B000C948B0010
S11300400C94F3050C948B000C9471070C94BF076B
S11300500C948B000C948B000C948B000C948B00F0
S11300600C948B000C948B000000000024002700EB
S11300702A0000000000250028002B0000000000DA
S113008023002600290004040404040404040202D6
S11300900202020203030303030301020408102003
S11300A0408001020408102001020408102000000E
S11300B00007000201000003040600000000000025
S11300C00000FB032B0911241FBECFEFD8E0DEBFD5
S11300D0CDBF12E0A0E0B1E0EEE1FDE102C0059089
S11300E00D92A43CB107D9F713E0A4ECB2E001C02F
S11300F01D92AD3AB107E1F710E0C6ECD0E004C0C0
S11301002297FE010E94710EC23CD107C9F70E94DA
S113011081090C948D0E0C940000CF93DF93C4EDF1
S1130120D2E0CE010E940204CE0160E00E942204CB
S1130130CE0161E00E941804CE0168EE73E00E94D3
S11301401304DF91CF910895FC01838161E00E9443
S11301501C070895FC01838160E00E941C07089538
S1130160CF92DF92EF92FF920F931F93CF93DF937F
S1130170EC01162FF42EE22E0E94A40084ED92E0EE
S1130180612F4F2D2E2D0E94810590E09093CC027B
S11301908093CB02CE010E94AA008091CB02909161
S11301A0CC02009729F48091CB029091CC0240C0FC
S11301B08C81882391F10F2EF9E8CF2EF3E0DF2E06
S11301C0F02DC60160E671E00E94F80AC601612FB5
S11301D040E150E00E94690AC6016BE271E00E94AE
S11301E0F80AC6016F2D40E150E00E94690AC60179
S11301F064E871E00E94F80AC6016E2D40E150E007
S11302000E94690AC6016BE471E00E94F80AC60103
S1130210602F4AE050E00E947B0A002341F0015025
S1130220CE01612F4F2D2E2D0E94B00001C081E020
S1130230DF91CF911F910F91FF90EF90DF90CF90BE
S11302400895CF92DF92FF920F931F93CF93DF9382
S1130250EC01162F042FF22E0E94A40084ED92E0EC
S1130260612F402F0E94C10590E09093CC028093AF
S1130270CB02CE010E94AA008091CB029091CC02C5
S1130280009729F48091CB029091CC0235C08C81E7
S1130290882339F10F2EF9E8CF2EF3E0DF2EF02D6D
S11302A0C60160E671E00E94F80AC601612F40E1D0
S11302B050E00E94690AC6016BE271E00E94F80AEC
S11302C0C601602F40E150E00E94690AC6016BE458
S11302D071E00E94F80AC6016F2D4AE050E00E94C6
S11302E07B0AFF2041F02F2D2150CE01612F402F9A
S11302F00E94210101C081E0DF91CF911F910F91F4
S1130300FF90DF90CF9008951F93CF93DF93EC017C
S1130310162F18822FEF3FEF3093CC022093CB029D
S113032082E28093C40283E28093C50284E28093D4
S1130330C60285E28093C70286E28093C80287E200
S11303408093C90288E28093CA02442341F04B831C
S1130350842F61E00E94DD06CE010E94AA001123D1
S113036051F089E893E040E855E260E070E00E94D3
S1130370FA0781E08C83CE010E94A400DF91CF9123
S11303801F910895E62FF0E0ED53FD4F808108950D
S1130390CF93DF93EC010E94C201682FCE0145E2A6
S11303A025E00E942101DF91CF910895CF93DF933F
S11303B0EC010E94C201682FCE0141E225E00E94B7
S11303C02101DF91CF910895CF93DF93EC010E9437
S11303D0C201682FCE0140E225E00E942101DF9195
S11303E0CF9108950F931F93CF93DF93EC01142FB4
S11303F00E94C201682FCE0142E2212F05E00E9433
S1130400B000DF91CF911F910F9108951F93CF9367
S1130410DF93EC0111E0CE01612F0E94E401CE01D3
S1130420612F40E00E94F201CE01612F0E94C801B9
S11304301F5F173081F7DF91CF911F910895CF93FC
S1130440DF93EC010E948D006AE070E080E090E0B0
S11304500E944906CE010E9406028C81882331F055
S113046089E893E06EE871E00E94FB0ADF91CF9186
S11304700895CF93DF93C9E8D3E0CE0140E855E275
S113048060E070E00E94FA07CE0168EB71E00E9420
S1130490FB0A87E061E00E94DD0689E060E00E94DB
S11304A0DD0688E060E00E94DD068CE060E00E94EA
S11304B01C078BE061E00E941C078AE061E00E9457
S11304C01C078DEC92E00E941F0264EF71E080E053
S11304D090E00E944906CE016EEB71E00E94FB0A97
S11304E0DF91CF9108950F931F93CF93DF93C7E4C8
S11304F0D0E00DEC12E0C80166E00E94E40164E67D
S113050070E080E090E00E944906C80166E00E9425
S1130510D60164E670E080E090E00E9449062197ED
S113052051F71092D302DF91CF911F910F9108954B
S1130530EF92FF921F93CF93DF93CDB7DEB7E1978E
S11305400FB6F894DEBF0FBECDBF7C01CE018B96F3
S113055062EC71E00E94F30BC701BE01655D7F4F41
S11305600E940E0B182FCE018B960E942F0C112384
S113057039F089E893E068EB71E00E94FB0AE3C07C
S1130580CE01849664EC71E00E94F30BC701BE01B6
S11305906C5D7F4F0E940E0B182FCE0184960E9433
S11305A02F0C112391F08091D302813039F489E822
S11305B093E067EC71E00E94FB0AC5C089E893E010
S11305C064EC71E00E94FB0ABEC0CE014D966FEC54
S11305D071E00E94F30BC701BE01635E7F4F0E946E
S11305E00E0B182FCE014D960E942F0C112391F063
S11305F08091D302813039F489E893E067EC71E0AB
S11306000E94FB0AA0C089E893E06FEC71E00E94AD
S1130610FB0A99C0CE01469662ED71E00E94F30B8D
S1130620C701BE016A5E7F4F0E940E0B182FCE01D8
S113063046960E942F0C1123B9F08091D302813089
S113064039F489E893E067EC71E00E94FB0A7BC00F
S113065089E893E062ED71E00E94FB0A81E08093F7
S1130660D3020E9473026FC0CE010F9665ED71E054
S11306700E94F30BC701BE01615F7F4F0E940E0B06
S1130680182FCE010F960E942F0C112339F089E800
S113069093E065ED71E00E94FB0A55C0CE01089617
S11306A06BED71E00E94F30BC701BE01685F7F4FE1
S11306B00E940E0B182FCE0108960E942F0C1123B6
S11306C0D1F08091D202813039F489E893E062EE6E
S11306D071E00E94FB0A0FC0823039F489E893E08C
S11306E067EE71E00E94FB0A06C089E893E06CEEB5
S11306F071E00E94FB0ACE01019664EF71E00E9452
S1130700F30BC701BE016F5F7F4F0E940E0B182FC2
S1130710CE0101960E942F0C1123A1F00F2EF9E8AF
S1130720EF2EF3E0FF2EF02DC7016AEF71E00E9477
S1130730FB0A6091D302C70170E04AE050E00E94D6
S1130740D90A01C002C080E090E0E1960FB6F894A7
S1130750DEBF0FBECDBFDF91CF911F91FF90EF9011
S113076008950F931F93CF93DF93CDB7DEB72E97E2
S11307700FB6F894DEBF0FBECDBF87E061E00E94E4
S11307801C07CE01089663E172E00E94F30B09E8AE
S113079013E00EC062E070E080E090E00E94490641
S11307A0C8010E94B208682FCE0108960E94AD0BC2
S11307B0C8010E948108009769F7CE010196BE0125
S11307C0685F7F4F0E94240CCE0101960E9498021C
S11307D0CE0101960E942F0CCE0108960E942F0C88
S11307E02E960FB6F894DEBF0FBECDBFDF91CF912A
S11307F01F910F9108958DEC92E060E04DE00E940E
S113080084010895449A459AE9EBF0E080818E7F53
S1130810808380818D7F808388E48093B80084E422
S11308208093BC0008957093F7026093F6020895D4
S1130830662321F488E48093B80008958CE08093C3
S1130840B8000895662319F0449A459A0895449887
S113085045980895ECEBF0E0108284E480830895D9
S1130860CF92DF92EF92FF920F931F93CF93DF9378
S11308708C010E943B066B017C0184E98093BC00DF
S1130880CCEBD0E01AC00097E1F00E943B06AB012C
S1130890BC014C195D096E097F098091F6029091A3
S11308A0F702A0E0B0E0481759076A077B0728F071
S11308B0C8010E942A0481E008C08091F602909148
S11308C0F702288124FDDFCF80E0DF91CF911F91D3
S11308D00F91FF90EF90DF90CF900895CF92DF9229
S11308E0EF92FF920F931F93CF93DF938C0160934A
S11308F0BB000E943B066B017C0184E88093BC0032
S1130900CCEBD0E01AC00097E1F00E943B06AB01AB
S1130910BC014C195D096E097F098091F602909122
S1130920F702A0E0B0E0481759076A077B0728F0F0
S1130930C8010E942A04C1E01DC08091F602909172
S1130940F70228812223FCF68091B900887F88323F
S113095081F0E9EBF0E0C081C87F8081887F80333B
S113096021F4C8010E94300405C0C8010E942A0471
S113097001C0C0E08C2FDF91CF911F910F91FF90A8
S1130980EF90DF90CF900895CF92DF92EF92FF9295
S11309900F931F93CF93DF938C016093BB000E944E
S11309A03B066B017C0184E88093BC00CCEBD0E077
S11309B01AC00097E1F00E943B06AB01BC014C1940
S11309C05D096E097F098091F6029091F702A0E01B
S11309D0B0E0481759076A077B0728F0C8010E944E
S11309E02A04C1E029C08091F6029091F70228817F
S11309F02223FCF68091B900887F8831D1F0809160
S1130A00B900887F8034B9F0E9EBF0E0C081C87F99
S1130A108081887F803229F08091B900887F883472
S1130A2021F4C8010E94300407C0C8010E942A04AE
S1130A3003C0C0E001C0C0E08C2FDF91CF911F91B3
S1130A400F91FF90EF90DF90CF900895CF92DF92B7
S1130A50EF92FF920F931F93CF93DF938C010E9429
S1130A603B066B017C0184EA8093BC00CCEBD0E0B4
S1130A701AC00097E1F00E943B06AB01BC014C197F
S1130A805D096E097F098091F6029091F702A0E05A
S1130A90B0E0481759076A077B0728F0C8010E948D
S1130AA02A04C1E024C08091F6029091F7022881C3
S1130AB02223FCF68091B900887F8830A9F08091C8
S1130AC0B900887F803191F08091B900887F8833A4
S1130AD039F4C091B900C87FC8010E942A0407C034
S1130AE0C091B900C87F03C0C0E001C0C0E08C2F32
S1130AF0DF91CF911F910F91FF90EF90DF90CF90F6
S1130B000895FF920F931F93CF93DF93EC01162F59
S1130B10042FF22E18820E9426058883882359F513
S1130B20612F660FCE010E94C4048883882321F0BC
S1130B30813009F582E01FC0CE01602F0E946E044F
S1130B408883882321F08130B1F483E014C0CE017E
S1130B506F2D0E946E048883882321F0813059F41C
S1130B6083E009C0CE010E9430048883882319F0F1
S1130B70813009F487E0DF91CF911F910F91FF90AD
S1130B8008950F931F93CF93DF93EC01162F042F37
S1130B9018820E9426058883882301F5612F660F39
S1130BA0CE010E94C4048883882321F08130B1F4EB
S1130BB082E014C0CE01602F0E946E0488838823D3
S1130BC021F0813059F483E009C0CE010E94300441
S1130BD08883882319F0813009F487E0DF91CF916D
S1130BE01F910F9108951F920F920FB60F92112427
S1130BF02F933F938F939F93AF93BF938091FC0266
S1130C009091FD02A091FE02B091FF023091000389
S1130C100196A11DB11D232F2D5F2D3720F02D57D7
S1130C200196A11DB11D209300038093FC029093B3
S1130C30FD02A093FE02B093FF028091F80290910E
S1130C40F902A091FA02B091FB020196A11DB11D17
S1130C508093F8029093F902A093FA02B093FB02F6
S1130C60BF91AF919F918F913F912F910F900FBEA4
S1130C700F901F9018958FB7F8942091FC02309133
S1130C80FD024091FE025091FF028FBFB901CA01DB
S1130C9008959B01AC017FB7F8948091F80290917C
S1130CA0F902A091FA02B091FB0266B5A89B05C0B7
S1130CB06F3F19F00196A11DB11D7FBFBA2FA92F57
S1130CC0982F8827860F911DA11DB11D62E0880F02
S1130CD0991FAA1FBB1F6A95D1F7BC012DC0FFB78E
S1130CE0F8948091F8029091F902A091FA02B091DF
S1130CF0FB02E6B5A89B05C0EF3F19F00196A11DC4
S1130D00B11DFFBFBA2FA92F982F88278E0F911DD1
S1130D10A11DB11DE2E0880F991FAA1FBB1FEA9510
S1130D20D1F7861B970B885E9340C8F22150304060
S1130D304040504068517C4F211531054105510513
S1130D4071F60895789484B5826084BD84B5816019
S1130D5084BD85B5826085BD85B5816085BDEEE6BF
S1130D60F0E0808181608083E1E8F0E0108280819E
S1130D7082608083808181608083E0E8F0E080810C
S1130D8081608083E1EBF0E0808184608083E0EB2C
S1130D90F0E0808181608083EAE7F0E08081846014
S1130DA08083808182608083808181608083808170
S1130DB0806880831092C1000895CF93DF93482FF9
S1130DC050E0CA0186569F4FFC0134914A575F4F49
S1130DD0FA018491882369F190E0880F991FFC013E
S1130DE0E859FF4FA591B491FC01EE58FF4FC5910E
S1130DF0D491662351F42FB7F8948C91932F909546
S1130E0089238C93888189230BC0623061F42FB7C6
S1130E10F8948C91932F909589238C938881832BBC
S1130E2088832FBF06C09FB7F8948C91832B8C9333
S1130E309FBFDF91CF910895482F50E0CA0182559A
S1130E409F4FFC012491CA0186569F4FFC01949147
S1130E504A575F4FFA013491332309F440C02223E7
S1130E6051F1233071F0243028F42130A1F02230E4
S1130E7011F514C02630B1F02730C1F02430D9F474
S1130E8004C0809180008F7703C0809180008F7DA3
S1130E908093800010C084B58F7702C084B58F7DA5
S1130EA084BD09C08091B0008F7703C08091B000E9
S1130EB08F7D8093B000E32FF0E0EE0FFF1FEE581C
S1130EC0FF4FA591B4912FB7F894662321F48C9128
S1130ED09095892302C08C91892B8C932FBF089500
S1130EE008951F920F920FB60F9211242F933F93E0
S1130EF04F938F939F93EF93FF938091C00082FD54
S1130F001DC04091C60020914103309142032F5FE0
S1130F103F4F2F73307080914303909144032817FF
S1130F20390771F0E0914103F0914203EF5FFC4F08
S1130F304083309342032093410302C08091C60052
S1130F40FF91EF919F918F914F913F912F910F902E
S1130F500FBE0F901F901895E0919503F0919603A2
S1130F60E05CFF4F8191919120813181821B930B31
S1130F708F739070892B11F00E94700708951F924F
S1130F800F920FB60F9211242F933F938F939F9339
S1130F90EF93FF932091850330918603809187031B
S1130FA0909188032817390731F48091C1008F7D0F
S1130FB08093C10014C0E0918703F0918803EB5B38
S1130FC0FC4F2081809187039091880301968F7351
S1130FD0907090938803809387032093C600FF91B9
S1130FE0EF919F918F913F912F910F900FBE0F9092
S1130FF01F901895AF92BF92DF92EF92FF920F93DA
S11310001F93CF93DF93EC017A018B01DD244030F1
S113101081EE580780E0680780E0780711F0DD244E
S1131020D39491E0A92EB12CEC89FD89DD2069F0DF
S1131030C50108A002C0880F991F0A94E2F78083B3
S113104060E079E08DE390E005C0108260E874E828
S11310508EE190E0A80197010E944D0E215030408E
S113106040405040569547953795279580E120306C
S1131070380720F0DD2011F0DD24D6CFE889F98986
S11310803083EA89FB89208319A2EE89FF89408194
S113109021E030E0C9010C8C02C0880F991F0A942A
S11310A0E2F7482B4083EE89FF894081C9010D8C0A
S11310B002C0880F991F0A94E2F7482B4083EE89F7
S11310C0FF894081C9010E8C02C0880F991F0A94C0
S11310D0E2F7482B4083EE89FF8980810F8C02C0A0
S11310E0220F331F0A94E2F7209528232083DF91EF
S11310F0CF911F910F91FF90EF90DF90BF90AF9031
S11311000895DC011C96ED91FC911D97E05CFF4F66
S11311102191319180819181281B390B2F7330707B
S1131120C9010895DC011C96ED91FC911D97E05CCA
S1131130FF4F20813181E054F040DF01AE5BBF4FAF
S11311408D919C9111972817390719F42FEF3FEFD0
S113115007C08D919C91E80FF91F8081282F30E002
S1131160C9010895DC011C96ED91FC911D97E05C8A
S1131170FF4F20813181E054F040DF01AE5BBF4F6F
S11311808D919C9111972817390719F42FEF3FEF90
S113119010C08D919C911197E80FF91F20818D91BA
S11311A09C91119701968F73907011969C938E93D6
S11311B030E0C9010895DC0191968C9191978823C0
S11311C039F05496ED91FC915597808186FFF9CFC3
S11311D091961C920895CF93DF93EC01EE85FF85E1
S11311E0E05CFF4F20813181E054F0402F5F3F4F9E
S11311F02F733070DF01AE5BBF4F8D919C911197BF
S113120028173907D1F3E05CFF4F80819181E054C6
S1131210F040E80FF91F6083EE85FF85E05CFF4F27
S113122031832083EE89FF89208181E090E00F8C57
S113123002C0880F991F0A94E2F7282B208381E0CB
S113124089A3EC89FD8980818064808381E090E0BA
S1131250DF91CF91089510928C0310928B0388EE46
S113126093E0A0E0B0E080938D0390938E03A0936D
S11312708F03B093900387EB92E090938A0380935B
S1131280890381E093E0909396038093950385E42A
S113129093E0909398038093970385EC90E0909368
S11312A09A038093990384EC90E090939C03809339
S11312B09B0380EC90E090939E0380939D0381ECCC
S11312C090E09093A00380939F0382EC90E090932E
S11312D0A2038093A10386EC90E09093A4038093EF
S11312E0A30384E08093A50383E08093A60387E0AF
S11312F08093A70385E08093A80381E08093A903EA
S11313000895CF93DF930E94A2060E943902CCEA8B
S1131310D7E00E94B1032097E1F30E94AC07F9CF14
S1131320CF92DF92EF92FF920F931F93CF93DF93AD
S11313307C016B018A01C0E0D0E00FC0D6016D9141
S11313406D01D701ED91FC910190F081E02DC70171
S11313500995C80FD91F015010400115110571F7E7
S1131360CE01DF91CF911F910F91FF90EF90DF900D
S1131370CF900895EF92FF920F931F938C01DC019D
S1131380ED91FC910190F081E02D6DE009957C01D7
S1131390D801ED91FC910190F081E02DC8016AE043
S11313A009959C012E0D3F1DC9011F910F91FF90BE
S11313B0EF900895CF93DF93EC016115710519F453
S11313C020E030E00FC0DB010D900020E9F7119719
S11313D0A61BB70BE881F9810280F381E02DAD01F2
S11313E009959C01C901DF91CF9108954F925F92B5
S11313F07F928F929F92AF92BF92CF92DF92EF92A1
S1131400FF920F931F93DF93CF93CDB7DEB7A197CE
S11314100FB6F894DEBF0FBECDBF2C01742ECB01E6
S1131420223008F42AE019A231E2C32ED12CCC0ECA
S1131430DD1E822E9924AA24BB24672D752FA501B5
S113144094010E944D0E79018A01C801B701A501DA
S113145094010E942E0E472D461B0894C108D10802
S11314604A3014F4405D01C0495CF6014083E11444
S1131470F1040105110521F07E2C5F2DC801DDCF9B
S1131480C201B6010E94DA09A1960FB6F894DEBF34
S11314900FBECDBFCF91DF911F910F91FF90EF90C1
S11314A0DF90CF90BF90AF909F908F907F905F9090
S11314B04F900895DC012115310541F4ED91FC9123
S11314C00190F081E02D642F099508950E94F6099A
S11314D00895EF92FF920F931F939A01E62EFF2433
S11314E000E010E0B801A7010E945A0A1F910F9171
S11314F0FF90EF900895CF92DF92EF92FF920F93B7
S11315001F936C01E62E9A01FF2400E010E0B8015D
S1131510A7010E945A0A8C01C6010E94BA09080F49
S1131520191FC8011F910F91FF90EF90DF90CF908A
S11315300895CF92DF92EF92FF920F931F93CF9370
S1131540DF93EC016A017B012115310541F4E88147
S1131550F9810190F081E02D642F09951FC02A3094
S11315603105D1F477FF17C0E881F9810190F0814A
S1131570E02D6DE209958C0144275527BA014C19D9
S11315805D096E097F09CE012AE00E94F6099801DF
S1131590280F391F04C02AE00E94F6099C01C901E2
S11315A0DF91CF911F910F91FF90EF90DF90CF903B
S11315B00895CF92DF92EF92FF920F931F936C01E5
S11315C07B019A010027F7FC0095102FB801A701B1
S11315D00E94990A8C01C6010E94BA09080F191FBA
S11315E0C8011F910F91FF90EF90DF90CF90089565
S11315F00E94DA090895EF92FF920F931F937C01E2
S11316000E94DA098C01C7010E94BA09080F191F48
S1131610C8011F910F91FF90EF900895EF92FF92F0
S11316200F931F93CF93DF93FC01DB01861797077A
S113163039F12481358114968D919C911597281741
S1131640390701F5232BE1F0E080F180CD91DC91A5
S113165013C0992787FD90950E94750E8C0188818F
S1131660992787FD90950E94750E0817190751F464
S11316700894E11CF11C2196F7018081882349F725
S113168081E001C080E0DF91CF911F910F91FF9025
S1131690EF9008950F931F93CF93DF93EC018B0189
S11316A06F5F7F4F888199810E94540D009711F4D8
S11316B080E005C0998388831B830A8381E0DF91DE
S11316C0CF911F910F910895CF93DF93EC018881FF
S11316D09981892B29F08A819B818617970760F469
S11316E0CE010E944A0B882341F08C819D81892B75
S11316F019F4E881F981108281E0DF91CF91089596
S1131700EF92FF920F931F93CF93DF93EC017B0132
S11317106C817D81E114F104C1F04115510599F00A
S11317208A01060F171FB8010E94640B882369F011
S1131730888199812C813D81820F931FB7010E947A
S1131740860E1D830C8381E001C080E0DF91CF9180
S11317501F910F91FF90EF900895DF93CF9300D0E6
S1131760CDB7DEB769831A82BE016F5F7F4F41E058
S113177050E00E94800B0F900F90CF91DF9108955D
S1131780CF93DF93EC0188819981009711F00E9437
S1131790BC0C198218821D821C821B821A82DF9162
S11317A0CF910895EF92FF920F931F93CF93DF93FE
S11317B0EC017B018A01BA010E94640B882321F4A5
S11317C0CE010E94C00B07C01D830C8388819981C0
S11317D0B7010E94860ECE01DF91CF911F910F9128
S11317E0FF90EF900895CF93DF93EC011982188254
S11317F01B821A821D821C821E826115710551F0A2
S1131800DB010D900020E9F71197A61BB70BAD0182
S11318100E94D20BDF91CF910895CF93DF93EC0117
S1131820FB018617970761F060817181611571056D
S113183029F0448155810E94D20B02C00E94C00B42
S1131840CE01DF91CF910895FC01118210821382A1
S113185012821582148216820E940D0C0895FC01D6
S1131860808191810E94BC0C08950F931F93CF93A4
S1131870DF93BC018230910510F462E070E0E091E6
S1131880AB03F091AC03A0E0B0E040E050E024C032
S11318908081918186179707D0F08617970771F496
S11318A082819381109729F013969C938E931297BB
S11318B02CC09093AC038093AB0327C04115510512
S11318C019F08417950718F4EF018D01AC01DF01BD
S11318D0828193819C01F9013097D1F6411551051C
S11318E0F9F0CA01861B970B8430910580F48A8134
S11318F09B810115110521F0F8019383828304C0B3
S11319009093AC038093AB03FE0132962FC0FE018B
S1131910E80FF91F6193719302979983888326C016
S11319208DB79EB7885790402091AF023091B00296
S113193028173907C8F4AC01421B530B4617570745
S113194098F0CB0102964817590770F0820F931F45
S11319509093B0028093AF029093B2028093B1024D
S1131960F9016193719302C0E0E0F0E0CF01DF91EF
S1131970CF911F910F910895CF93DF939C0100970E
S113198009F48FC0EC0122971B821A826091AB0389
S11319907091AC036115710581F488819981820F7E
S11319A0931F2091AF023091B0022817390739F5FF
S11319B0D093B002C093AF0274C0DB0140E050E0AA
S11319C0AC17BD0708F1BB83AA83FE0121913191B5
S11319D0E20FF31FAE17BF0779F48D919C91119715
S11319E0280F391F2E5F3F4F3983288312968D911C
S11319F09C9113979B838A834115510571F4D0936D
S1131A00AC03C093AB034DC012968D919C91139778
S1131A10AD01009711F0DC01D3CFDA011396DC930A
S1131A20CE931297FA0121913191E20FF31FCE1751
S1131A30DF0769F488819981280F391F2E5F3F4F92
S1131A40FA01318320838A819B8193838283E0E03E
S1131A50F0E0DB0112968D919C911397009719F099
S1131A60BC01FD01F6CFAB014E5F5F4FDB018D91F1
S1131A709C91840F951F2091AF023091B0022817DA
S1131A80390779F4309729F41092AC031092AB0320
S1131A9002C013821282425050405093B0024093CD
S1131AA0AF02DF91CF9108956F927F928F929F92B0
S1131AB0AF92BF92CF92DF92EF92FF920F931F9358
S1131AC0CF93DF938C01009729F4CB010E94350C4E
S1131AD08C01B4C08EEFE82E8FEFF82EE00EF11ECD
S1131AE05801A60EB71EAE14BF0408F4A5C0D70152
S1131AF04D915C91119746175707B8F04530510541
S1131B0008F49CC0CA0104978617970708F496C086
S1131B1042505040461B570BF501419351936D932E
S1131B207C93CF010E94BC0C89C04B01841A950A96
S1131B303801640E751EA091AB03B091AC03CC24A4
S1131B40DD24E0E0F0E047C0A615B705A9F5CD9186
S1131B50DC911197CE0102968815990568F1CE01A2
S1131B6088199909029612962C91129713963C9112
S1131B70059758F0F50122833383C819D909D18315
S1131B80C083D7016D937C9309C04E5F5F4F4C0FA8
S1131B905D1FF70151834083C901FC01C114D104C5
S1131BA031F0D6011396FC93EE93129747C0F0934D
S1131BB0AC03E093AB0342C08D919C911197E8175D
S1131BC0F90708F4FC016D0112968C911297139693
S1131BD09C919C01D901109709F0B6CF8091AF0276
S1131BE09091B00286159705B1F4E617F70798F4BB
S1131BF08DB79EB788579040A816B906E8F4B092FE
S1131C00B002A092AF02B092B202A092B102F70168
S1131C107183608313C0CB010E94350CEC010097E3
S1131C2059F0D7014D915C91B8010E947D0EC80115
S1131C300E94BC0C8E0102C000E010E0C801DF91DC
S1131C40CF911F910F91FF90EF90DF90CF90BF90B5
S1131C50AF909F908F907F906F900895629FD00176
S1131C60739FF001829FE00DF11D649FE00DF11D53
S1131C70929FF00D839FF00D749FF00D659FF00D02
S1131C809927729FB00DE11DF91F639FB00DE11DEF
S1131C90F91FBD01CF0111240895A1E21A2EAA1B38
S1131CA0BB1BFD010DC0AA1FBB1FEE1FFF1FA21708
S1131CB0B307E407F50720F0A21BB30BE40BF50B05
S1131CC0661F771F881F991F1A9469F7609570958E
S1131CD0809590959B01AC01BD01CF010895EE0F55
S1131CE0FF1F0590F491E02D0994911108958154FA
S1131CF08A5108F4805E855A0895FB01DC0102C014
S1131D0001900D9241505040D8F70895FB01DC0139
S1111D1001900D920020E1F70895F894FFCFA2
S1131D1E4661696C656420746F2067657420646124
S1131D2E74612066726F6D2049324320536C617664
S1131D3E6520616464723A2030780020636F6D6DA3
S1131D4E616E643A20307800206279746573207273
S1131D5E65717565737465643A20002072657472DA
S1131D6E6965732072656D61696E696E673A2000EC
S1131D7E4661696C656420746F2073656E642049D6
S1131D8E324320436F6D6D616E6420616464723AF8
S1131D9E2030780020646174613A203078004375F5
S1131DAE62656C65742D41726475696E6F20496E3F
S1131DBE74657266616365204C6F616465642E2080
S1131DCE2052656164792E00603030303700524401
S1131DDE59004900433000574F524B494E47004378
S1131DEE3100474F004553544F5000524553554C04
S1131DFE54004641494C005041535300554E4B4EEE
S1131E0E4F574E0053544154450053746174652C1E
S1131E1E20436F6E6669672C207375625374617408
S1131E2E653A00005363616E6E696E6720666F7269
S1131E3E20646576696365732E2E2E706C656173EE
S1131E4E6520776169740054686572652069732032
S1131E5E612070726F626C656D207769746820748E
S1131E6E6865206275732C20636F756C64206E6FC9
S1131E7E7420636F6D706C657465207363616E009E
S1131E8E466F756E6420646576696365206174209F
S1131E9E61646472657373202D2000203078004EC7
S1131EAE6F206465766963657320666F756E640072
S1131EBE6E616E00696E66006F7666002E0000AD70
S1131ECE03640000000000EB0890098108B2089238
S1071EDE08DB080011
S9030000FC
