:100000000C9463000C948B000C948B000C948B006C
:100010000C948B000C948B000C948B000C948B0034
:100020000C948B000C948B000C948B000C948B0024
:100030000C948B000C948B000C948B000C948B0014
:100040000C948B060C948B000C94BC080C940A093D
:100050000C948B000C948B000C948B000C948B00F4
:100060000C948B000C948B000000000024002700EF
:100070002A0000000000250028002B0000000000DE
:1000800023002600290004040404040404040202DA
:100090000202020203030303030301020408102007
:1000A0004080010204081020010204081020000012
:1000B0000007000201000003040600000000000029
:1000C00000003E01760A11241FBECFEFD8E0DEBF4C
:1000D000CDBF12E0A0E0B1E0EAE7F9E102C005908F
:1000E0000D92A836B107D9F713E0A8E6B2E001C037
:1000F0001D92A335B107E1F710E0C6ECD0E004C0D3
:100100002297FE010E94B70CC23CD107C9F70E949A
:10011000CC0A0C94BB0C0C940000CF93DF9381E3CA
:1001200093E040E855E260E070E00E9445098EE00F
:1001300060E00E94D50782E062E00E94D50788E077
:1001400060E00E94D50789E061E00E94D5078AE05F
:1001500061E00E94D50783E061E00E94D507CCE60C
:10016000D2E0CE010E945703CE010E940C03DF9122
:10017000CF9108958F929F92AF92BF92CF92DF92CC
:10018000EF92FF920F931F93CF93DF9383E060E092
:1001900070E00E94750788E00E9468080097D9F710
:1001A00023C0C70161E00E94710320916902309170
:1001B0006A02280F311D30936A0220936902219749
:1001C00081F7C901B6010E946C0CC8014AE050E0F9
:1001D0000E94240CC801B5010E94370C809168026E
:1001E0008F5F8093680219C001E313E00F2EF2E0E5
:1001F0008F2EF1E09F2EF02D0F2EF3E0CF2EDD2479
:10020000F02D0F2EFCE6EF2EF2E0FF2EF02D0F2E3C
:10021000F0E0AF2EF1E0BF2EF02D80916B028F3F0A
:1002200001F1809168028F3FE1F010926A02109212
:100230006902682F83E070E00E947507C801609131
:1002400068024AE050E00E94B40BC801B4010E9469
:10025000370C62E370E080E090E00E94E106E60186
:10026000A0CFDF91CF911F910F91FF90EF90DF9082
:10027000CF90BF90AF909F908F9008958CE692E0C2
:1002800060E04DE00E94AF020895CF93DF93C9E78D
:10029000D2E0CE010E949903CE0160E00E94B90332
:1002A000CE0161E00E94AF03CE0168EE73E00E94D0
:1002B000AA03DF91CF910895FC01838161E00E9440
:1002C00014080895FC01838160E00E9414080895D9
:1002D000CF92DF92EF92FF920F931F93CF93DF9312
:1002E000EC01162FD42EC22E0E945C010F2EF9E7CE
:1002F000EF2EF2E0FF2EF02DC701612F4D2D2C2D9A
:100300000E94840590E09093780280937702CE015A
:100310000E946201C7010E94C103813009F43FC0FD
:100320008C81882391F10F2EF1E3EF2EF3E0FF2E65
:10033000F02DC70165E071E00E94370CC701612F05
:1003400040E150E00E94B40BC70160E371E00E94FD
:10035000370CC7016D2D40E150E00E94B40BC7017E
:100360006DE371E00E94370CC7016C2D4AE050E04C
:100370000E94B40BC70160E571E00E94370CC70111
:10038000602F4AE050E00E94C60B002351F001505C
:10039000CE01612F4D2D2C2D0E94680103C081E0FC
:1003A00001C080E0DF91CF911F910F91FF90EF90FE
:1003B000DF90CF900895CF92DF92EF92FF920F934C
:1003C0001F93CF93DF93EC01162FF42EE22E0E94A1
:1003D0005C0189E792E0612F4F2D2E2D0E941906B6
:1003E00090E09093780280937702CE010E946201A0
:1003F0008091770290917802009729F4809177029A
:100400009091780240C08C81882391F10F2EF1E306
:10041000CF2EF3E0DF2EF02DC60165E671E00E94DD
:10042000370CC601612F40E150E00E94B40BC601B9
:1004300060E371E00E94370CC6016F2D40E150E08F
:100440000E94B40BC60169E871E00E94370CC60136
:100450006E2D40E150E00E94B40BC60160E571E0F2
:100460000E94370CC601602F4AE050E00E94C60B84
:10047000002341F00150CE01612F4F2D2E2D0E94FF
:10048000DB0101C081E0DF91CF911F910F91FF90BF
:10049000EF90DF90CF900895CF92DF92FF920F936D
:1004A0001F93CF93DF93EC01162F042FF22E0E949F
:1004B0005C0189E792E0612F402F0E94590690E08D
:1004C0009093780280937702CE010E94620180911E
:1004D000770290917802009729F4809177029091A9
:1004E000780235C08C81882339F10F2EF1E3CF2EAD
:1004F000F3E0DF2EF02DC60165E671E00E94370CB7
:10050000C601612F40E150E00E94B40BC60160E3D8
:1005100071E00E94370CC601602F40E150E00E945C
:10052000B40BC60160E571E00E94370CC6016F2D67
:100530004AE050E00E94C60BFF2041F02F2D2150D1
:10054000CE01612F402F0E944C0201C081E0DF915B
:10055000CF911F910F91FF90DF90CF9008951F933F
:10056000CF93DF93EC01162F18822FEF3FEF3093DC
:1005700078022093770282E28093710283E2809373
:10058000720284E28093730285E28093740286E2B1
:100590008093750287E280937602442341F04B8377
:1005A000842F61E00E94D507CE010E9462011123D1
:1005B00051F081E393E040E855E260E070E00E9492
:1005C000450981E08C83CE010E945C01DF91CF91CF
:1005D0001F910895E62FF0E0E059FD4F80810895C6
:1005E000CF93DF93EC010E94EA02682FCE0145E22F
:1005F00025E00E944C02DF91CF910895CF93DF93C5
:10060000EC010E94EA02682FCE0141E225E00E943F
:100610004C02DF91CF9108951F93CF93DF93EC01AC
:1006200011E0CE01612F0E94FE021F5F1730C9F753
:10063000DF91CF911F910895CF93DF93EC010E943A
:10064000EA02682FCE0140E225E00E944C02DF91D1
:10065000CF9108950F931F93CF93DF93EC01142F45
:100660000E94EA02682FCE0142E2212F05E00E949B
:10067000DB01DF91CF911F910F9108951F93CF93CD
:10068000DF93EC0111E0CE01612F0E941C03CE012B
:10069000612F40E00E942A03CE01612F0E94F002E8
:1006A0001F5F173081F7DF91CF911F910895CF938E
:1006B000DF93EC010E9445016AE070E080E090E089
:1006C0000E94E106CE010E943E038C81882331F016
:1006D00081E393E063E971E00E943A0CDF91CF91EE
:1006E0000895EF92FF920F93CF93DF937C010E94C6
:1006F000EA02682FC70143E221E005E00E94680199
:10070000813041F080E00FC0CE010E94C403F701A8
:10071000808302C0C9E7D2E0CE010E94C1038823D2
:1007200099F7F7018081DF91CF910F91FF90EF90C2
:100730000895449A459AE9EBF0E080818E7F8083AA
:1007400080818D7F808388E48093B80084E48093E7
:10075000BC00089570939C0260939B0208956623E9
:1007600021F488E48093B80008958CE08093B80069
:100770000895662319F0449A459A08954498459837
:10078000089580919F02089520919F0230919D02CB
:10079000321B30939E02222321F410929E0280E0AD
:1007A0000895215020939F02830F911DFC018281A7
:1007B0000895ECEBF0E0108284E480830895CF92FA
:1007C000DF92EF92FF920F931F93CF93DF938C01F1
:1007D0000E94D3066B017C0184E98093BC00CCEBC2
:1007E000D0E01AC00097E1F00E94D306AB01BC0133
:1007F0004C195D096E097F0980919B0290919C02C2
:10080000A0E0B0E0481759076A077B0728F0C80145
:100810000E94D90381E008C080919B0290919C02C4
:10082000288124FDDFCF80E0DF91CF911F910F91D0
:10083000FF90EF90DF90CF900895CF92DF92EF92EC
:10084000FF920F931F93CF93DF938C01C62F0E94CB
:10085000D3066B017C01CC2321F084EC8093BC0097
:100860001EC084E88093BC001AC00097F1F00E947B
:10087000D306AB01BC014C195D096E097F0980915B
:100880009B0290919C02A0E0B0E0481759076A07CC
:100890007B0738F0C8010E94D903C1E018C0CCEB37
:1008A000D0E080919B0290919C0228812223ECF65B
:1008B0008091B900887F883339F4C091B900C87F2E
:1008C000C8010E94D90303C0C091B900C87F8C2F12
:1008D000DF91CF911F910F91FF90EF90DF90CF901C
:1008E0000895CF92DF92EF92FF920F931F93CF93D1
:1008F000DF938C016093BB000E94D3066B017C01E7
:1009000084E88093BC00CCEBD0E01AC00097E1F003
:100910000E94D306AB01BC014C195D096E097F0929
:1009200080919B0290919C02A0E0B0E0481759078B
:100930006A077B0728F0C8010E94D903C1E01DC0E7
:1009400080919B0290919C0228812223FCF6809149
:10095000B900887F883281F0E9EBF0E0C081C87F80
:100960008081887F803321F4C8010E94DF0305C0A5
:10097000C8010E94D90301C0C0E08C2FDF91CF9144
:100980001F910F91FF90EF90DF90CF900895CF923D
:10099000DF92EF92FF920F931F93CF93DF938C011F
:1009A0006093BB000E94D3066B017C0184E88093B6
:1009B000BC00CCEBD0E01AC00097E1F00E94D30657
:1009C000AB01BC014C195D096E097F0980919B0246
:1009D00090919C02A0E0B0E0481759076A077B0796
:1009E00028F0C8010E94D903C1E029C080919B0270
:1009F00090919C0228812223FCF68091B900887F87
:100A00008831D1F08091B900887F8034B9F0E9EB6A
:100A1000F0E0C081C87F8081887F803229F080919A
:100A2000B900887F883421F4C8010E94DF0307C021
:100A3000C8010E94D90303C0C0E001C0C0E08C2FF0
:100A4000DF91CF911F910F91FF90EF90DF90CF90AA
:100A50000895CF92DF92EF92FF920F931F93CF935F
:100A6000DF938C010E94D3066B017C0184EA8093A2
:100A7000BC00CCEBD0E01AC00097E1F00E94D30696
:100A8000AB01BC014C195D096E097F0980919B0285
:100A900090919C02A0E0B0E0481759076A077B07D5
:100AA00028F0C8010E94D903C1E024C080919B02B4
:100AB00090919C0228812223FCF68091B900887FC6
:100AC0008830A9F08091B900887F803191F08091C1
:100AD000B900887F883339F4C091B900C87FC80154
:100AE0000E94D90307C0C091B900C87F03C0C0E00D
:100AF00001C0C0E08C2FDF91CF911F910F91FF902B
:100B0000EF90DF90CF900895CF92DF92EF92FF9217
:100B10000F931F93CF93DF93EC01062FF42E122F28
:100B200010929F0210929E02222309F411E0812F5D
:100B3000815089831882CE010E94290588838823E9
:100B400009F06EC0000FCE01602F0E94C704888399
:100B5000882329F0813009F063C082E061C0CE01B2
:100B60006F2D0E9471048883882329F0813009F059
:100B700057C083E055C0CE010E9429058883882391
:100B800029F0813009F04CC084E04AC0602F6F5FCB
:100B9000CE010E94C7048883882319F4112329F405
:100BA00032C08130E9F585E03BC0EE24FF24689433
:100BB000E1F8EC0EFD1E00E00F2EFBEBCF2EDD2446
:100BC000F02D8981801751F4CE0160E00E941D0450
:100BD0008883813011F1883551F022C0CE0161E067
:100BE0000E941D0488838130D1F08035C9F4F6015C
:100BF0008081F70181937F010F5F00939F02009333
:100C00009D020117F1F6CE010E94DF03888388233D
:100C100039F0813029F487E003C086E001C086E026
:100C2000DF91CF911F910F91FF90EF90DF90CF90C8
:100C30000895FF920F931F93CF93DF93EC01162F2C
:100C4000042FF22E18820E9429058883882359F5E3
:100C5000612F660FCE010E94C7048883882321F08C
:100C6000813009F582E01FC0CE01602F0E9471041F
:100C70008883882321F08130B1F483E014C0CE0151
:100C80006F2D0E9471048883882321F0813059F4EC
:100C900083E009C0CE010E94DF038883882319F016
:100CA000813009F487E0DF91CF911F910F91FF9080
:100CB00008950F931F93CF93DF93EC01162F042F0A
:100CC00018820E9429058883882301F5612F660F09
:100CD000CE010E94C7048883882321F08130B1F4BB
:100CE00082E014C0CE01602F0E94710488838823A3
:100CF00021F0813059F483E009C0CE010E94DF0366
:100D00008883882319F0813009F487E0DF91CF913F
:100D10001F910F9108951F920F920FB60F921124F9
:100D20002F933F938F939F93AF93BF938091A40290
:100D30009091A502A091A602B091A7023091A802BD
:100D40000196A11DB11D232F2D5F2D3720F02D57AA
:100D50000196A11DB11D2093A8028093A402909337
:100D6000A502A093A602B093A7028091A002909141
:100D7000A102A091A202B091A3020196A11DB11DF2
:100D80008093A0029093A102A093A202B093A30229
:100D9000BF91AF919F918F913F912F910F900FBE77
:100DA0000F901F9018958FB7F8942091A40230915E
:100DB000A5024091A6025091A7028FBFB901CA01B6
:100DC00008959B01AC017FB7F8948091A0029091A7
:100DD000A102A091A202B091A30266B5A89B05C092
:100DE0006F3F19F00196A11DB11D7FBFBA2FA92F2A
:100DF000982F8827860F911DA11DB11D62E0880FD5
:100E0000991FAA1FBB1F6A95D1F7BC012DC0FFB760
:100E1000F8948091A0029091A102A091A202B091B9
:100E2000A302E6B5A89B05C0EF3F19F00196A11DEE
:100E3000B11DFFBFBA2FA92F982F88278E0F911DA4
:100E4000A11DB11DE2E0880F991FAA1FBB1FEA95E3
:100E5000D1F7861B970B885E9340C8F22150304033
:100E60004040504068517C4F2115310541055105E6
:100E700071F60895789484B5826084BD84B58160EC
:100E800084BD85B5826085BD85B5816085BDEEE692
:100E9000F0E0808181608083E1E8F0E01082808171
:100EA00082608083808181608083E0E8F0E08081DF
:100EB00081608083E1EBF0E0808184608083E0EBFF
:100EC000F0E0808181608083EAE7F0E080818460E7
:100ED0008083808182608083808181608083808143
:100EE000806880831092C10008951F93CF93DF9391
:100EF000182FEB0161E00E94D507209709F44AC042
:100F0000CF3FD10509F449C0E12FF0E0E255FF4F92
:100F100084918330C1F0843028F4813051F08230E4
:100F2000B1F50CC0863019F1873049F1843079F57C
:100F300014C084B5806884BDC7BD33C084B58062E9
:100F400084BDC8BD2EC080918000806880938000E1
:100F5000D0938900C093880024C080918000806273
:100F600080938000D0938B00C0938A001AC0809138
:100F7000B00080688093B000C093B30012C080912D
:100F8000B00080628093B000C093B4000AC0C03843
:100F9000D1051CF4812F60E002C0812F61E00E9426
:100FA0001408DF91CF911F910895CF93DF93482FBD
:100FB00050E0CA0186569F4FFC0134914A575F4F5B
:100FC000FA018491882369F190E0880F991FFC0150
:100FD000E859FF4FA591B491FC01EE58FF4FC59120
:100FE000D491662351F42FB7F8948C91932F909558
:100FF00089238C93888189230BC0623061F42FB7D9
:10100000F8948C91932F909589238C938881832BCE
:1010100088832FBF06C09FB7F8948C91832B8C9345
:101020009FBFDF91CF910895482F50E0CA018255AC
:101030009F4FFC012491CA0186569F4FFC01949159
:101040004A575F4FFA013491332309F440C02223F9
:1010500051F1233071F0243028F42130A1F02230F6
:1010600011F514C02630B1F02730C1F02430D9F486
:1010700004C0809180008F7703C0809180008F7DB5
:101080008093800010C084B58F7702C084B58F7DB7
:1010900084BD09C08091B0008F7703C08091B000FB
:1010A0008F7D8093B000E32FF0E0EE0FFF1FEE582E
:1010B000FF4FA591B4912FB7F894662321F48C913A
:1010C0009095892302C08C91892B8C932FBF089512
:1010D000682F70E0CB0182559F4FFC012491CB011A
:1010E00086569F4FFC0144916A577F4FFB019491B4
:1010F000992319F420E030E03CC0222351F1233041
:1011000071F0243028F42130A1F0223011F514C000
:101110002630B1F02730C1F02430D9F404C08091DA
:1011200080008F7703C0809180008F7D8093800046
:1011300010C084B58F7702C084B58F7D84BD09C08F
:101140008091B0008F7703C08091B0008F7D809335
:10115000B000892F90E0880F991F84589F4FFC01A1
:10116000A591B4918C9120E030E0842311F021E02E
:1011700030E0C901089508951F920F920FB60F92A3
:1011800011242F933F934F938F939F93EF93FF934C
:101190008091C00082FD1DC04091C6002091E902EF
:1011A0003091EA022F5F3F4F2F7330708091EB0236
:1011B0009091EC022817390771F0E091E902F09163
:1011C000EA02E755FD4F40833093EA022093E9029B
:1011D00002C08091C600FF91EF919F918F914F9136
:1011E0003F912F910F900FBE0F901F901895E09197
:1011F0003D03F0913E03E05CFF4F8191919120818E
:101200003181821B930B8F739070892B11F00E9498
:10121000BB0808951F920F920FB60F9211242F93BF
:101220003F938F939F93EF93FF9320912D033091E2
:101230002E0380912F03909130032817390731F442
:101240008091C1008F7D8093C10014C0E0912F0375
:10125000F0913003E351FD4F208180912F03909155
:10126000300301968F7390709093300380932F0317
:101270002093C600FF91EF919F918F913F912F9105
:101280000F900FBE0F901F901895AF92BF92DF92F4
:10129000EF92FF920F931F93CF93DF93EC017A01AC
:1012A0008B01DD24403081EE580780E0680780E044
:1012B000780711F0DD24D39491E0A92EB12CEC89AC
:1012C000FD89DD2069F0C50108A002C0880F991FC3
:1012D0000A94E2F7808360E079E08DE390E005C056
:1012E000108260E874E88EE190E0A80197010E9406
:1012F0007F0C2150304040405040569547953795DF
:10130000279580E12030380720F0DD2011F0DD2422
:10131000D6CFE889F9893083EA89FB89208319A22D
:10132000EE89FF89408121E030E0C9010C8C02C0C8
:10133000880F991F0A94E2F7482B4083EE89FF89B2
:101340004081C9010D8C02C0880F991F0A94E2F7F1
:10135000482B4083EE89FF894081C9010E8C02C071
:10136000880F991F0A94E2F7482B4083EE89FF8982
:1013700080810F8C02C0220F331F0A94E2F7209560
:1013800028232083DF91CF911F910F91FF90EF9041
:10139000DF90BF90AF900895DC011C96ED91FC9119
:1013A0001D97E05CFF4F2191319180819181281B35
:1013B000390B2F733070C9010895DC011C96ED9133
:1013C000FC911D97E05CFF4F20813181E054F0409B
:1013D000DF01AE5BBF4F8D919C91119728173907A4
:1013E00019F42FEF3FEF07C08D919C91E80FF91F83
:1013F0008081282F30E0C9010895DC011C96ED9111
:10140000FC911D97E05CFF4F20813181E054F0405A
:10141000DF01AE5BBF4F8D919C9111972817390763
:1014200019F42FEF3FEF10C08D919C911197E80FA9
:10143000F91F20818D919C91119701968F73907067
:1014400011969C938E9330E0C9010895DC0191962A
:101450008C919197882339F05496ED91FC91559792
:10146000808186FFF9CF91961C920895CF93DF93E8
:10147000EC01EE85FF85E05CFF4F20813181E05477
:10148000F0402F5F3F4F2F733070DF01AE5BBF4FD7
:101490008D919C91119728173907D1F3E05CFF4F8C
:1014A00080819181E054F040E80FF91F6083EE8560
:1014B000FF85E05CFF4F31832083EE89FF89208127
:1014C00081E090E00F8C02C0880F991F0A94E2F728
:1014D000282B208381E089A3EC89FD8980818064A9
:1014E000808381E090E0DF91CF91089510923403E2
:1014F0001092330388EE93E0A0E0B0E080933503D0
:1015000090933603A0933703B09338038CE592E0B1
:10151000909332038093310389EA92E090933E03E3
:1015200080933D038DEE92E09093400380933F03C0
:1015300085EC90E0909342038093410384EC90E02B
:10154000909344038093430380EC90E09093460390
:101550008093450381EC90E0909348038093470388
:1015600082EC90E090934A038093490386EC90E0EC
:1015700090934C0380934B0384E080934D0383E06E
:1015800080934E0387E080934F0385E08093500360
:1015900081E0809351030895CF93DF930E943A072F
:1015A0000E948D00C7EFD8E00E94BA002097E1F3B7
:1015B0000E94F708F9CFCF92DF92EF92FF920F933C
:1015C0001F93CF93DF937C016B018A01C0E0D0E0D1
:1015D0000FC0D6016D916D01D701ED91FC91019085
:1015E000F081E02DC7010995C80FD91F01501040A7
:1015F0000115110571F7CE01DF91CF911F910F9168
:10160000FF90EF90DF90CF900895EF92FF920F93AD
:101610001F938C01DC01ED91FC910190F081E02D94
:101620006DE009957C01D801ED91FC910190F0816C
:10163000E02DC8016AE009959C012E0D3F1DC901EE
:101640001F910F91FF90EF900895CF93DF93EC01DE
:101650006115710519F420E030E00FC0DB010D9039
:101660000020E9F71197A61BB70BE881F9810280EA
:10167000F381E02DAD0109959C01C901DF91CF9166
:1016800008954F925F927F928F929F92AF92BF92F6
:10169000CF92DF92EF92FF920F931F93DF93CF933E
:1016A000CDB7DEB7A1970FB6F894DEBF0FBECDBFA2
:1016B0002C01742ECB01223008F42AE019A231E269
:1016C000C32ED12CCC0EDD1E822E9924AA24BB243D
:1016D000672D752FA50194010E947F0C79018A0165
:1016E000C801B701A50194010E944D0C472D461B6E
:1016F0000894C108D1084A3014F4405D01C0495C27
:10170000F6014083E114F1040105110521F07E2C5E
:101710005F2DC801DDCFC201B6010E94250BA19645
:101720000FB6F894DEBF0FBECDBFCF91DF911F91F2
:101730000F91FF90EF90DF90CF90BF90AF909F9070
:101740008F907F905F904F900895DC0121153105B7
:1017500041F4ED91FC910190F081E02D642F099509
:1017600008950E94410B0895EF92FF920F931F93EB
:101770009A01E62EFF2400E010E0B801A7010E94C4
:10178000A50B1F910F91FF90EF900895CF92DF92DC
:10179000EF92FF920F931F936C01E62E9A01FF24A4
:1017A00000E010E0B801A7010E94A50B8C01C60162
:1017B0000E94050B080F191FC8011F910F91FF9080
:1017C000EF90DF90CF900895CF92DF92EF92FF924B
:1017D0000F931F93CF93DF93EC016A017B012115D7
:1017E000310541F4E881F9810190F081E02D642F09
:1017F00009951FC02A303105D1F477FF17C0E88161
:10180000F9810190F081E02D6DE209958C0144276A
:101810005527BA014C195D096E097F09CE012AE0EE
:101820000E94410B9801280F391F04C02AE00E9432
:10183000410B9C01C901DF91CF911F910F91FF9046
:10184000EF90DF90CF900895EF92FF920F931F9348
:101850007B019A010027F7FC0095102FB801A70122
:101860000E94E40B1F910F91FF90EF9008950E944A
:10187000250B0895EF92FF920F931F937C010E9416
:10188000250B8C01C7010E94050B080F191FC80109
:101890001F910F91FF90EF900895629FD001739F69
:1018A000F001829FE00DF11D649FE00DF11D929FFC
:1018B000F00D839FF00D749FF00D659FF00D99273B
:1018C000729FB00DE11DF91F639FB00DE11DF91F5F
:1018D000BD01CF011124089597FB092E07260AD0D8
:1018E00077FD04D02ED006D000201AF470956195B3
:1018F0007F4F0895F6F7909581959F4F0895A1E247
:101900001A2EAA1BBB1BFD010DC0AA1FBB1FEE1F79
:10191000FF1FA217B307E407F50720F0A21BB30BC4
:10192000E40BF50B661F771F881F991F1A9469F740
:1019300060957095809590959B01AC01BD01CF019C
:101940000895AA1BBB1B51E107C0AA1FBB1FA61706
:10195000B70710F0A61BB70B881F991F5A95A9F758
:1019600080959095BC01CD010895EE0FFF1F059065
:0A197000F491E02D0994F894FFCFE4
:10197A000A002C20004661696C656420746F206738
:10198A00657420646174612066726F6D2049324308
:10199A0020536C61766520616464723A2030780065
:1019AA0020636F6D6D616E643A2030780020627931
:1019BA00746573207265717565737465643A200085
:1019CA0020726574726965732072656D61696E69EA
:1019DA006E673A20004661696C656420746F2073F3
:1019EA00656E642049324320436F6D6D616E6420D9
:1019FA00616464723A2030780020646174613A202C
:101A0A00307800437562656C65742D41726475693E
:101A1A006E6F20496E74657266616365204C6F61F2
:101A2A006465642E202052656164792E00536361D7
:101A3A006E6E696E6720666F72206465766963658B
:101A4A00732E2E2E706C6561736520776169740040
:101A5A00546865726520697320612070726F626CC8
:101A6A00656D207769746820746865206275732CC7
:101A7A0020636F756C64206E6F7420636F6D706C79
:101A8A00657465207363616E00466F756E642064C9
:101A9A006576696365206174206164647265737335
:101AAA00202D2000203078004E6F2064657669630F
:101ABA00657320666F756E64006E616E00696E668E
:101ACA00006F7666002E000000000000360ADB0A6E
:081ADA00CC09FD09DD09260A13
:00000001FF
