:1000000009C016C015C014C013C012C011C010C062
:100010000FC071C011241FBECFE9CDBF10E0A0E614
:10002000B0E001C01D92AA38B107E1F7C2D0B1C15A
:10003000E7CF83E08FBD19BC16BEB99AC198B89AB4
:10004000C09810926600089583E08FBD19BC16BE5B
:10005000B99AC19AB89AC09A1092660085E090E069
:1000600090936900809368000895909167009130A3
:1000700011F4EADF0EC016BEB89AC09893E29FBD95
:1000800090916600923009F08EE689BD82E08093FF
:10009000660082E080936700089590916700923037
:1000A00011F4D2DF0EC019BCB99AC19893E89FBD74
:1000B00090916600913009F089E686BF81E08093D7
:1000C000660081E0809367000895B89AC098B99A55
:1000D000C198BB98C398BC98C498089583E087B929
:1000E0008FEC86B9089583E28FBD83E083BF12BE93
:1000F00019BC16BE08951F920F920FB60F921124CD
:100100002F938F939F9320916000222319F0213029
:10011000C9F40CC084B195B19093620080936100E2
:1001200082E087B981E0809360000CC084B195B112
:10013000909364008093630083E087B92093650007
:1001400010926000369A9F918F912F910F900FBE61
:100150000F901F9018959C01261B370BC901049620
:100160008930910510F420E030E0220F331F121681
:1001700013061CF4C9018D9607C02115310549F0FD
:1001800082E390E0821B930B8F3F910509F024F4EA
:1001900005C080E090E002C08FEF90E037FF02C022
:1001A00064DF08952115310511F077DF089541DFEF
:1001B00008958F929F92BF92CF92DF92EF92FF921B
:1001C0000F931F93CF93DF9384E190E090936900A6
:1001D000809368007ADF82DF86DF789420E0DD2478
:1001E000CC24BB24EE24FF24C0E0D0E100E010E1E9
:1001F00001C02F5F809165008823E1F310926500B4
:10020000EB2DF0E08091610090916200EE0FFF1FF6
:10021000E658FF4F91838083B3948B2D883008F08C
:10022000BB248C2D893110F4C39412C0ED2DF0E065
:100230008091630090916400EE0FFF1FE659FF4F1D
:1002400091838083D3948D2D883008F0DD24CC24D5
:10025000293178F28091680090916900009709F047
:1002600074C080E090E060E070E0FC01EE0FFF1FE2
:10027000E659FF4F20813181620F731F019688304C
:10028000910599F7B3E076956795BA95E1F780E027
:1002900090E020E030E0FC01EE0FFF1FE658FF4F3A
:1002A00040815181240F351F01968830910599F7BF
:1002B0004901E3E096948794EA95E1F7CB01940134
:1002C000A401401B510B4837510530F0A8014819D3
:1002D000590948375105A0F4AC014C1B5D0B49315D
:1002E000510530F0AE01481B590B4931510540F41E
:1002F0000894E11CF11C8BE4E816F10460F411C0D1
:10030000020F131F16950795C80FD91FD695C795CD
:10031000EE24FF2406C08DDE20E03BE4E32EF12C2A
:1003200069CF80E090E02FE632E040E050E018D066
:100330002AE096958795779567952A95D1F7CB0111
:1003400088539F4FB40107DF09C0809168009091E6
:1003500069000197909369008093680020E04ACF7C
:10036000FF27EE27BB27AA2760FF04C0A20FB31FF9
:10037000E41FF51F220F331F441F551F96958795C5
:100380007795679589F70097760771F7CF01BD01DB
:060390000895F894FFCF70
:00000001FF
