:1000000009C021C020C01FC01EC01DC01CC01BC015
:100010001AC060C011241FBECFE9CDBF10E0A0E61A
:10002000B0E0E8E6F1E002C005900D92AC36B10711
:10003000D9F720E0ACE6B0E001C01D92AD36B207C2
:10004000E1F713D08FC0DCCFB89A8FB5836C8FBD2A
:100050008FEF86BF83B7816083BFBC98C49882E26C
:1000600087B98FEE86B978940895EEDF80916C00A1
:10007000E1E6F0E021E030E06191681728F1F90154
:100080003197DF01A05ABF4F4C9150E0EA59FF4F22
:10009000E081F0E090E0841B950B982F70E0641BEA
:1000A000750B80E038D0CB01D901AA59BF4F6C91B4
:1000B00070E06E1B7F0B1DD03E2F2227280F391FAB
:1000C000832F809586BFD2CF2F5F3F4F26303105DB
:1000D00099F6CCCF1F920F920FB60F9211248F93E7
:1000E00085B180936C008F910F900FBE0F901F9081
:1000F00018955527002480FF02C0060E571F660F73
:10010000771F6115710521F096958795009799F7EE
:10011000952F802D089597FB072E16F4009406D096
:1001200077FD08D00BD007FC05D03EF49095819563
:100130009F4F0895709561957F4F0895AA1BBB1B33
:1001400051E107C0AA1FBB1FA617B70710F0A61BD7
:10015000B70B881F991F5A95A9F780959095BC01F8
:08016000CD010895F894FFCFD2
:0C016800000680C0EBFF00003C78C0FFE8
:00000001FF
